{
  "_format": "hh-sol-artifact-1",
  "contractName": "Land",
  "sourceName": "contracts/Land.sol",
  "abi": [
    {
      "inputs": [],
      "stateMutability": "nonpayable",
      "type": "constructor"
    },
    {
      "inputs": [
        {
          "internalType": "address",
          "name": "sender",
          "type": "address"
        },
        {
          "internalType": "uint256",
          "name": "balance",
          "type": "uint256"
        },
        {
          "internalType": "uint256",
          "name": "needed",
          "type": "uint256"
        },
        {
          "internalType": "uint256",
          "name": "tokenId",
          "type": "uint256"
        }
      ],
      "name": "ERC1155InsufficientBalance",
      "type": "error"
    },
    {
      "inputs": [
        {
          "internalType": "address",
          "name": "approver",
          "type": "address"
        }
      ],
      "name": "ERC1155InvalidApprover",
      "type": "error"
    },
    {
      "inputs": [
        {
          "internalType": "uint256",
          "name": "idsLength",
          "type": "uint256"
        },
        {
          "internalType": "uint256",
          "name": "valuesLength",
          "type": "uint256"
        }
      ],
      "name": "ERC1155InvalidArrayLength",
      "type": "error"
    },
    {
      "inputs": [
        {
          "internalType": "address",
          "name": "operator",
          "type": "address"
        }
      ],
      "name": "ERC1155InvalidOperator",
      "type": "error"
    },
    {
      "inputs": [
        {
          "internalType": "address",
          "name": "receiver",
          "type": "address"
        }
      ],
      "name": "ERC1155InvalidReceiver",
      "type": "error"
    },
    {
      "inputs": [
        {
          "internalType": "address",
          "name": "sender",
          "type": "address"
        }
      ],
      "name": "ERC1155InvalidSender",
      "type": "error"
    },
    {
      "inputs": [
        {
          "internalType": "address",
          "name": "operator",
          "type": "address"
        },
        {
          "internalType": "address",
          "name": "owner",
          "type": "address"
        }
      ],
      "name": "ERC1155MissingApprovalForAll",
      "type": "error"
    },
    {
      "inputs": [
        {
          "internalType": "address",
          "name": "owner",
          "type": "address"
        }
      ],
      "name": "OwnableInvalidOwner",
      "type": "error"
    },
    {
      "inputs": [
        {
          "internalType": "address",
          "name": "account",
          "type": "address"
        }
      ],
      "name": "OwnableUnauthorizedAccount",
      "type": "error"
    },
    {
      "anonymous": false,
      "inputs": [
        {
          "indexed": true,
          "internalType": "address",
          "name": "account",
          "type": "address"
        },
        {
          "indexed": true,
          "internalType": "address",
          "name": "operator",
          "type": "address"
        },
        {
          "indexed": false,
          "internalType": "bool",
          "name": "approved",
          "type": "bool"
        }
      ],
      "name": "ApprovalForAll",
      "type": "event"
    },
    {
      "anonymous": false,
      "inputs": [
        {
          "indexed": true,
          "internalType": "uint256",
          "name": "landId",
          "type": "uint256"
        },
        {
          "indexed": false,
          "internalType": "string",
          "name": "name",
          "type": "string"
        },
        {
          "indexed": false,
          "internalType": "uint256",
          "name": "numberOfFractions",
          "type": "uint256"
        },
        {
          "indexed": false,
          "internalType": "string",
          "name": "metadataURI",
          "type": "string"
        }
      ],
      "name": "LandFractionalized",
      "type": "event"
    },
    {
      "anonymous": false,
      "inputs": [
        {
          "indexed": true,
          "internalType": "address",
          "name": "previousOwner",
          "type": "address"
        },
        {
          "indexed": true,
          "internalType": "address",
          "name": "newOwner",
          "type": "address"
        }
      ],
      "name": "OwnershipTransferred",
      "type": "event"
    },
    {
      "anonymous": false,
      "inputs": [
        {
          "indexed": true,
          "internalType": "uint256",
          "name": "landId",
          "type": "uint256"
        },
        {
          "indexed": true,
          "internalType": "address",
          "name": "seller",
          "type": "address"
        },
        {
          "indexed": false,
          "internalType": "uint256",
          "name": "amount",
          "type": "uint256"
        },
        {
          "indexed": false,
          "internalType": "uint256",
          "name": "pricePerToken",
          "type": "uint256"
        }
      ],
      "name": "TokensListedForSale",
      "type": "event"
    },
    {
      "anonymous": false,
      "inputs": [
        {
          "indexed": true,
          "internalType": "uint256",
          "name": "landId",
          "type": "uint256"
        },
        {
          "indexed": true,
          "internalType": "address",
          "name": "seller",
          "type": "address"
        },
        {
          "indexed": false,
          "internalType": "uint256",
          "name": "amount",
          "type": "uint256"
        },
        {
          "indexed": false,
          "internalType": "uint256",
          "name": "pricePerToken",
          "type": "uint256"
        }
      ],
      "name": "TokensListingCancelled",
      "type": "event"
    },
    {
      "anonymous": false,
      "inputs": [
        {
          "indexed": true,
          "internalType": "uint256",
          "name": "landId",
          "type": "uint256"
        },
        {
          "indexed": true,
          "internalType": "address",
          "name": "buyer",
          "type": "address"
        },
        {
          "indexed": true,
          "internalType": "address",
          "name": "seller",
          "type": "address"
        },
        {
          "indexed": false,
          "internalType": "uint256",
          "name": "amount",
          "type": "uint256"
        },
        {
          "indexed": false,
          "internalType": "uint256",
          "name": "pricePerToken",
          "type": "uint256"
        }
      ],
      "name": "TokensPurchased",
      "type": "event"
    },
    {
      "anonymous": false,
      "inputs": [
        {
          "indexed": true,
          "internalType": "address",
          "name": "operator",
          "type": "address"
        },
        {
          "indexed": true,
          "internalType": "address",
          "name": "from",
          "type": "address"
        },
        {
          "indexed": true,
          "internalType": "address",
          "name": "to",
          "type": "address"
        },
        {
          "indexed": false,
          "internalType": "uint256[]",
          "name": "ids",
          "type": "uint256[]"
        },
        {
          "indexed": false,
          "internalType": "uint256[]",
          "name": "values",
          "type": "uint256[]"
        }
      ],
      "name": "TransferBatch",
      "type": "event"
    },
    {
      "anonymous": false,
      "inputs": [
        {
          "indexed": true,
          "internalType": "address",
          "name": "from",
          "type": "address"
        },
        {
          "indexed": true,
          "internalType": "address",
          "name": "to",
          "type": "address"
        },
        {
          "indexed": false,
          "internalType": "uint256",
          "name": "landId",
          "type": "uint256"
        },
        {
          "indexed": false,
          "internalType": "uint256",
          "name": "amount",
          "type": "uint256"
        }
      ],
      "name": "TransferFractionalTokens",
      "type": "event"
    },
    {
      "anonymous": false,
      "inputs": [
        {
          "indexed": true,
          "internalType": "address",
          "name": "operator",
          "type": "address"
        },
        {
          "indexed": true,
          "internalType": "address",
          "name": "from",
          "type": "address"
        },
        {
          "indexed": true,
          "internalType": "address",
          "name": "to",
          "type": "address"
        },
        {
          "indexed": false,
          "internalType": "uint256",
          "name": "id",
          "type": "uint256"
        },
        {
          "indexed": false,
          "internalType": "uint256",
          "name": "value",
          "type": "uint256"
        }
      ],
      "name": "TransferSingle",
      "type": "event"
    },
    {
      "anonymous": false,
      "inputs": [
        {
          "indexed": false,
          "internalType": "string",
          "name": "value",
          "type": "string"
        },
        {
          "indexed": true,
          "internalType": "uint256",
          "name": "id",
          "type": "uint256"
        }
      ],
      "name": "URI",
      "type": "event"
    },
    {
      "inputs": [
        {
          "internalType": "address",
          "name": "",
          "type": "address"
        }
      ],
      "name": "activeSaleListings",
      "outputs": [
        {
          "internalType": "address",
          "name": "seller",
          "type": "address"
        },
        {
          "internalType": "uint256",
          "name": "landId",
          "type": "uint256"
        },
        {
          "internalType": "uint256",
          "name": "amount",
          "type": "uint256"
        },
        {
          "internalType": "uint256",
          "name": "pricePerToken",
          "type": "uint256"
        }
      ],
      "stateMutability": "view",
      "type": "function"
    },
    {
      "inputs": [
        {
          "internalType": "address",
          "name": "account",
          "type": "address"
        },
        {
          "internalType": "uint256",
          "name": "id",
          "type": "uint256"
        }
      ],
      "name": "balanceOf",
      "outputs": [
        {
          "internalType": "uint256",
          "name": "",
          "type": "uint256"
        }
      ],
      "stateMutability": "view",
      "type": "function"
    },
    {
      "inputs": [
        {
          "internalType": "address[]",
          "name": "accounts",
          "type": "address[]"
        },
        {
          "internalType": "uint256[]",
          "name": "ids",
          "type": "uint256[]"
        }
      ],
      "name": "balanceOfBatch",
      "outputs": [
        {
          "internalType": "uint256[]",
          "name": "",
          "type": "uint256[]"
        }
      ],
      "stateMutability": "view",
      "type": "function"
    },
    {
      "inputs": [
        {
          "internalType": "uint256",
          "name": "landId",
          "type": "uint256"
        },
        {
          "internalType": "uint256",
          "name": "amount",
          "type": "uint256"
        },
        {
          "internalType": "uint256",
          "name": "pricePerToken",
          "type": "uint256"
        }
      ],
      "name": "cancelTokenListing",
      "outputs": [],
      "stateMutability": "nonpayable",
      "type": "function"
    },
    {
      "inputs": [
        {
          "internalType": "string",
          "name": "name",
          "type": "string"
        },
        {
          "internalType": "uint256",
          "name": "numberOfFractions",
          "type": "uint256"
        },
        {
          "internalType": "string",
          "name": "metadataURI",
          "type": "string"
        }
      ],
      "name": "fractionalizeLand",
      "outputs": [],
      "stateMutability": "nonpayable",
      "type": "function"
    },
    {
      "inputs": [
        {
          "internalType": "address",
          "name": "account",
          "type": "address"
        },
        {
          "internalType": "address",
          "name": "operator",
          "type": "address"
        }
      ],
      "name": "isApprovedForAll",
      "outputs": [
        {
          "internalType": "bool",
          "name": "",
          "type": "bool"
        }
      ],
      "stateMutability": "view",
      "type": "function"
    },
    {
      "inputs": [
        {
          "internalType": "uint256",
          "name": "",
          "type": "uint256"
        }
      ],
      "name": "isFractionalized",
      "outputs": [
        {
          "internalType": "bool",
          "name": "",
          "type": "bool"
        }
      ],
      "stateMutability": "view",
      "type": "function"
    },
    {
      "inputs": [],
      "name": "landIdCounter",
      "outputs": [
        {
          "internalType": "uint256",
          "name": "",
          "type": "uint256"
        }
      ],
      "stateMutability": "view",
      "type": "function"
    },
    {
      "inputs": [
        {
          "internalType": "uint256",
          "name": "landId",
          "type": "uint256"
        },
        {
          "internalType": "uint256",
          "name": "amount",
          "type": "uint256"
        },
        {
          "internalType": "uint256",
          "name": "pricePerToken",
          "type": "uint256"
        }
      ],
      "name": "listTokensForSale",
      "outputs": [],
      "stateMutability": "nonpayable",
      "type": "function"
    },
    {
      "inputs": [],
      "name": "owner",
      "outputs": [
        {
          "internalType": "address",
          "name": "",
          "type": "address"
        }
      ],
      "stateMutability": "view",
      "type": "function"
    },
    {
      "inputs": [
        {
          "internalType": "uint256",
          "name": "landId",
          "type": "uint256"
        },
        {
          "components": [
            {
              "internalType": "address",
              "name": "seller",
              "type": "address"
            },
            {
              "internalType": "uint256",
              "name": "landId",
              "type": "uint256"
            },
            {
              "internalType": "uint256",
              "name": "amount",
              "type": "uint256"
            },
            {
              "internalType": "uint256",
              "name": "pricePerToken",
              "type": "uint256"
            }
          ],
          "internalType": "struct Land.SaleOrder",
          "name": "order",
          "type": "tuple"
        }
      ],
      "name": "purchaseTokens",
      "outputs": [],
      "stateMutability": "payable",
      "type": "function"
    },
    {
      "inputs": [],
      "name": "renounceOwnership",
      "outputs": [],
      "stateMutability": "nonpayable",
      "type": "function"
    },
    {
      "inputs": [
        {
          "internalType": "address",
          "name": "from",
          "type": "address"
        },
        {
          "internalType": "address",
          "name": "to",
          "type": "address"
        },
        {
          "internalType": "uint256[]",
          "name": "ids",
          "type": "uint256[]"
        },
        {
          "internalType": "uint256[]",
          "name": "values",
          "type": "uint256[]"
        },
        {
          "internalType": "bytes",
          "name": "data",
          "type": "bytes"
        }
      ],
      "name": "safeBatchTransferFrom",
      "outputs": [],
      "stateMutability": "nonpayable",
      "type": "function"
    },
    {
      "inputs": [
        {
          "internalType": "address",
          "name": "from",
          "type": "address"
        },
        {
          "internalType": "address",
          "name": "to",
          "type": "address"
        },
        {
          "internalType": "uint256",
          "name": "id",
          "type": "uint256"
        },
        {
          "internalType": "uint256",
          "name": "value",
          "type": "uint256"
        },
        {
          "internalType": "bytes",
          "name": "data",
          "type": "bytes"
        }
      ],
      "name": "safeTransferFrom",
      "outputs": [],
      "stateMutability": "nonpayable",
      "type": "function"
    },
    {
      "inputs": [
        {
          "internalType": "address",
          "name": "operator",
          "type": "address"
        },
        {
          "internalType": "bool",
          "name": "approved",
          "type": "bool"
        }
      ],
      "name": "setApprovalForAll",
      "outputs": [],
      "stateMutability": "nonpayable",
      "type": "function"
    },
    {
      "inputs": [
        {
          "internalType": "bytes4",
          "name": "interfaceId",
          "type": "bytes4"
        }
      ],
      "name": "supportsInterface",
      "outputs": [
        {
          "internalType": "bool",
          "name": "",
          "type": "bool"
        }
      ],
      "stateMutability": "view",
      "type": "function"
    },
    {
      "inputs": [
        {
          "internalType": "uint256",
          "name": "",
          "type": "uint256"
        }
      ],
      "name": "totalFractions",
      "outputs": [
        {
          "internalType": "uint256",
          "name": "",
          "type": "uint256"
        }
      ],
      "stateMutability": "view",
      "type": "function"
    },
    {
      "inputs": [
        {
          "internalType": "address",
          "name": "to",
          "type": "address"
        },
        {
          "internalType": "uint256",
          "name": "landId",
          "type": "uint256"
        },
        {
          "internalType": "uint256",
          "name": "amount",
          "type": "uint256"
        }
      ],
      "name": "transferFractionalTokens",
      "outputs": [],
      "stateMutability": "nonpayable",
      "type": "function"
    },
    {
      "inputs": [
        {
          "internalType": "address",
          "name": "newOwner",
          "type": "address"
        }
      ],
      "name": "transferOwnership",
      "outputs": [],
      "stateMutability": "nonpayable",
      "type": "function"
    },
    {
      "inputs": [
        {
          "internalType": "uint256",
          "name": "landId",
          "type": "uint256"
        },
        {
          "internalType": "uint256",
          "name": "amount",
          "type": "uint256"
        },
        {
          "internalType": "uint256",
          "name": "pricePerToken",
          "type": "uint256"
        }
      ],
      "name": "updateTokenListing",
      "outputs": [],
      "stateMutability": "nonpayable",
      "type": "function"
    },
    {
      "inputs": [
        {
          "internalType": "uint256",
          "name": "",
          "type": "uint256"
        }
      ],
      "name": "uri",
      "outputs": [
        {
          "internalType": "string",
          "name": "",
          "type": "string"
        }
      ],
      "stateMutability": "view",
      "type": "function"
    }
  ],
  "bytecode": "0x608060405234801561001057600080fd5b503360405180602001604052806000815250610031816100b960201b60201c565b50600073ffffffffffffffffffffffffffffffffffffffff168173ffffffffffffffffffffffffffffffffffffffff16036100a45760006040517f1e4fbdf700000000000000000000000000000000000000000000000000000000815260040161009b91906101d3565b60405180910390fd5b6100b3816100cc60201b60201c565b50610510565b80600290816100c8919061043e565b5050565b6000600360009054906101000a900473ffffffffffffffffffffffffffffffffffffffff16905081600360006101000a81548173ffffffffffffffffffffffffffffffffffffffff021916908373ffffffffffffffffffffffffffffffffffffffff1602179055508173ffffffffffffffffffffffffffffffffffffffff168173ffffffffffffffffffffffffffffffffffffffff167f8be0079c531659141344cd1fd0a4f28419497f9722a3daafe3b4186f6b6457e060405160405180910390a35050565b600073ffffffffffffffffffffffffffffffffffffffff82169050919050565b60006101bd82610192565b9050919050565b6101cd816101b2565b82525050565b60006020820190506101e860008301846101c4565b92915050565b600081519050919050565b7f4e487b7100000000000000000000000000000000000000000000000000000000600052604160045260246000fd5b7f4e487b7100000000000000000000000000000000000000000000000000000000600052602260045260246000fd5b6000600282049050600182168061026f57607f821691505b60208210810361028257610281610228565b5b50919050565b60008190508160005260206000209050919050565b60006020601f8301049050919050565b600082821b905092915050565b6000600883026102ea7fffffffffffffffffffffffffffffffffffffffffffffffffffffffffffffffff826102ad565b6102f486836102ad565b95508019841693508086168417925050509392505050565b6000819050919050565b6000819050919050565b600061033b6103366103318461030c565b610316565b61030c565b9050919050565b6000819050919050565b61035583610320565b61036961036182610342565b8484546102ba565b825550505050565b600090565b61037e610371565b61038981848461034c565b505050565b5b818110156103ad576103a2600082610376565b60018101905061038f565b5050565b601f8211156103f2576103c381610288565b6103cc8461029d565b810160208510156103db578190505b6103ef6103e78561029d565b83018261038e565b50505b505050565b600082821c905092915050565b6000610415600019846008026103f7565b1980831691505092915050565b600061042e8383610404565b9150826002028217905092915050565b610447826101ee565b67ffffffffffffffff8111156104605761045f6101f9565b5b61046a8254610257565b6104758282856103b1565b600060209050601f8311600181146104a85760008415610496578287015190505b6104a08582610422565b865550610508565b601f1984166104b686610288565b60005b828110156104de578489015182556001820191506020850194506020810190506104b9565b868310156104fb57848901516104f7601f891682610404565b8355505b6001600288020188555050505b505050505050565b6140648061051f6000396000f3fe6080604052600436106101295760003560e01c8063a14e768a116100ab578063c1f15bfb1161006f578063c1f15bfb14610407578063e985e9c514610430578063ee0db7eb1461046d578063f1807e5c14610496578063f242432a146104c1578063f2fde38b146104ea57610129565b8063a14e768a14610333578063a22cb4651461034f578063a379c87714610378578063afe9b7da146103a1578063b86b19de146103ca57610129565b80634e1273f4116100f25780634e1273f414610237578063715018a614610274578063766de47f1461028b5780638da5cb5b146102c85780638fdc85ce146102f357610129565b8062fdd58e1461012e57806301ffc9a71461016b5780630e89341c146101a85780632e8a0f2b146101e55780632eb2c2d61461020e575b600080fd5b34801561013a57600080fd5b5061015560048036038101906101509190612927565b610513565b6040516101629190612976565b60405180910390f35b34801561017757600080fd5b50610192600480360381019061018d91906129e9565b61056d565b60405161019f9190612a31565b60405180910390f35b3480156101b457600080fd5b506101cf60048036038101906101ca9190612a4c565b61064f565b6040516101dc9190612b09565b60405180910390f35b3480156101f157600080fd5b5061020c60048036038101906102079190612b2b565b6106e3565b005b34801561021a57600080fd5b5061023560048036038101906102309190612d7b565b6109e0565b005b34801561024357600080fd5b5061025e60048036038101906102599190612f0d565b610a88565b60405161026b9190613043565b60405180910390f35b34801561028057600080fd5b50610289610b91565b005b34801561029757600080fd5b506102b260048036038101906102ad9190612a4c565b610ba5565b6040516102bf9190612976565b60405180910390f35b3480156102d457600080fd5b506102dd610bbd565b6040516102ea9190613074565b60405180910390f35b3480156102ff57600080fd5b5061031a6004803603810190610315919061308f565b610be7565b60405161032a94939291906130bc565b60405180910390f35b61034d60048036038101906103489190613125565b610c37565b005b34801561035b57600080fd5b5061037660048036038101906103719190613191565b6110f9565b005b34801561038457600080fd5b5061039f600480360381019061039a9190612b2b565b61110f565b005b3480156103ad57600080fd5b506103c860048036038101906103c391906131d1565b6113b7565b005b3480156103d657600080fd5b506103f160048036038101906103ec9190612a4c565b61148b565b6040516103fe9190612a31565b60405180910390f35b34801561041357600080fd5b5061042e600480360381019061042991906132c5565b6114ab565b005b34801561043c57600080fd5b5061045760048036038101906104529190613350565b611573565b6040516104649190612a31565b60405180910390f35b34801561047957600080fd5b50610494600480360381019061048f9190612b2b565b611607565b005b3480156104a257600080fd5b506104ab611966565b6040516104b89190612976565b60405180910390f35b3480156104cd57600080fd5b506104e860048036038101906104e39190613390565b61196c565b005b3480156104f657600080fd5b50610511600480360381019061050c919061308f565b611a14565b005b600080600083815260200190815260200160002060008473ffffffffffffffffffffffffffffffffffffffff1673ffffffffffffffffffffffffffffffffffffffff16815260200190815260200160002054905092915050565b60007fd9b67a26000000000000000000000000000000000000000000000000000000007bffffffffffffffffffffffffffffffffffffffffffffffffffffffff1916827bffffffffffffffffffffffffffffffffffffffffffffffffffffffff1916148061063857507f0e89341c000000000000000000000000000000000000000000000000000000007bffffffffffffffffffffffffffffffffffffffffffffffffffffffff1916827bffffffffffffffffffffffffffffffffffffffffffffffffffffffff1916145b80610648575061064782611a9a565b5b9050919050565b60606002805461065e90613456565b80601f016020809104026020016040519081016040528092919081815260200182805461068a90613456565b80156106d75780601f106106ac576101008083540402835291602001916106d7565b820191906000526020600020905b8154815290600101906020018083116106ba57829003601f168201915b50505050509050919050565b6006600084815260200190815260200160002060009054906101000a900460ff16610743576040517f08c379a000000000000000000000000000000000000000000000000000000000815260040161073a906134f9565b60405180910390fd5b8161074e3385610513565b101561078f576040517f08c379a000000000000000000000000000000000000000000000000000000000815260040161078690613565565b60405180910390fd5b600081116107d2576040517f08c379a00000000000000000000000000000000000000000000000000000000081526004016107c9906135d1565b60405180910390fd5b60008211610815576040517f08c379a000000000000000000000000000000000000000000000000000000000815260040161080c9061363d565b60405180910390fd5b6000600760003373ffffffffffffffffffffffffffffffffffffffff1673ffffffffffffffffffffffffffffffffffffffff1681526020019081526020016000209050600081600201541161089f576040517f08c379a0000000000000000000000000000000000000000000000000000000008152600401610896906136cf565b60405180910390fd5b838160010154146108e5576040517f08c379a00000000000000000000000000000000000000000000000000000000081526004016108dc9061373b565b60405180910390fd5b3373ffffffffffffffffffffffffffffffffffffffff168160000160009054906101000a900473ffffffffffffffffffffffffffffffffffffffff1673ffffffffffffffffffffffffffffffffffffffff1614610977576040517f08c379a000000000000000000000000000000000000000000000000000000000815260040161096e906137cd565b60405180910390fd5b8281600201819055508181600301819055503373ffffffffffffffffffffffffffffffffffffffff16847f8098ce837a1e7f11070ca4eb3fecff815014e0245b2788d11377149251c2b55b85856040516109d29291906137ed565b60405180910390a350505050565b60006109ea611b04565b90508073ffffffffffffffffffffffffffffffffffffffff168673ffffffffffffffffffffffffffffffffffffffff1614158015610a2f5750610a2d8682611573565b155b15610a735780866040517fe237d922000000000000000000000000000000000000000000000000000000008152600401610a6a929190613816565b60405180910390fd5b610a808686868686611b0c565b505050505050565b60608151835114610ad457815183516040517f5b059991000000000000000000000000000000000000000000000000000000008152600401610acb9291906137ed565b60405180910390fd5b6000835167ffffffffffffffff811115610af157610af0612b83565b5b604051908082528060200260200182016040528015610b1f5781602001602082028036833780820191505090505b50905060005b8451811015610b8657610b5c610b448287611c0490919063ffffffff16565b610b578387611c1890919063ffffffff16565b610513565b828281518110610b6f57610b6e61383f565b5b602002602001018181525050806001019050610b25565b508091505092915050565b610b99611c2c565b610ba36000611cb3565b565b60056020528060005260406000206000915090505481565b6000600360009054906101000a900473ffffffffffffffffffffffffffffffffffffffff16905090565b60076020528060005260406000206000915090508060000160009054906101000a900473ffffffffffffffffffffffffffffffffffffffff16908060010154908060020154908060030154905084565b6006600083815260200190815260200160002060009054906101000a900460ff16610c97576040517f08c379a0000000000000000000000000000000000000000000000000000000008152600401610c8e906134f9565b60405180910390fd5b6000816060013511610cde576040517f08c379a0000000000000000000000000000000000000000000000000000000008152600401610cd5906138ba565b60405180910390fd5b600080826000016020810190610cf4919061308f565b90506000600760008373ffffffffffffffffffffffffffffffffffffffff1673ffffffffffffffffffffffffffffffffffffffff16815260200190815260200160002090506000816002015411610d80576040517f08c379a0000000000000000000000000000000000000000000000000000000008152600401610d7790613926565b60405180910390fd5b84816001015414610dc6576040517f08c379a0000000000000000000000000000000000000000000000000000000008152600401610dbd9061373b565b60405180910390fd5b836040013581600201541015610e11576040517f08c379a0000000000000000000000000000000000000000000000000000000008152600401610e0890613992565b60405180910390fd5b8360600135816003015414610e5b576040517f08c379a0000000000000000000000000000000000000000000000000000000008152600401610e52906139fe565b60405180910390fd5b8360400135610e6a8387610513565b1015610eab576040517f08c379a0000000000000000000000000000000000000000000000000000000008152600401610ea290613a6a565b60405180910390fd5b83606001358460400135610ebf9190613ab9565b925082341015610f04576040517f08c379a0000000000000000000000000000000000000000000000000000000008152600401610efb90613b47565b60405180910390fd5b610f2482338787604001356040518060200160405280600081525061196c565b8360400135816002015403610fb957600760008373ffffffffffffffffffffffffffffffffffffffff1673ffffffffffffffffffffffffffffffffffffffff168152602001908152602001600020600080820160006101000a81549073ffffffffffffffffffffffffffffffffffffffff02191690556001820160009055600282016000905560038201600090555050610fd9565b8360400135816002016000828254610fd19190613b67565b925050819055505b8173ffffffffffffffffffffffffffffffffffffffff166108fc849081150290604051600060405180830381858888f1935050505015801561101f573d6000803e3d6000fd5b508173ffffffffffffffffffffffffffffffffffffffff163373ffffffffffffffffffffffffffffffffffffffff16867f06a468bc780ea805d80491ed9f300c36122c94bcb715acc7a8606f510f6c2ecd876040013588606001356040516110889291906137ed565b60405180910390a46000833461109e9190613b67565b905060008111156110f1573373ffffffffffffffffffffffffffffffffffffffff166108fc829081150290604051600060405180830381858888f193505050501580156110ef573d6000803e3d6000fd5b505b505050505050565b61110b611104611b04565b8383611d79565b5050565b6006600084815260200190815260200160002060009054906101000a900460ff1661116f576040517f08c379a0000000000000000000000000000000000000000000000000000000008152600401611166906134f9565b60405180910390fd5b8161117a3385610513565b10156111bb576040517f08c379a00000000000000000000000000000000000000000000000000000000081526004016111b290613565565b60405180910390fd5b600081116111fe576040517f08c379a00000000000000000000000000000000000000000000000000000000081526004016111f5906135d1565b60405180910390fd5b6000600760003373ffffffffffffffffffffffffffffffffffffffff1673ffffffffffffffffffffffffffffffffffffffff1681526020019081526020016000206002015414611283576040517f08c379a000000000000000000000000000000000000000000000000000000000815260040161127a90613be7565b60405180910390fd5b60405180608001604052803373ffffffffffffffffffffffffffffffffffffffff16815260200184815260200183815260200182815250600760003373ffffffffffffffffffffffffffffffffffffffff1673ffffffffffffffffffffffffffffffffffffffff16815260200190815260200160002060008201518160000160006101000a81548173ffffffffffffffffffffffffffffffffffffffff021916908373ffffffffffffffffffffffffffffffffffffffff1602179055506020820151816001015560408201518160020155606082015181600301559050503373ffffffffffffffffffffffffffffffffffffffff16837f8098ce837a1e7f11070ca4eb3fecff815014e0245b2788d11377149251c2b55b84846040516113aa9291906137ed565b60405180910390a3505050565b806113c23384610513565b1015611403576040517f08c379a00000000000000000000000000000000000000000000000000000000081526004016113fa90613c53565b60405180910390fd5b61141f338484846040518060200160405280600081525061196c565b8273ffffffffffffffffffffffffffffffffffffffff163373ffffffffffffffffffffffffffffffffffffffff167fa26bbe54fa0532e401916ac988b0e6d0a482b1e3de4a53dd1718aba39eeae7ad848460405161147e9291906137ed565b60405180910390a3505050565b60066020528060005260406000206000915054906101000a900460ff1681565b6114b3611c2c565b600460008154809291906114c690613c73565b9190505550600060045490506114ed33828560405180602001604052806000815250611ee9565b82600560008381526020019081526020016000208190555060016006600083815260200190815260200160002060006101000a81548160ff021916908315150217905550807fb2732409110a94bc6adffa6e94cb00089777c21ebda678f673a585feca5da6d785858560405161156593929190613cbb565b60405180910390a250505050565b6000600160008473ffffffffffffffffffffffffffffffffffffffff1673ffffffffffffffffffffffffffffffffffffffff16815260200190815260200160002060008373ffffffffffffffffffffffffffffffffffffffff1673ffffffffffffffffffffffffffffffffffffffff16815260200190815260200160002060009054906101000a900460ff16905092915050565b6006600084815260200190815260200160002060009054906101000a900460ff16611667576040517f08c379a000000000000000000000000000000000000000000000000000000000815260040161165e906134f9565b60405180910390fd5b816116723385610513565b10156116b3576040517f08c379a00000000000000000000000000000000000000000000000000000000081526004016116aa90613d72565b60405180910390fd5b6000600760003373ffffffffffffffffffffffffffffffffffffffff1673ffffffffffffffffffffffffffffffffffffffff1681526020019081526020016000206040518060800160405290816000820160009054906101000a900473ffffffffffffffffffffffffffffffffffffffff1673ffffffffffffffffffffffffffffffffffffffff1673ffffffffffffffffffffffffffffffffffffffff1681526020016001820154815260200160028201548152602001600382015481525050905060008160400151116117bc576040517f08c379a00000000000000000000000000000000000000000000000000000000081526004016117b390613dde565b60405180910390fd5b83816020015114611802576040517f08c379a00000000000000000000000000000000000000000000000000000000081526004016117f99061373b565b60405180910390fd5b82816040015114611848576040517f08c379a000000000000000000000000000000000000000000000000000000000815260040161183f90613e4a565b60405180910390fd5b8181606001511461188e576040517f08c379a0000000000000000000000000000000000000000000000000000000008152600401611885906139fe565b60405180910390fd5b600760003373ffffffffffffffffffffffffffffffffffffffff1673ffffffffffffffffffffffffffffffffffffffff168152602001908152602001600020600080820160006101000a81549073ffffffffffffffffffffffffffffffffffffffff021916905560018201600090556002820160009055600382016000905550503373ffffffffffffffffffffffffffffffffffffffff16847f6b07c5730a95c41d70145025b4d89a30daef58b875d933b7be46e254a34aa0a585856040516119589291906137ed565b60405180910390a350505050565b60045481565b6000611976611b04565b90508073ffffffffffffffffffffffffffffffffffffffff168673ffffffffffffffffffffffffffffffffffffffff16141580156119bb57506119b98682611573565b155b156119ff5780866040517fe237d9220000000000000000000000000000000000000000000000000000000081526004016119f6929190613816565b60405180910390fd5b611a0c8686868686611f82565b505050505050565b611a1c611c2c565b600073ffffffffffffffffffffffffffffffffffffffff168173ffffffffffffffffffffffffffffffffffffffff1603611a8e5760006040517f1e4fbdf7000000000000000000000000000000000000000000000000000000008152600401611a859190613074565b60405180910390fd5b611a9781611cb3565b50565b60007f01ffc9a7000000000000000000000000000000000000000000000000000000007bffffffffffffffffffffffffffffffffffffffffffffffffffffffff1916827bffffffffffffffffffffffffffffffffffffffffffffffffffffffff1916149050919050565b600033905090565b600073ffffffffffffffffffffffffffffffffffffffff168473ffffffffffffffffffffffffffffffffffffffff1603611b7e5760006040517f57f447ce000000000000000000000000000000000000000000000000000000008152600401611b759190613074565b60405180910390fd5b600073ffffffffffffffffffffffffffffffffffffffff168573ffffffffffffffffffffffffffffffffffffffff1603611bf05760006040517f01a83514000000000000000000000000000000000000000000000000000000008152600401611be79190613074565b60405180910390fd5b611bfd858585858561208d565b5050505050565b600060208202602084010151905092915050565b600060208202602084010151905092915050565b611c34611b04565b73ffffffffffffffffffffffffffffffffffffffff16611c52610bbd565b73ffffffffffffffffffffffffffffffffffffffff1614611cb157611c75611b04565b6040517f118cdaa7000000000000000000000000000000000000000000000000000000008152600401611ca89190613074565b60405180910390fd5b565b6000600360009054906101000a900473ffffffffffffffffffffffffffffffffffffffff16905081600360006101000a81548173ffffffffffffffffffffffffffffffffffffffff021916908373ffffffffffffffffffffffffffffffffffffffff1602179055508173ffffffffffffffffffffffffffffffffffffffff168173ffffffffffffffffffffffffffffffffffffffff167f8be0079c531659141344cd1fd0a4f28419497f9722a3daafe3b4186f6b6457e060405160405180910390a35050565b600073ffffffffffffffffffffffffffffffffffffffff168273ffffffffffffffffffffffffffffffffffffffff1603611deb5760006040517fced3e100000000000000000000000000000000000000000000000000000000008152600401611de29190613074565b60405180910390fd5b80600160008573ffffffffffffffffffffffffffffffffffffffff1673ffffffffffffffffffffffffffffffffffffffff16815260200190815260200160002060008473ffffffffffffffffffffffffffffffffffffffff1673ffffffffffffffffffffffffffffffffffffffff16815260200190815260200160002060006101000a81548160ff0219169083151502179055508173ffffffffffffffffffffffffffffffffffffffff168373ffffffffffffffffffffffffffffffffffffffff167f17307eab39ab6107e8899845ad3d59bd9653f200f220920489ca2b5937696c3183604051611edc9190612a31565b60405180910390a3505050565b600073ffffffffffffffffffffffffffffffffffffffff168473ffffffffffffffffffffffffffffffffffffffff1603611f5b5760006040517f57f447ce000000000000000000000000000000000000000000000000000000008152600401611f529190613074565b60405180910390fd5b600080611f68858561213f565b91509150611f7a60008784848761208d565b505050505050565b600073ffffffffffffffffffffffffffffffffffffffff168473ffffffffffffffffffffffffffffffffffffffff1603611ff45760006040517f57f447ce000000000000000000000000000000000000000000000000000000008152600401611feb9190613074565b60405180910390fd5b600073ffffffffffffffffffffffffffffffffffffffff168573ffffffffffffffffffffffffffffffffffffffff16036120665760006040517f01a8351400000000000000000000000000000000000000000000000000000000815260040161205d9190613074565b60405180910390fd5b600080612073858561213f565b91509150612084878784848761208d565b50505050505050565b6120998585858561216f565b600073ffffffffffffffffffffffffffffffffffffffff168473ffffffffffffffffffffffffffffffffffffffff16146121385760006120d7611b04565b905060018451036121275760006120f8600086611c1890919063ffffffff16565b90506000612110600086611c1890919063ffffffff16565b9050612120838989858589612517565b5050612136565b6121358187878787876126cb565b5b505b5050505050565b60608060405191506001825283602083015260408201905060018152826020820152604081016040529250929050565b80518251146121b957815181516040517f5b0599910000000000000000000000000000000000000000000000000000000081526004016121b09291906137ed565b60405180910390fd5b60006121c3611b04565b905060005b83518110156123d25760006121e68286611c1890919063ffffffff16565b905060006121fd8386611c1890919063ffffffff16565b9050600073ffffffffffffffffffffffffffffffffffffffff168873ffffffffffffffffffffffffffffffffffffffff161461232a57600080600084815260200190815260200160002060008a73ffffffffffffffffffffffffffffffffffffffff1673ffffffffffffffffffffffffffffffffffffffff168152602001908152602001600020549050818110156122d257888183856040517f03dee4c50000000000000000000000000000000000000000000000000000000081526004016122c994939291906130bc565b60405180910390fd5b81810360008085815260200190815260200160002060008b73ffffffffffffffffffffffffffffffffffffffff1673ffffffffffffffffffffffffffffffffffffffff16815260200190815260200160002081905550505b600073ffffffffffffffffffffffffffffffffffffffff168773ffffffffffffffffffffffffffffffffffffffff16146123c5578060008084815260200190815260200160002060008973ffffffffffffffffffffffffffffffffffffffff1673ffffffffffffffffffffffffffffffffffffffff16815260200190815260200160002060008282546123bd9190613e6a565b925050819055505b50508060010190506121c8565b5060018351036124915760006123f2600085611c1890919063ffffffff16565b9050600061240a600085611c1890919063ffffffff16565b90508573ffffffffffffffffffffffffffffffffffffffff168773ffffffffffffffffffffffffffffffffffffffff168473ffffffffffffffffffffffffffffffffffffffff167fc3d58168c5ae7397731d063d5bbf3d657854427343f4c083240f7aacaa2d0f6285856040516124829291906137ed565b60405180910390a45050612510565b8373ffffffffffffffffffffffffffffffffffffffff168573ffffffffffffffffffffffffffffffffffffffff168273ffffffffffffffffffffffffffffffffffffffff167f4a39dc06d4c0dbc64b70af90fd698a233a518aa5d07e595d983b8c0526c8f7fb8686604051612507929190613e9e565b60405180910390a45b5050505050565b60008473ffffffffffffffffffffffffffffffffffffffff163b11156126c3578373ffffffffffffffffffffffffffffffffffffffff1663f23a6e6187878686866040518663ffffffff1660e01b8152600401612578959493929190613f2a565b6020604051808303816000875af19250505080156125b457506040513d601f19601f820116820180604052508101906125b19190613f99565b60015b612638573d80600081146125e4576040519150601f19603f3d011682016040523d82523d6000602084013e6125e9565b606091505b50600081510361263057846040517f57f447ce0000000000000000000000000000000000000000000000000000000081526004016126279190613074565b60405180910390fd5b805181602001fd5b63f23a6e6160e01b7bffffffffffffffffffffffffffffffffffffffffffffffffffffffff1916817bffffffffffffffffffffffffffffffffffffffffffffffffffffffff1916146126c157846040517f57f447ce0000000000000000000000000000000000000000000000000000000081526004016126b89190613074565b60405180910390fd5b505b505050505050565b60008473ffffffffffffffffffffffffffffffffffffffff163b1115612877578373ffffffffffffffffffffffffffffffffffffffff1663bc197c8187878686866040518663ffffffff1660e01b815260040161272c959493929190613fc6565b6020604051808303816000875af192505050801561276857506040513d601f19601f820116820180604052508101906127659190613f99565b60015b6127ec573d8060008114612798576040519150601f19603f3d011682016040523d82523d6000602084013e61279d565b606091505b5060008151036127e457846040517f57f447ce0000000000000000000000000000000000000000000000000000000081526004016127db9190613074565b60405180910390fd5b805181602001fd5b63bc197c8160e01b7bffffffffffffffffffffffffffffffffffffffffffffffffffffffff1916817bffffffffffffffffffffffffffffffffffffffffffffffffffffffff19161461287557846040517f57f447ce00000000000000000000000000000000000000000000000000000000815260040161286c9190613074565b60405180910390fd5b505b505050505050565b6000604051905090565b600080fd5b600080fd5b600073ffffffffffffffffffffffffffffffffffffffff82169050919050565b60006128be82612893565b9050919050565b6128ce816128b3565b81146128d957600080fd5b50565b6000813590506128eb816128c5565b92915050565b6000819050919050565b612904816128f1565b811461290f57600080fd5b50565b600081359050612921816128fb565b92915050565b6000806040838503121561293e5761293d612889565b5b600061294c858286016128dc565b925050602061295d85828601612912565b9150509250929050565b612970816128f1565b82525050565b600060208201905061298b6000830184612967565b92915050565b60007fffffffff0000000000000000000000000000000000000000000000000000000082169050919050565b6129c681612991565b81146129d157600080fd5b50565b6000813590506129e3816129bd565b92915050565b6000602082840312156129ff576129fe612889565b5b6000612a0d848285016129d4565b91505092915050565b60008115159050919050565b612a2b81612a16565b82525050565b6000602082019050612a466000830184612a22565b92915050565b600060208284031215612a6257612a61612889565b5b6000612a7084828501612912565b91505092915050565b600081519050919050565b600082825260208201905092915050565b60005b83811015612ab3578082015181840152602081019050612a98565b60008484015250505050565b6000601f19601f8301169050919050565b6000612adb82612a79565b612ae58185612a84565b9350612af5818560208601612a95565b612afe81612abf565b840191505092915050565b60006020820190508181036000830152612b238184612ad0565b905092915050565b600080600060608486031215612b4457612b43612889565b5b6000612b5286828701612912565b9350506020612b6386828701612912565b9250506040612b7486828701612912565b9150509250925092565b600080fd5b7f4e487b7100000000000000000000000000000000000000000000000000000000600052604160045260246000fd5b612bbb82612abf565b810181811067ffffffffffffffff82111715612bda57612bd9612b83565b5b80604052505050565b6000612bed61287f565b9050612bf98282612bb2565b919050565b600067ffffffffffffffff821115612c1957612c18612b83565b5b602082029050602081019050919050565b600080fd5b6000612c42612c3d84612bfe565b612be3565b90508083825260208201905060208402830185811115612c6557612c64612c2a565b5b835b81811015612c8e5780612c7a8882612912565b845260208401935050602081019050612c67565b5050509392505050565b600082601f830112612cad57612cac612b7e565b5b8135612cbd848260208601612c2f565b91505092915050565b600080fd5b600067ffffffffffffffff821115612ce657612ce5612b83565b5b612cef82612abf565b9050602081019050919050565b82818337600083830152505050565b6000612d1e612d1984612ccb565b612be3565b905082815260208101848484011115612d3a57612d39612cc6565b5b612d45848285612cfc565b509392505050565b600082601f830112612d6257612d61612b7e565b5b8135612d72848260208601612d0b565b91505092915050565b600080600080600060a08688031215612d9757612d96612889565b5b6000612da5888289016128dc565b9550506020612db6888289016128dc565b945050604086013567ffffffffffffffff811115612dd757612dd661288e565b5b612de388828901612c98565b935050606086013567ffffffffffffffff811115612e0457612e0361288e565b5b612e1088828901612c98565b925050608086013567ffffffffffffffff811115612e3157612e3061288e565b5b612e3d88828901612d4d565b9150509295509295909350565b600067ffffffffffffffff821115612e6557612e64612b83565b5b602082029050602081019050919050565b6000612e89612e8484612e4a565b612be3565b90508083825260208201905060208402830185811115612eac57612eab612c2a565b5b835b81811015612ed55780612ec188826128dc565b845260208401935050602081019050612eae565b5050509392505050565b600082601f830112612ef457612ef3612b7e565b5b8135612f04848260208601612e76565b91505092915050565b60008060408385031215612f2457612f23612889565b5b600083013567ffffffffffffffff811115612f4257612f4161288e565b5b612f4e85828601612edf565b925050602083013567ffffffffffffffff811115612f6f57612f6e61288e565b5b612f7b85828601612c98565b9150509250929050565b600081519050919050565b600082825260208201905092915050565b6000819050602082019050919050565b612fba816128f1565b82525050565b6000612fcc8383612fb1565b60208301905092915050565b6000602082019050919050565b6000612ff082612f85565b612ffa8185612f90565b935061300583612fa1565b8060005b8381101561303657815161301d8882612fc0565b975061302883612fd8565b925050600181019050613009565b5085935050505092915050565b6000602082019050818103600083015261305d8184612fe5565b905092915050565b61306e816128b3565b82525050565b60006020820190506130896000830184613065565b92915050565b6000602082840312156130a5576130a4612889565b5b60006130b3848285016128dc565b91505092915050565b60006080820190506130d16000830187613065565b6130de6020830186612967565b6130eb6040830185612967565b6130f86060830184612967565b95945050505050565b600080fd5b60006080828403121561311c5761311b613101565b5b81905092915050565b60008060a0838503121561313c5761313b612889565b5b600061314a85828601612912565b925050602061315b85828601613106565b9150509250929050565b61316e81612a16565b811461317957600080fd5b50565b60008135905061318b81613165565b92915050565b600080604083850312156131a8576131a7612889565b5b60006131b6858286016128dc565b92505060206131c78582860161317c565b9150509250929050565b6000806000606084860312156131ea576131e9612889565b5b60006131f8868287016128dc565b935050602061320986828701612912565b925050604061321a86828701612912565b9150509250925092565b600067ffffffffffffffff82111561323f5761323e612b83565b5b61324882612abf565b9050602081019050919050565b600061326861326384613224565b612be3565b90508281526020810184848401111561328457613283612cc6565b5b61328f848285612cfc565b509392505050565b600082601f8301126132ac576132ab612b7e565b5b81356132bc848260208601613255565b91505092915050565b6000806000606084860312156132de576132dd612889565b5b600084013567ffffffffffffffff8111156132fc576132fb61288e565b5b61330886828701613297565b935050602061331986828701612912565b925050604084013567ffffffffffffffff81111561333a5761333961288e565b5b61334686828701613297565b9150509250925092565b6000806040838503121561336757613366612889565b5b6000613375858286016128dc565b9250506020613386858286016128dc565b9150509250929050565b600080600080600060a086880312156133ac576133ab612889565b5b60006133ba888289016128dc565b95505060206133cb888289016128dc565b94505060406133dc88828901612912565b93505060606133ed88828901612912565b925050608086013567ffffffffffffffff81111561340e5761340d61288e565b5b61341a88828901612d4d565b9150509295509295909350565b7f4e487b7100000000000000000000000000000000000000000000000000000000600052602260045260246000fd5b6000600282049050600182168061346e57607f821691505b60208210810361348157613480613427565b5b50919050565b7f4c616e64206d757374206265206672616374696f6e616c697a6564206669727360008201527f7400000000000000000000000000000000000000000000000000000000000000602082015250565b60006134e3602183612a84565b91506134ee82613487565b604082019050919050565b60006020820190508181036000830152613512816134d6565b9050919050565b7f496e73756666696369656e7420746f6b656e2062616c616e6365000000000000600082015250565b600061354f601a83612a84565b915061355a82613519565b602082019050919050565b6000602082019050818103600083015261357e81613542565b9050919050565b7f5072696365206d7573742062652067726561746572207468616e203000000000600082015250565b60006135bb601c83612a84565b91506135c682613585565b602082019050919050565b600060208201905081810360008301526135ea816135ae565b9050919050565b7f416d6f756e74206d7573742062652067726561746572207468616e2030000000600082015250565b6000613627601d83612a84565b9150613632826135f1565b602082019050919050565b600060208201905081810360008301526136568161361a565b9050919050565b7f446f6573206e6f74206861766520616e20616374697665206c697374696e672e60008201527f204c69737420546f6b656e20666f722073616c652e0000000000000000000000602082015250565b60006136b9603583612a84565b91506136c48261365d565b604082019050919050565b600060208201905081810360008301526136e8816136ac565b9050919050565b7f4c616e6420494420646f65736e2774206d61746368206c697374696e67000000600082015250565b6000613725601d83612a84565b9150613730826136ef565b602082019050919050565b6000602082019050818103600083015261375481613718565b9050919050565b7f4f6e6c79207468652073656c6c65722063616e2075706461746520746865206c60008201527f697374696e670000000000000000000000000000000000000000000000000000602082015250565b60006137b7602683612a84565b91506137c28261375b565b604082019050919050565b600060208201905081810360008301526137e6816137aa565b9050919050565b60006040820190506138026000830185612967565b61380f6020830184612967565b9392505050565b600060408201905061382b6000830185613065565b6138386020830184613065565b9392505050565b7f4e487b7100000000000000000000000000000000000000000000000000000000600052603260045260246000fd5b7f496e76616c696420707269636500000000000000000000000000000000000000600082015250565b60006138a4600d83612a84565b91506138af8261386e565b602082019050919050565b600060208201905081810360008301526138d381613897565b9050919050565b7f53656c6c657220686173206e6f20616374697665206c697374696e6700000000600082015250565b6000613910601c83612a84565b915061391b826138da565b602082019050919050565b6000602082019050818103600083015261393f81613903565b9050919050565b7f4f7264657220616d6f756e742065786365656473206c697374696e6700000000600082015250565b600061397c601c83612a84565b915061398782613946565b602082019050919050565b600060208201905081810360008301526139ab8161396f565b9050919050565b7f507269636520646f65736e2774206d61746368206c697374696e670000000000600082015250565b60006139e8601b83612a84565b91506139f3826139b2565b602082019050919050565b60006020820190508181036000830152613a17816139db565b9050919050565b7f53656c6c65722068617320696e73756666696369656e742062616c616e636500600082015250565b6000613a54601f83612a84565b9150613a5f82613a1e565b602082019050919050565b60006020820190508181036000830152613a8381613a47565b9050919050565b7f4e487b7100000000000000000000000000000000000000000000000000000000600052601160045260246000fd5b6000613ac4826128f1565b9150613acf836128f1565b9250828202613add816128f1565b91508282048414831517613af457613af3613a8a565b5b5092915050565b7f496e73756666696369656e74207061796d656e74000000000000000000000000600082015250565b6000613b31601483612a84565b9150613b3c82613afb565b602082019050919050565b60006020820190508181036000830152613b6081613b24565b9050919050565b6000613b72826128f1565b9150613b7d836128f1565b9250828203905081811115613b9557613b94613a8a565b5b92915050565b7f416c72656164792068617320616e20616374697665206c697374696e67000000600082015250565b6000613bd1601d83612a84565b9150613bdc82613b9b565b602082019050919050565b60006020820190508181036000830152613c0081613bc4565b9050919050565b7f496e73756666696369656e742062616c616e6365000000000000000000000000600082015250565b6000613c3d601483612a84565b9150613c4882613c07565b602082019050919050565b60006020820190508181036000830152613c6c81613c30565b9050919050565b6000613c7e826128f1565b91507fffffffffffffffffffffffffffffffffffffffffffffffffffffffffffffffff8203613cb057613caf613a8a565b5b600182019050919050565b60006060820190508181036000830152613cd58186612ad0565b9050613ce46020830185612967565b8181036040830152613cf68184612ad0565b9050949350505050565b7f4d757374207374696c6c206f776e2074686520746f6b656e7320746f2063616e60008201527f63656c206c697374696e67000000000000000000000000000000000000000000602082015250565b6000613d5c602b83612a84565b9150613d6782613d00565b604082019050919050565b60006020820190508181036000830152613d8b81613d4f565b9050919050565b7f4e6f20616374697665206c697374696e6720666f756e64000000000000000000600082015250565b6000613dc8601783612a84565b9150613dd382613d92565b602082019050919050565b60006020820190508181036000830152613df781613dbb565b9050919050565b7f416d6f756e7420646f65736e2774206d61746368206c697374696e6700000000600082015250565b6000613e34601c83612a84565b9150613e3f82613dfe565b602082019050919050565b60006020820190508181036000830152613e6381613e27565b9050919050565b6000613e75826128f1565b9150613e80836128f1565b9250828201905080821115613e9857613e97613a8a565b5b92915050565b60006040820190508181036000830152613eb88185612fe5565b90508181036020830152613ecc8184612fe5565b90509392505050565b600081519050919050565b600082825260208201905092915050565b6000613efc82613ed5565b613f068185613ee0565b9350613f16818560208601612a95565b613f1f81612abf565b840191505092915050565b600060a082019050613f3f6000830188613065565b613f4c6020830187613065565b613f596040830186612967565b613f666060830185612967565b8181036080830152613f788184613ef1565b90509695505050505050565b600081519050613f93816129bd565b92915050565b600060208284031215613faf57613fae612889565b5b6000613fbd84828501613f84565b91505092915050565b600060a082019050613fdb6000830188613065565b613fe86020830187613065565b8181036040830152613ffa8186612fe5565b9050818103606083015261400e8185612fe5565b905081810360808301526140228184613ef1565b9050969550505050505056fea26469706673582212201523a4c129f2f00eaf1e325b4342d1de44e9062646ee0d5973c236a7d263825e64736f6c634300081c0033",
  "linkReferences": {},
  "deployedLinkReferences": {}
}