{
  "_format": "hh-sol-artifact-1",
  "contractName": "Land",
  "sourceName": "contracts/Land.sol",
  "abi": [
    {
      "inputs": [],
      "stateMutability": "nonpayable",
      "type": "constructor"
    },
    {
      "inputs": [
        {
          "internalType": "address",
          "name": "sender",
          "type": "address"
        },
        {
          "internalType": "uint256",
          "name": "balance",
          "type": "uint256"
        },
        {
          "internalType": "uint256",
          "name": "needed",
          "type": "uint256"
        },
        {
          "internalType": "uint256",
          "name": "tokenId",
          "type": "uint256"
        }
      ],
      "name": "ERC1155InsufficientBalance",
      "type": "error"
    },
    {
      "inputs": [
        {
          "internalType": "address",
          "name": "approver",
          "type": "address"
        }
      ],
      "name": "ERC1155InvalidApprover",
      "type": "error"
    },
    {
      "inputs": [
        {
          "internalType": "uint256",
          "name": "idsLength",
          "type": "uint256"
        },
        {
          "internalType": "uint256",
          "name": "valuesLength",
          "type": "uint256"
        }
      ],
      "name": "ERC1155InvalidArrayLength",
      "type": "error"
    },
    {
      "inputs": [
        {
          "internalType": "address",
          "name": "operator",
          "type": "address"
        }
      ],
      "name": "ERC1155InvalidOperator",
      "type": "error"
    },
    {
      "inputs": [
        {
          "internalType": "address",
          "name": "receiver",
          "type": "address"
        }
      ],
      "name": "ERC1155InvalidReceiver",
      "type": "error"
    },
    {
      "inputs": [
        {
          "internalType": "address",
          "name": "sender",
          "type": "address"
        }
      ],
      "name": "ERC1155InvalidSender",
      "type": "error"
    },
    {
      "inputs": [
        {
          "internalType": "address",
          "name": "operator",
          "type": "address"
        },
        {
          "internalType": "address",
          "name": "owner",
          "type": "address"
        }
      ],
      "name": "ERC1155MissingApprovalForAll",
      "type": "error"
    },
    {
      "inputs": [
        {
          "internalType": "address",
          "name": "owner",
          "type": "address"
        }
      ],
      "name": "OwnableInvalidOwner",
      "type": "error"
    },
    {
      "inputs": [
        {
          "internalType": "address",
          "name": "account",
          "type": "address"
        }
      ],
      "name": "OwnableUnauthorizedAccount",
      "type": "error"
    },
    {
      "anonymous": false,
      "inputs": [
        {
          "indexed": true,
          "internalType": "address",
          "name": "account",
          "type": "address"
        },
        {
          "indexed": true,
          "internalType": "address",
          "name": "operator",
          "type": "address"
        },
        {
          "indexed": false,
          "internalType": "bool",
          "name": "approved",
          "type": "bool"
        }
      ],
      "name": "ApprovalForAll",
      "type": "event"
    },
    {
      "anonymous": false,
      "inputs": [
        {
          "indexed": true,
          "internalType": "uint256",
          "name": "landId",
          "type": "uint256"
        },
        {
          "indexed": false,
          "internalType": "uint256",
          "name": "numberOfFractions",
          "type": "uint256"
        },
        {
          "indexed": false,
          "internalType": "string",
          "name": "metadataURI",
          "type": "string"
        }
      ],
      "name": "LandFractionalized",
      "type": "event"
    },
    {
      "anonymous": false,
      "inputs": [
        {
          "indexed": true,
          "internalType": "address",
          "name": "previousOwner",
          "type": "address"
        },
        {
          "indexed": true,
          "internalType": "address",
          "name": "newOwner",
          "type": "address"
        }
      ],
      "name": "OwnershipTransferred",
      "type": "event"
    },
    {
      "anonymous": false,
      "inputs": [
        {
          "indexed": true,
          "internalType": "uint256",
          "name": "landId",
          "type": "uint256"
        },
        {
          "indexed": true,
          "internalType": "address",
          "name": "seller",
          "type": "address"
        },
        {
          "indexed": false,
          "internalType": "uint256",
          "name": "amount",
          "type": "uint256"
        },
        {
          "indexed": false,
          "internalType": "uint256",
          "name": "pricePerToken",
          "type": "uint256"
        }
      ],
      "name": "TokensListedForSale",
      "type": "event"
    },
    {
      "anonymous": false,
      "inputs": [
        {
          "indexed": true,
          "internalType": "uint256",
          "name": "landId",
          "type": "uint256"
        },
        {
          "indexed": true,
          "internalType": "address",
          "name": "seller",
          "type": "address"
        },
        {
          "indexed": false,
          "internalType": "uint256",
          "name": "amount",
          "type": "uint256"
        },
        {
          "indexed": false,
          "internalType": "uint256",
          "name": "pricePerToken",
          "type": "uint256"
        }
      ],
      "name": "TokensListingCancelled",
      "type": "event"
    },
    {
      "anonymous": false,
      "inputs": [
        {
          "indexed": true,
          "internalType": "uint256",
          "name": "landId",
          "type": "uint256"
        },
        {
          "indexed": true,
          "internalType": "address",
          "name": "buyer",
          "type": "address"
        },
        {
          "indexed": true,
          "internalType": "address",
          "name": "seller",
          "type": "address"
        },
        {
          "indexed": false,
          "internalType": "uint256",
          "name": "amount",
          "type": "uint256"
        },
        {
          "indexed": false,
          "internalType": "uint256",
          "name": "pricePerToken",
          "type": "uint256"
        }
      ],
      "name": "TokensPurchased",
      "type": "event"
    },
    {
      "anonymous": false,
      "inputs": [
        {
          "indexed": true,
          "internalType": "address",
          "name": "operator",
          "type": "address"
        },
        {
          "indexed": true,
          "internalType": "address",
          "name": "from",
          "type": "address"
        },
        {
          "indexed": true,
          "internalType": "address",
          "name": "to",
          "type": "address"
        },
        {
          "indexed": false,
          "internalType": "uint256[]",
          "name": "ids",
          "type": "uint256[]"
        },
        {
          "indexed": false,
          "internalType": "uint256[]",
          "name": "values",
          "type": "uint256[]"
        }
      ],
      "name": "TransferBatch",
      "type": "event"
    },
    {
      "anonymous": false,
      "inputs": [
        {
          "indexed": true,
          "internalType": "address",
          "name": "from",
          "type": "address"
        },
        {
          "indexed": true,
          "internalType": "address",
          "name": "to",
          "type": "address"
        },
        {
          "indexed": false,
          "internalType": "uint256",
          "name": "landId",
          "type": "uint256"
        },
        {
          "indexed": false,
          "internalType": "uint256",
          "name": "amount",
          "type": "uint256"
        }
      ],
      "name": "TransferFractionalTokens",
      "type": "event"
    },
    {
      "anonymous": false,
      "inputs": [
        {
          "indexed": true,
          "internalType": "address",
          "name": "operator",
          "type": "address"
        },
        {
          "indexed": true,
          "internalType": "address",
          "name": "from",
          "type": "address"
        },
        {
          "indexed": true,
          "internalType": "address",
          "name": "to",
          "type": "address"
        },
        {
          "indexed": false,
          "internalType": "uint256",
          "name": "id",
          "type": "uint256"
        },
        {
          "indexed": false,
          "internalType": "uint256",
          "name": "value",
          "type": "uint256"
        }
      ],
      "name": "TransferSingle",
      "type": "event"
    },
    {
      "anonymous": false,
      "inputs": [
        {
          "indexed": false,
          "internalType": "string",
          "name": "value",
          "type": "string"
        },
        {
          "indexed": true,
          "internalType": "uint256",
          "name": "id",
          "type": "uint256"
        }
      ],
      "name": "URI",
      "type": "event"
    },
    {
      "inputs": [
        {
          "internalType": "address",
          "name": "",
          "type": "address"
        }
      ],
      "name": "activeSaleListings",
      "outputs": [
        {
          "internalType": "address",
          "name": "seller",
          "type": "address"
        },
        {
          "internalType": "uint256",
          "name": "landId",
          "type": "uint256"
        },
        {
          "internalType": "uint256",
          "name": "amount",
          "type": "uint256"
        },
        {
          "internalType": "uint256",
          "name": "pricePerToken",
          "type": "uint256"
        }
      ],
      "stateMutability": "view",
      "type": "function"
    },
    {
      "inputs": [
        {
          "internalType": "address",
          "name": "account",
          "type": "address"
        },
        {
          "internalType": "uint256",
          "name": "id",
          "type": "uint256"
        }
      ],
      "name": "balanceOf",
      "outputs": [
        {
          "internalType": "uint256",
          "name": "",
          "type": "uint256"
        }
      ],
      "stateMutability": "view",
      "type": "function"
    },
    {
      "inputs": [
        {
          "internalType": "address[]",
          "name": "accounts",
          "type": "address[]"
        },
        {
          "internalType": "uint256[]",
          "name": "ids",
          "type": "uint256[]"
        }
      ],
      "name": "balanceOfBatch",
      "outputs": [
        {
          "internalType": "uint256[]",
          "name": "",
          "type": "uint256[]"
        }
      ],
      "stateMutability": "view",
      "type": "function"
    },
    {
      "inputs": [
        {
          "internalType": "uint256",
          "name": "landId",
          "type": "uint256"
        },
        {
          "internalType": "uint256",
          "name": "amount",
          "type": "uint256"
        },
        {
          "internalType": "uint256",
          "name": "pricePerToken",
          "type": "uint256"
        }
      ],
      "name": "cancelTokenListing",
      "outputs": [],
      "stateMutability": "nonpayable",
      "type": "function"
    },
    {
      "inputs": [
        {
          "internalType": "string",
          "name": "metadataURI",
          "type": "string"
        },
        {
          "internalType": "uint256",
          "name": "numberOfFractions",
          "type": "uint256"
        }
      ],
      "name": "fractionalizeLand",
      "outputs": [],
      "stateMutability": "nonpayable",
      "type": "function"
    },
    {
      "inputs": [
        {
          "internalType": "address",
          "name": "account",
          "type": "address"
        },
        {
          "internalType": "address",
          "name": "operator",
          "type": "address"
        }
      ],
      "name": "isApprovedForAll",
      "outputs": [
        {
          "internalType": "bool",
          "name": "",
          "type": "bool"
        }
      ],
      "stateMutability": "view",
      "type": "function"
    },
    {
      "inputs": [
        {
          "internalType": "uint256",
          "name": "",
          "type": "uint256"
        }
      ],
      "name": "isFractionalized",
      "outputs": [
        {
          "internalType": "bool",
          "name": "",
          "type": "bool"
        }
      ],
      "stateMutability": "view",
      "type": "function"
    },
    {
      "inputs": [],
      "name": "landIdCounter",
      "outputs": [
        {
          "internalType": "uint256",
          "name": "",
          "type": "uint256"
        }
      ],
      "stateMutability": "view",
      "type": "function"
    },
    {
      "inputs": [
        {
          "internalType": "uint256",
          "name": "landId",
          "type": "uint256"
        },
        {
          "internalType": "uint256",
          "name": "amount",
          "type": "uint256"
        },
        {
          "internalType": "uint256",
          "name": "pricePerToken",
          "type": "uint256"
        }
      ],
      "name": "listTokensForSale",
      "outputs": [],
      "stateMutability": "nonpayable",
      "type": "function"
    },
    {
      "inputs": [],
      "name": "owner",
      "outputs": [
        {
          "internalType": "address",
          "name": "",
          "type": "address"
        }
      ],
      "stateMutability": "view",
      "type": "function"
    },
    {
      "inputs": [
        {
          "internalType": "uint256",
          "name": "landId",
          "type": "uint256"
        },
        {
          "components": [
            {
              "internalType": "address",
              "name": "seller",
              "type": "address"
            },
            {
              "internalType": "uint256",
              "name": "landId",
              "type": "uint256"
            },
            {
              "internalType": "uint256",
              "name": "amount",
              "type": "uint256"
            },
            {
              "internalType": "uint256",
              "name": "pricePerToken",
              "type": "uint256"
            }
          ],
          "internalType": "struct Land.SaleOrder[]",
          "name": "orders",
          "type": "tuple[]"
        }
      ],
      "name": "purchaseTokens",
      "outputs": [],
      "stateMutability": "payable",
      "type": "function"
    },
    {
      "inputs": [],
      "name": "renounceOwnership",
      "outputs": [],
      "stateMutability": "nonpayable",
      "type": "function"
    },
    {
      "inputs": [
        {
          "internalType": "address",
          "name": "from",
          "type": "address"
        },
        {
          "internalType": "address",
          "name": "to",
          "type": "address"
        },
        {
          "internalType": "uint256[]",
          "name": "ids",
          "type": "uint256[]"
        },
        {
          "internalType": "uint256[]",
          "name": "values",
          "type": "uint256[]"
        },
        {
          "internalType": "bytes",
          "name": "data",
          "type": "bytes"
        }
      ],
      "name": "safeBatchTransferFrom",
      "outputs": [],
      "stateMutability": "nonpayable",
      "type": "function"
    },
    {
      "inputs": [
        {
          "internalType": "address",
          "name": "from",
          "type": "address"
        },
        {
          "internalType": "address",
          "name": "to",
          "type": "address"
        },
        {
          "internalType": "uint256",
          "name": "id",
          "type": "uint256"
        },
        {
          "internalType": "uint256",
          "name": "value",
          "type": "uint256"
        },
        {
          "internalType": "bytes",
          "name": "data",
          "type": "bytes"
        }
      ],
      "name": "safeTransferFrom",
      "outputs": [],
      "stateMutability": "nonpayable",
      "type": "function"
    },
    {
      "inputs": [
        {
          "internalType": "address",
          "name": "operator",
          "type": "address"
        },
        {
          "internalType": "bool",
          "name": "approved",
          "type": "bool"
        }
      ],
      "name": "setApprovalForAll",
      "outputs": [],
      "stateMutability": "nonpayable",
      "type": "function"
    },
    {
      "inputs": [
        {
          "internalType": "bytes4",
          "name": "interfaceId",
          "type": "bytes4"
        }
      ],
      "name": "supportsInterface",
      "outputs": [
        {
          "internalType": "bool",
          "name": "",
          "type": "bool"
        }
      ],
      "stateMutability": "view",
      "type": "function"
    },
    {
      "inputs": [
        {
          "internalType": "uint256",
          "name": "",
          "type": "uint256"
        }
      ],
      "name": "totalFractions",
      "outputs": [
        {
          "internalType": "uint256",
          "name": "",
          "type": "uint256"
        }
      ],
      "stateMutability": "view",
      "type": "function"
    },
    {
      "inputs": [
        {
          "internalType": "address",
          "name": "to",
          "type": "address"
        },
        {
          "internalType": "uint256",
          "name": "landId",
          "type": "uint256"
        },
        {
          "internalType": "uint256",
          "name": "amount",
          "type": "uint256"
        }
      ],
      "name": "transferFractionalTokens",
      "outputs": [],
      "stateMutability": "nonpayable",
      "type": "function"
    },
    {
      "inputs": [
        {
          "internalType": "address",
          "name": "newOwner",
          "type": "address"
        }
      ],
      "name": "transferOwnership",
      "outputs": [],
      "stateMutability": "nonpayable",
      "type": "function"
    },
    {
      "inputs": [
        {
          "internalType": "uint256",
          "name": "landId",
          "type": "uint256"
        },
        {
          "internalType": "uint256",
          "name": "amount",
          "type": "uint256"
        },
        {
          "internalType": "uint256",
          "name": "pricePerToken",
          "type": "uint256"
        }
      ],
      "name": "updateTokenListing",
      "outputs": [],
      "stateMutability": "nonpayable",
      "type": "function"
    },
    {
      "inputs": [
        {
          "internalType": "uint256",
          "name": "",
          "type": "uint256"
        }
      ],
      "name": "uri",
      "outputs": [
        {
          "internalType": "string",
          "name": "",
          "type": "string"
        }
      ],
      "stateMutability": "view",
      "type": "function"
    }
  ],
  "bytecode": "0x608060405234801561001057600080fd5b503360405180602001604052806000815250610031816100b960201b60201c565b50600073ffffffffffffffffffffffffffffffffffffffff168173ffffffffffffffffffffffffffffffffffffffff16036100a45760006040517f1e4fbdf700000000000000000000000000000000000000000000000000000000815260040161009b91906101d3565b60405180910390fd5b6100b3816100cc60201b60201c565b50610510565b80600290816100c8919061043e565b5050565b6000600360009054906101000a900473ffffffffffffffffffffffffffffffffffffffff16905081600360006101000a81548173ffffffffffffffffffffffffffffffffffffffff021916908373ffffffffffffffffffffffffffffffffffffffff1602179055508173ffffffffffffffffffffffffffffffffffffffff168173ffffffffffffffffffffffffffffffffffffffff167f8be0079c531659141344cd1fd0a4f28419497f9722a3daafe3b4186f6b6457e060405160405180910390a35050565b600073ffffffffffffffffffffffffffffffffffffffff82169050919050565b60006101bd82610192565b9050919050565b6101cd816101b2565b82525050565b60006020820190506101e860008301846101c4565b92915050565b600081519050919050565b7f4e487b7100000000000000000000000000000000000000000000000000000000600052604160045260246000fd5b7f4e487b7100000000000000000000000000000000000000000000000000000000600052602260045260246000fd5b6000600282049050600182168061026f57607f821691505b60208210810361028257610281610228565b5b50919050565b60008190508160005260206000209050919050565b60006020601f8301049050919050565b600082821b905092915050565b6000600883026102ea7fffffffffffffffffffffffffffffffffffffffffffffffffffffffffffffffff826102ad565b6102f486836102ad565b95508019841693508086168417925050509392505050565b6000819050919050565b6000819050919050565b600061033b6103366103318461030c565b610316565b61030c565b9050919050565b6000819050919050565b61035583610320565b61036961036182610342565b8484546102ba565b825550505050565b600090565b61037e610371565b61038981848461034c565b505050565b5b818110156103ad576103a2600082610376565b60018101905061038f565b5050565b601f8211156103f2576103c381610288565b6103cc8461029d565b810160208510156103db578190505b6103ef6103e78561029d565b83018261038e565b50505b505050565b600082821c905092915050565b6000610415600019846008026103f7565b1980831691505092915050565b600061042e8383610404565b9150826002028217905092915050565b610447826101ee565b67ffffffffffffffff8111156104605761045f6101f9565b5b61046a8254610257565b6104758282856103b1565b600060209050601f8311600181146104a85760008415610496578287015190505b6104a08582610422565b865550610508565b601f1984166104b686610288565b60005b828110156104de578489015182556001820191506020850194506020810190506104b9565b868310156104fb57848901516104f7601f891682610404565b8355505b6001600288020188555050505b505050505050565b6142808061051f6000396000f3fe6080604052600436106101295760003560e01c80638da5cb5b116100ab578063b86b19de1161006f578063b86b19de146103f3578063e985e9c514610430578063ee0db7eb1461046d578063f1807e5c14610496578063f242432a146104c1578063f2fde38b146104ea57610129565b80638da5cb5b1461030d5780638fdc85ce14610338578063a22cb46514610378578063a379c877146103a1578063afe9b7da146103ca57610129565b80634a687aaa116100f25780634a687aaa146102375780634e1273f41461026057806358b3605c1461029d578063715018a6146102b9578063766de47f146102d057610129565b8062fdd58e1461012e57806301ffc9a71461016b5780630e89341c146101a85780632e8a0f2b146101e55780632eb2c2d61461020e575b600080fd5b34801561013a57600080fd5b5061015560048036038101906101509190612af2565b610513565b6040516101629190612b41565b60405180910390f35b34801561017757600080fd5b50610192600480360381019061018d9190612bb4565b61056d565b60405161019f9190612bfc565b60405180910390f35b3480156101b457600080fd5b506101cf60048036038101906101ca9190612c17565b61064f565b6040516101dc9190612cd4565b60405180910390f35b3480156101f157600080fd5b5061020c60048036038101906102079190612cf6565b6106e3565b005b34801561021a57600080fd5b5061023560048036038101906102309190612f46565b6109e0565b005b34801561024357600080fd5b5061025e600480360381019061025991906130b6565b610a88565b005b34801561026c57600080fd5b50610287600480360381019061028291906131d5565b610b4d565b604051610294919061330b565b60405180910390f35b6102b760048036038101906102b29190613388565b610c56565b005b3480156102c557600080fd5b506102ce6112e6565b005b3480156102dc57600080fd5b506102f760048036038101906102f29190612c17565b6112fa565b6040516103049190612b41565b60405180910390f35b34801561031957600080fd5b50610322611312565b60405161032f91906133f7565b60405180910390f35b34801561034457600080fd5b5061035f600480360381019061035a9190613412565b61133c565b60405161036f949392919061343f565b60405180910390f35b34801561038457600080fd5b5061039f600480360381019061039a91906134b0565b61138c565b005b3480156103ad57600080fd5b506103c860048036038101906103c39190612cf6565b6113a2565b005b3480156103d657600080fd5b506103f160048036038101906103ec91906134f0565b61164a565b005b3480156103ff57600080fd5b5061041a60048036038101906104159190612c17565b61171e565b6040516104279190612bfc565b60405180910390f35b34801561043c57600080fd5b5061045760048036038101906104529190613543565b61173e565b6040516104649190612bfc565b60405180910390f35b34801561047957600080fd5b50610494600480360381019061048f9190612cf6565b6117d2565b005b3480156104a257600080fd5b506104ab611b31565b6040516104b89190612b41565b60405180910390f35b3480156104cd57600080fd5b506104e860048036038101906104e39190613583565b611b37565b005b3480156104f657600080fd5b50610511600480360381019061050c9190613412565b611bdf565b005b600080600083815260200190815260200160002060008473ffffffffffffffffffffffffffffffffffffffff1673ffffffffffffffffffffffffffffffffffffffff16815260200190815260200160002054905092915050565b60007fd9b67a26000000000000000000000000000000000000000000000000000000007bffffffffffffffffffffffffffffffffffffffffffffffffffffffff1916827bffffffffffffffffffffffffffffffffffffffffffffffffffffffff1916148061063857507f0e89341c000000000000000000000000000000000000000000000000000000007bffffffffffffffffffffffffffffffffffffffffffffffffffffffff1916827bffffffffffffffffffffffffffffffffffffffffffffffffffffffff1916145b80610648575061064782611c65565b5b9050919050565b60606002805461065e90613649565b80601f016020809104026020016040519081016040528092919081815260200182805461068a90613649565b80156106d75780601f106106ac576101008083540402835291602001916106d7565b820191906000526020600020905b8154815290600101906020018083116106ba57829003601f168201915b50505050509050919050565b6006600084815260200190815260200160002060009054906101000a900460ff16610743576040517f08c379a000000000000000000000000000000000000000000000000000000000815260040161073a906136ec565b60405180910390fd5b8161074e3385610513565b101561078f576040517f08c379a000000000000000000000000000000000000000000000000000000000815260040161078690613758565b60405180910390fd5b600081116107d2576040517f08c379a00000000000000000000000000000000000000000000000000000000081526004016107c9906137c4565b60405180910390fd5b60008211610815576040517f08c379a000000000000000000000000000000000000000000000000000000000815260040161080c90613830565b60405180910390fd5b6000600760003373ffffffffffffffffffffffffffffffffffffffff1673ffffffffffffffffffffffffffffffffffffffff1681526020019081526020016000209050600081600201541161089f576040517f08c379a0000000000000000000000000000000000000000000000000000000008152600401610896906138c2565b60405180910390fd5b838160010154146108e5576040517f08c379a00000000000000000000000000000000000000000000000000000000081526004016108dc9061392e565b60405180910390fd5b3373ffffffffffffffffffffffffffffffffffffffff168160000160009054906101000a900473ffffffffffffffffffffffffffffffffffffffff1673ffffffffffffffffffffffffffffffffffffffff1614610977576040517f08c379a000000000000000000000000000000000000000000000000000000000815260040161096e906139c0565b60405180910390fd5b8281600201819055508181600301819055503373ffffffffffffffffffffffffffffffffffffffff16847f8098ce837a1e7f11070ca4eb3fecff815014e0245b2788d11377149251c2b55b85856040516109d29291906139e0565b60405180910390a350505050565b60006109ea611ccf565b90508073ffffffffffffffffffffffffffffffffffffffff168673ffffffffffffffffffffffffffffffffffffffff1614158015610a2f5750610a2d868261173e565b155b15610a735780866040517fe237d922000000000000000000000000000000000000000000000000000000008152600401610a6a929190613a09565b60405180910390fd5b610a808686868686611cd7565b505050505050565b610a90611dcf565b60046000815480929190610aa390613a61565b919050555060006004549050610aca33828460405180602001604052806000815250611e56565b81600560008381526020019081526020016000208190555060016006600083815260200190815260200160002060006101000a81548160ff021916908315150217905550807fe04f3628166f9d500265606417509e03be4579a17394e8c4e1fa86c4fa0e4fae8385604051610b40929190613aa9565b60405180910390a2505050565b60608151835114610b9957815183516040517f5b059991000000000000000000000000000000000000000000000000000000008152600401610b909291906139e0565b60405180910390fd5b6000835167ffffffffffffffff811115610bb657610bb5612d4e565b5b604051908082528060200260200182016040528015610be45781602001602082028036833780820191505090505b50905060005b8451811015610c4b57610c21610c098287611eef90919063ffffffff16565b610c1c8387611f0390919063ffffffff16565b610513565b828281518110610c3457610c33613ad9565b5b602002602001018181525050806001019050610bea565b508091505092915050565b6006600084815260200190815260200160002060009054906101000a900460ff16610cb6576040517f08c379a0000000000000000000000000000000000000000000000000000000008152600401610cad906136ec565b60405180910390fd5b60008060005b84849050811015610ffc576000858583818110610cdc57610cdb613ad9565b5b9050608002016000016020810190610cf49190613412565b90506000600760008373ffffffffffffffffffffffffffffffffffffffff1673ffffffffffffffffffffffffffffffffffffffff1681526020019081526020016000206040518060800160405290816000820160009054906101000a900473ffffffffffffffffffffffffffffffffffffffff1673ffffffffffffffffffffffffffffffffffffffff1673ffffffffffffffffffffffffffffffffffffffff168152602001600182015481526020016002820154815260200160038201548152505090506000816040015111610dff576040517f08c379a0000000000000000000000000000000000000000000000000000000008152600401610df690613b54565b60405180910390fd5b87816020015114610e45576040517f08c379a0000000000000000000000000000000000000000000000000000000008152600401610e3c9061392e565b60405180910390fd5b868684818110610e5857610e57613ad9565b5b9050608002016040013581604001511015610ea8576040517f08c379a0000000000000000000000000000000000000000000000000000000008152600401610e9f90613bc0565b60405180910390fd5b868684818110610ebb57610eba613ad9565b5b90506080020160600135816060015114610f0a576040517f08c379a0000000000000000000000000000000000000000000000000000000008152600401610f0190613c2c565b60405180910390fd5b868684818110610f1d57610f1c613ad9565b5b90506080020160400135610f31838a610513565b1015610f72576040517f08c379a0000000000000000000000000000000000000000000000000000000008152600401610f6990613c98565b60405180910390fd5b868684818110610f8557610f84613ad9565b5b9050608002016040013585610f9a9190613cb8565b9450868684818110610faf57610fae613ad9565b5b90506080020160600135878785818110610fcc57610fcb613ad9565b5b90506080020160400135610fe09190613cec565b84610feb9190613cb8565b935050508080600101915050610cbc565b5080341015611040576040517f08c379a000000000000000000000000000000000000000000000000000000000815260040161103790613d7a565b60405180910390fd5b60005b8484905081101561127c57600085858381811061106357611062613ad9565b5b9050608002018036038101906110799190613e17565b90506000816000015190506110a481338a856040015160405180602001604052806000815250611b37565b6000826060015183604001516110ba9190613cec565b90508173ffffffffffffffffffffffffffffffffffffffff166108fc829081150290604051600060405180830381858888f19350505050158015611102573d6000803e3d6000fd5b506000600760008473ffffffffffffffffffffffffffffffffffffffff1673ffffffffffffffffffffffffffffffffffffffff168152602001908152602001600020905083604001518160020154036111db57600760008473ffffffffffffffffffffffffffffffffffffffff1673ffffffffffffffffffffffffffffffffffffffff168152602001908152602001600020600080820160006101000a81549073ffffffffffffffffffffffffffffffffffffffff021916905560018201600090556002820160009055600382016000905550506111fb565b83604001518160020160008282546111f39190613e44565b925050819055505b8273ffffffffffffffffffffffffffffffffffffffff163373ffffffffffffffffffffffffffffffffffffffff168b7f06a468bc780ea805d80491ed9f300c36122c94bcb715acc7a8606f510f6c2ecd876040015188606001516040516112639291906139e0565b60405180910390a4505050508080600101915050611043565b506000813461128b9190613e44565b905060008111156112de573373ffffffffffffffffffffffffffffffffffffffff166108fc829081150290604051600060405180830381858888f193505050501580156112dc573d6000803e3d6000fd5b505b505050505050565b6112ee611dcf565b6112f86000611f17565b565b60056020528060005260406000206000915090505481565b6000600360009054906101000a900473ffffffffffffffffffffffffffffffffffffffff16905090565b60076020528060005260406000206000915090508060000160009054906101000a900473ffffffffffffffffffffffffffffffffffffffff16908060010154908060020154908060030154905084565b61139e611397611ccf565b8383611fdd565b5050565b6006600084815260200190815260200160002060009054906101000a900460ff16611402576040517f08c379a00000000000000000000000000000000000000000000000000000000081526004016113f9906136ec565b60405180910390fd5b8161140d3385610513565b101561144e576040517f08c379a000000000000000000000000000000000000000000000000000000000815260040161144590613758565b60405180910390fd5b60008111611491576040517f08c379a0000000000000000000000000000000000000000000000000000000008152600401611488906137c4565b60405180910390fd5b6000600760003373ffffffffffffffffffffffffffffffffffffffff1673ffffffffffffffffffffffffffffffffffffffff1681526020019081526020016000206002015414611516576040517f08c379a000000000000000000000000000000000000000000000000000000000815260040161150d90613ec4565b60405180910390fd5b60405180608001604052803373ffffffffffffffffffffffffffffffffffffffff16815260200184815260200183815260200182815250600760003373ffffffffffffffffffffffffffffffffffffffff1673ffffffffffffffffffffffffffffffffffffffff16815260200190815260200160002060008201518160000160006101000a81548173ffffffffffffffffffffffffffffffffffffffff021916908373ffffffffffffffffffffffffffffffffffffffff1602179055506020820151816001015560408201518160020155606082015181600301559050503373ffffffffffffffffffffffffffffffffffffffff16837f8098ce837a1e7f11070ca4eb3fecff815014e0245b2788d11377149251c2b55b848460405161163d9291906139e0565b60405180910390a3505050565b806116553384610513565b1015611696576040517f08c379a000000000000000000000000000000000000000000000000000000000815260040161168d90613f30565b60405180910390fd5b6116b23384848460405180602001604052806000815250611b37565b8273ffffffffffffffffffffffffffffffffffffffff163373ffffffffffffffffffffffffffffffffffffffff167fa26bbe54fa0532e401916ac988b0e6d0a482b1e3de4a53dd1718aba39eeae7ad84846040516117119291906139e0565b60405180910390a3505050565b60066020528060005260406000206000915054906101000a900460ff1681565b6000600160008473ffffffffffffffffffffffffffffffffffffffff1673ffffffffffffffffffffffffffffffffffffffff16815260200190815260200160002060008373ffffffffffffffffffffffffffffffffffffffff1673ffffffffffffffffffffffffffffffffffffffff16815260200190815260200160002060009054906101000a900460ff16905092915050565b6006600084815260200190815260200160002060009054906101000a900460ff16611832576040517f08c379a0000000000000000000000000000000000000000000000000000000008152600401611829906136ec565b60405180910390fd5b8161183d3385610513565b101561187e576040517f08c379a000000000000000000000000000000000000000000000000000000000815260040161187590613fc2565b60405180910390fd5b6000600760003373ffffffffffffffffffffffffffffffffffffffff1673ffffffffffffffffffffffffffffffffffffffff1681526020019081526020016000206040518060800160405290816000820160009054906101000a900473ffffffffffffffffffffffffffffffffffffffff1673ffffffffffffffffffffffffffffffffffffffff1673ffffffffffffffffffffffffffffffffffffffff168152602001600182015481526020016002820154815260200160038201548152505090506000816040015111611987576040517f08c379a000000000000000000000000000000000000000000000000000000000815260040161197e9061402e565b60405180910390fd5b838160200151146119cd576040517f08c379a00000000000000000000000000000000000000000000000000000000081526004016119c49061392e565b60405180910390fd5b82816040015114611a13576040517f08c379a0000000000000000000000000000000000000000000000000000000008152600401611a0a9061409a565b60405180910390fd5b81816060015114611a59576040517f08c379a0000000000000000000000000000000000000000000000000000000008152600401611a5090613c2c565b60405180910390fd5b600760003373ffffffffffffffffffffffffffffffffffffffff1673ffffffffffffffffffffffffffffffffffffffff168152602001908152602001600020600080820160006101000a81549073ffffffffffffffffffffffffffffffffffffffff021916905560018201600090556002820160009055600382016000905550503373ffffffffffffffffffffffffffffffffffffffff16847f6b07c5730a95c41d70145025b4d89a30daef58b875d933b7be46e254a34aa0a58585604051611b239291906139e0565b60405180910390a350505050565b60045481565b6000611b41611ccf565b90508073ffffffffffffffffffffffffffffffffffffffff168673ffffffffffffffffffffffffffffffffffffffff1614158015611b865750611b84868261173e565b155b15611bca5780866040517fe237d922000000000000000000000000000000000000000000000000000000008152600401611bc1929190613a09565b60405180910390fd5b611bd7868686868661214d565b505050505050565b611be7611dcf565b600073ffffffffffffffffffffffffffffffffffffffff168173ffffffffffffffffffffffffffffffffffffffff1603611c595760006040517f1e4fbdf7000000000000000000000000000000000000000000000000000000008152600401611c5091906133f7565b60405180910390fd5b611c6281611f17565b50565b60007f01ffc9a7000000000000000000000000000000000000000000000000000000007bffffffffffffffffffffffffffffffffffffffffffffffffffffffff1916827bffffffffffffffffffffffffffffffffffffffffffffffffffffffff1916149050919050565b600033905090565b600073ffffffffffffffffffffffffffffffffffffffff168473ffffffffffffffffffffffffffffffffffffffff1603611d495760006040517f57f447ce000000000000000000000000000000000000000000000000000000008152600401611d4091906133f7565b60405180910390fd5b600073ffffffffffffffffffffffffffffffffffffffff168573ffffffffffffffffffffffffffffffffffffffff1603611dbb5760006040517f01a83514000000000000000000000000000000000000000000000000000000008152600401611db291906133f7565b60405180910390fd5b611dc88585858585612258565b5050505050565b611dd7611ccf565b73ffffffffffffffffffffffffffffffffffffffff16611df5611312565b73ffffffffffffffffffffffffffffffffffffffff1614611e5457611e18611ccf565b6040517f118cdaa7000000000000000000000000000000000000000000000000000000008152600401611e4b91906133f7565b60405180910390fd5b565b600073ffffffffffffffffffffffffffffffffffffffff168473ffffffffffffffffffffffffffffffffffffffff1603611ec85760006040517f57f447ce000000000000000000000000000000000000000000000000000000008152600401611ebf91906133f7565b60405180910390fd5b600080611ed5858561230a565b91509150611ee7600087848487612258565b505050505050565b600060208202602084010151905092915050565b600060208202602084010151905092915050565b6000600360009054906101000a900473ffffffffffffffffffffffffffffffffffffffff16905081600360006101000a81548173ffffffffffffffffffffffffffffffffffffffff021916908373ffffffffffffffffffffffffffffffffffffffff1602179055508173ffffffffffffffffffffffffffffffffffffffff168173ffffffffffffffffffffffffffffffffffffffff167f8be0079c531659141344cd1fd0a4f28419497f9722a3daafe3b4186f6b6457e060405160405180910390a35050565b600073ffffffffffffffffffffffffffffffffffffffff168273ffffffffffffffffffffffffffffffffffffffff160361204f5760006040517fced3e10000000000000000000000000000000000000000000000000000000000815260040161204691906133f7565b60405180910390fd5b80600160008573ffffffffffffffffffffffffffffffffffffffff1673ffffffffffffffffffffffffffffffffffffffff16815260200190815260200160002060008473ffffffffffffffffffffffffffffffffffffffff1673ffffffffffffffffffffffffffffffffffffffff16815260200190815260200160002060006101000a81548160ff0219169083151502179055508173ffffffffffffffffffffffffffffffffffffffff168373ffffffffffffffffffffffffffffffffffffffff167f17307eab39ab6107e8899845ad3d59bd9653f200f220920489ca2b5937696c31836040516121409190612bfc565b60405180910390a3505050565b600073ffffffffffffffffffffffffffffffffffffffff168473ffffffffffffffffffffffffffffffffffffffff16036121bf5760006040517f57f447ce0000000000000000000000000000000000000000000000000000000081526004016121b691906133f7565b60405180910390fd5b600073ffffffffffffffffffffffffffffffffffffffff168573ffffffffffffffffffffffffffffffffffffffff16036122315760006040517f01a8351400000000000000000000000000000000000000000000000000000000815260040161222891906133f7565b60405180910390fd5b60008061223e858561230a565b9150915061224f8787848487612258565b50505050505050565b6122648585858561233a565b600073ffffffffffffffffffffffffffffffffffffffff168473ffffffffffffffffffffffffffffffffffffffff16146123035760006122a2611ccf565b905060018451036122f25760006122c3600086611f0390919063ffffffff16565b905060006122db600086611f0390919063ffffffff16565b90506122eb8389898585896126e2565b5050612301565b612300818787878787612896565b5b505b5050505050565b60608060405191506001825283602083015260408201905060018152826020820152604081016040529250929050565b805182511461238457815181516040517f5b05999100000000000000000000000000000000000000000000000000000000815260040161237b9291906139e0565b60405180910390fd5b600061238e611ccf565b905060005b835181101561259d5760006123b18286611f0390919063ffffffff16565b905060006123c88386611f0390919063ffffffff16565b9050600073ffffffffffffffffffffffffffffffffffffffff168873ffffffffffffffffffffffffffffffffffffffff16146124f557600080600084815260200190815260200160002060008a73ffffffffffffffffffffffffffffffffffffffff1673ffffffffffffffffffffffffffffffffffffffff1681526020019081526020016000205490508181101561249d57888183856040517f03dee4c5000000000000000000000000000000000000000000000000000000008152600401612494949392919061343f565b60405180910390fd5b81810360008085815260200190815260200160002060008b73ffffffffffffffffffffffffffffffffffffffff1673ffffffffffffffffffffffffffffffffffffffff16815260200190815260200160002081905550505b600073ffffffffffffffffffffffffffffffffffffffff168773ffffffffffffffffffffffffffffffffffffffff1614612590578060008084815260200190815260200160002060008973ffffffffffffffffffffffffffffffffffffffff1673ffffffffffffffffffffffffffffffffffffffff16815260200190815260200160002060008282546125889190613cb8565b925050819055505b5050806001019050612393565b50600183510361265c5760006125bd600085611f0390919063ffffffff16565b905060006125d5600085611f0390919063ffffffff16565b90508573ffffffffffffffffffffffffffffffffffffffff168773ffffffffffffffffffffffffffffffffffffffff168473ffffffffffffffffffffffffffffffffffffffff167fc3d58168c5ae7397731d063d5bbf3d657854427343f4c083240f7aacaa2d0f62858560405161264d9291906139e0565b60405180910390a450506126db565b8373ffffffffffffffffffffffffffffffffffffffff168573ffffffffffffffffffffffffffffffffffffffff168273ffffffffffffffffffffffffffffffffffffffff167f4a39dc06d4c0dbc64b70af90fd698a233a518aa5d07e595d983b8c0526c8f7fb86866040516126d29291906140ba565b60405180910390a45b5050505050565b60008473ffffffffffffffffffffffffffffffffffffffff163b111561288e578373ffffffffffffffffffffffffffffffffffffffff1663f23a6e6187878686866040518663ffffffff1660e01b8152600401612743959493929190614146565b6020604051808303816000875af192505050801561277f57506040513d601f19601f8201168201806040525081019061277c91906141b5565b60015b612803573d80600081146127af576040519150601f19603f3d011682016040523d82523d6000602084013e6127b4565b606091505b5060008151036127fb57846040517f57f447ce0000000000000000000000000000000000000000000000000000000081526004016127f291906133f7565b60405180910390fd5b805181602001fd5b63f23a6e6160e01b7bffffffffffffffffffffffffffffffffffffffffffffffffffffffff1916817bffffffffffffffffffffffffffffffffffffffffffffffffffffffff19161461288c57846040517f57f447ce00000000000000000000000000000000000000000000000000000000815260040161288391906133f7565b60405180910390fd5b505b505050505050565b60008473ffffffffffffffffffffffffffffffffffffffff163b1115612a42578373ffffffffffffffffffffffffffffffffffffffff1663bc197c8187878686866040518663ffffffff1660e01b81526004016128f79594939291906141e2565b6020604051808303816000875af192505050801561293357506040513d601f19601f8201168201806040525081019061293091906141b5565b60015b6129b7573d8060008114612963576040519150601f19603f3d011682016040523d82523d6000602084013e612968565b606091505b5060008151036129af57846040517f57f447ce0000000000000000000000000000000000000000000000000000000081526004016129a691906133f7565b60405180910390fd5b805181602001fd5b63bc197c8160e01b7bffffffffffffffffffffffffffffffffffffffffffffffffffffffff1916817bffffffffffffffffffffffffffffffffffffffffffffffffffffffff191614612a4057846040517f57f447ce000000000000000000000000000000000000000000000000000000008152600401612a3791906133f7565b60405180910390fd5b505b505050505050565b6000604051905090565b600080fd5b600080fd5b600073ffffffffffffffffffffffffffffffffffffffff82169050919050565b6000612a8982612a5e565b9050919050565b612a9981612a7e565b8114612aa457600080fd5b50565b600081359050612ab681612a90565b92915050565b6000819050919050565b612acf81612abc565b8114612ada57600080fd5b50565b600081359050612aec81612ac6565b92915050565b60008060408385031215612b0957612b08612a54565b5b6000612b1785828601612aa7565b9250506020612b2885828601612add565b9150509250929050565b612b3b81612abc565b82525050565b6000602082019050612b566000830184612b32565b92915050565b60007fffffffff0000000000000000000000000000000000000000000000000000000082169050919050565b612b9181612b5c565b8114612b9c57600080fd5b50565b600081359050612bae81612b88565b92915050565b600060208284031215612bca57612bc9612a54565b5b6000612bd884828501612b9f565b91505092915050565b60008115159050919050565b612bf681612be1565b82525050565b6000602082019050612c116000830184612bed565b92915050565b600060208284031215612c2d57612c2c612a54565b5b6000612c3b84828501612add565b91505092915050565b600081519050919050565b600082825260208201905092915050565b60005b83811015612c7e578082015181840152602081019050612c63565b60008484015250505050565b6000601f19601f8301169050919050565b6000612ca682612c44565b612cb08185612c4f565b9350612cc0818560208601612c60565b612cc981612c8a565b840191505092915050565b60006020820190508181036000830152612cee8184612c9b565b905092915050565b600080600060608486031215612d0f57612d0e612a54565b5b6000612d1d86828701612add565b9350506020612d2e86828701612add565b9250506040612d3f86828701612add565b9150509250925092565b600080fd5b7f4e487b7100000000000000000000000000000000000000000000000000000000600052604160045260246000fd5b612d8682612c8a565b810181811067ffffffffffffffff82111715612da557612da4612d4e565b5b80604052505050565b6000612db8612a4a565b9050612dc48282612d7d565b919050565b600067ffffffffffffffff821115612de457612de3612d4e565b5b602082029050602081019050919050565b600080fd5b6000612e0d612e0884612dc9565b612dae565b90508083825260208201905060208402830185811115612e3057612e2f612df5565b5b835b81811015612e595780612e458882612add565b845260208401935050602081019050612e32565b5050509392505050565b600082601f830112612e7857612e77612d49565b5b8135612e88848260208601612dfa565b91505092915050565b600080fd5b600067ffffffffffffffff821115612eb157612eb0612d4e565b5b612eba82612c8a565b9050602081019050919050565b82818337600083830152505050565b6000612ee9612ee484612e96565b612dae565b905082815260208101848484011115612f0557612f04612e91565b5b612f10848285612ec7565b509392505050565b600082601f830112612f2d57612f2c612d49565b5b8135612f3d848260208601612ed6565b91505092915050565b600080600080600060a08688031215612f6257612f61612a54565b5b6000612f7088828901612aa7565b9550506020612f8188828901612aa7565b945050604086013567ffffffffffffffff811115612fa257612fa1612a59565b5b612fae88828901612e63565b935050606086013567ffffffffffffffff811115612fcf57612fce612a59565b5b612fdb88828901612e63565b925050608086013567ffffffffffffffff811115612ffc57612ffb612a59565b5b61300888828901612f18565b9150509295509295909350565b600067ffffffffffffffff8211156130305761302f612d4e565b5b61303982612c8a565b9050602081019050919050565b600061305961305484613015565b612dae565b90508281526020810184848401111561307557613074612e91565b5b613080848285612ec7565b509392505050565b600082601f83011261309d5761309c612d49565b5b81356130ad848260208601613046565b91505092915050565b600080604083850312156130cd576130cc612a54565b5b600083013567ffffffffffffffff8111156130eb576130ea612a59565b5b6130f785828601613088565b925050602061310885828601612add565b9150509250929050565b600067ffffffffffffffff82111561312d5761312c612d4e565b5b602082029050602081019050919050565b600061315161314c84613112565b612dae565b9050808382526020820190506020840283018581111561317457613173612df5565b5b835b8181101561319d57806131898882612aa7565b845260208401935050602081019050613176565b5050509392505050565b600082601f8301126131bc576131bb612d49565b5b81356131cc84826020860161313e565b91505092915050565b600080604083850312156131ec576131eb612a54565b5b600083013567ffffffffffffffff81111561320a57613209612a59565b5b613216858286016131a7565b925050602083013567ffffffffffffffff81111561323757613236612a59565b5b61324385828601612e63565b9150509250929050565b600081519050919050565b600082825260208201905092915050565b6000819050602082019050919050565b61328281612abc565b82525050565b60006132948383613279565b60208301905092915050565b6000602082019050919050565b60006132b88261324d565b6132c28185613258565b93506132cd83613269565b8060005b838110156132fe5781516132e58882613288565b97506132f0836132a0565b9250506001810190506132d1565b5085935050505092915050565b6000602082019050818103600083015261332581846132ad565b905092915050565b600080fd5b60008083601f84011261334857613347612d49565b5b8235905067ffffffffffffffff8111156133655761336461332d565b5b60208301915083608082028301111561338157613380612df5565b5b9250929050565b6000806000604084860312156133a1576133a0612a54565b5b60006133af86828701612add565b935050602084013567ffffffffffffffff8111156133d0576133cf612a59565b5b6133dc86828701613332565b92509250509250925092565b6133f181612a7e565b82525050565b600060208201905061340c60008301846133e8565b92915050565b60006020828403121561342857613427612a54565b5b600061343684828501612aa7565b91505092915050565b600060808201905061345460008301876133e8565b6134616020830186612b32565b61346e6040830185612b32565b61347b6060830184612b32565b95945050505050565b61348d81612be1565b811461349857600080fd5b50565b6000813590506134aa81613484565b92915050565b600080604083850312156134c7576134c6612a54565b5b60006134d585828601612aa7565b92505060206134e68582860161349b565b9150509250929050565b60008060006060848603121561350957613508612a54565b5b600061351786828701612aa7565b935050602061352886828701612add565b925050604061353986828701612add565b9150509250925092565b6000806040838503121561355a57613559612a54565b5b600061356885828601612aa7565b925050602061357985828601612aa7565b9150509250929050565b600080600080600060a0868803121561359f5761359e612a54565b5b60006135ad88828901612aa7565b95505060206135be88828901612aa7565b94505060406135cf88828901612add565b93505060606135e088828901612add565b925050608086013567ffffffffffffffff81111561360157613600612a59565b5b61360d88828901612f18565b9150509295509295909350565b7f4e487b7100000000000000000000000000000000000000000000000000000000600052602260045260246000fd5b6000600282049050600182168061366157607f821691505b6020821081036136745761367361361a565b5b50919050565b7f4c616e64206d757374206265206672616374696f6e616c697a6564206669727360008201527f7400000000000000000000000000000000000000000000000000000000000000602082015250565b60006136d6602183612c4f565b91506136e18261367a565b604082019050919050565b60006020820190508181036000830152613705816136c9565b9050919050565b7f496e73756666696369656e7420746f6b656e2062616c616e6365000000000000600082015250565b6000613742601a83612c4f565b915061374d8261370c565b602082019050919050565b6000602082019050818103600083015261377181613735565b9050919050565b7f5072696365206d7573742062652067726561746572207468616e203000000000600082015250565b60006137ae601c83612c4f565b91506137b982613778565b602082019050919050565b600060208201905081810360008301526137dd816137a1565b9050919050565b7f416d6f756e74206d7573742062652067726561746572207468616e2030000000600082015250565b600061381a601d83612c4f565b9150613825826137e4565b602082019050919050565b600060208201905081810360008301526138498161380d565b9050919050565b7f446f6573206e6f74206861766520616e20616374697665206c697374696e672e60008201527f204c69737420546f6b656e20666f722073616c652e0000000000000000000000602082015250565b60006138ac603583612c4f565b91506138b782613850565b604082019050919050565b600060208201905081810360008301526138db8161389f565b9050919050565b7f4c616e6420494420646f65736e2774206d61746368206c697374696e67000000600082015250565b6000613918601d83612c4f565b9150613923826138e2565b602082019050919050565b600060208201905081810360008301526139478161390b565b9050919050565b7f4f6e6c79207468652073656c6c65722063616e2075706461746520746865206c60008201527f697374696e670000000000000000000000000000000000000000000000000000602082015250565b60006139aa602683612c4f565b91506139b58261394e565b604082019050919050565b600060208201905081810360008301526139d98161399d565b9050919050565b60006040820190506139f56000830185612b32565b613a026020830184612b32565b9392505050565b6000604082019050613a1e60008301856133e8565b613a2b60208301846133e8565b9392505050565b7f4e487b7100000000000000000000000000000000000000000000000000000000600052601160045260246000fd5b6000613a6c82612abc565b91507fffffffffffffffffffffffffffffffffffffffffffffffffffffffffffffffff8203613a9e57613a9d613a32565b5b600182019050919050565b6000604082019050613abe6000830185612b32565b8181036020830152613ad08184612c9b565b90509392505050565b7f4e487b7100000000000000000000000000000000000000000000000000000000600052603260045260246000fd5b7f53656c6c657220686173206e6f20616374697665206c697374696e6700000000600082015250565b6000613b3e601c83612c4f565b9150613b4982613b08565b602082019050919050565b60006020820190508181036000830152613b6d81613b31565b9050919050565b7f4f7264657220616d6f756e742065786365656473206c697374696e6700000000600082015250565b6000613baa601c83612c4f565b9150613bb582613b74565b602082019050919050565b60006020820190508181036000830152613bd981613b9d565b9050919050565b7f507269636520646f65736e2774206d61746368206c697374696e670000000000600082015250565b6000613c16601b83612c4f565b9150613c2182613be0565b602082019050919050565b60006020820190508181036000830152613c4581613c09565b9050919050565b7f53656c6c65722068617320696e73756666696369656e742062616c616e636500600082015250565b6000613c82601f83612c4f565b9150613c8d82613c4c565b602082019050919050565b60006020820190508181036000830152613cb181613c75565b9050919050565b6000613cc382612abc565b9150613cce83612abc565b9250828201905080821115613ce657613ce5613a32565b5b92915050565b6000613cf782612abc565b9150613d0283612abc565b9250828202613d1081612abc565b91508282048414831517613d2757613d26613a32565b5b5092915050565b7f496e73756666696369656e74207061796d656e74000000000000000000000000600082015250565b6000613d64601483612c4f565b9150613d6f82613d2e565b602082019050919050565b60006020820190508181036000830152613d9381613d57565b9050919050565b600080fd5b600060808284031215613db557613db4613d9a565b5b613dbf6080612dae565b90506000613dcf84828501612aa7565b6000830152506020613de384828501612add565b6020830152506040613df784828501612add565b6040830152506060613e0b84828501612add565b60608301525092915050565b600060808284031215613e2d57613e2c612a54565b5b6000613e3b84828501613d9f565b91505092915050565b6000613e4f82612abc565b9150613e5a83612abc565b9250828203905081811115613e7257613e71613a32565b5b92915050565b7f416c72656164792068617320616e20616374697665206c697374696e67000000600082015250565b6000613eae601d83612c4f565b9150613eb982613e78565b602082019050919050565b60006020820190508181036000830152613edd81613ea1565b9050919050565b7f496e73756666696369656e742062616c616e6365000000000000000000000000600082015250565b6000613f1a601483612c4f565b9150613f2582613ee4565b602082019050919050565b60006020820190508181036000830152613f4981613f0d565b9050919050565b7f4d757374207374696c6c206f776e2074686520746f6b656e7320746f2063616e60008201527f63656c206c697374696e67000000000000000000000000000000000000000000602082015250565b6000613fac602b83612c4f565b9150613fb782613f50565b604082019050919050565b60006020820190508181036000830152613fdb81613f9f565b9050919050565b7f4e6f20616374697665206c697374696e6720666f756e64000000000000000000600082015250565b6000614018601783612c4f565b915061402382613fe2565b602082019050919050565b600060208201905081810360008301526140478161400b565b9050919050565b7f416d6f756e7420646f65736e2774206d61746368206c697374696e6700000000600082015250565b6000614084601c83612c4f565b915061408f8261404e565b602082019050919050565b600060208201905081810360008301526140b381614077565b9050919050565b600060408201905081810360008301526140d481856132ad565b905081810360208301526140e881846132ad565b90509392505050565b600081519050919050565b600082825260208201905092915050565b6000614118826140f1565b61412281856140fc565b9350614132818560208601612c60565b61413b81612c8a565b840191505092915050565b600060a08201905061415b60008301886133e8565b61416860208301876133e8565b6141756040830186612b32565b6141826060830185612b32565b8181036080830152614194818461410d565b90509695505050505050565b6000815190506141af81612b88565b92915050565b6000602082840312156141cb576141ca612a54565b5b60006141d9848285016141a0565b91505092915050565b600060a0820190506141f760008301886133e8565b61420460208301876133e8565b818103604083015261421681866132ad565b9050818103606083015261422a81856132ad565b9050818103608083015261423e818461410d565b9050969550505050505056fea2646970667358221220b33df77e5ec288f3762b14e7ad84e6942f4c6d7fa6592dccdb568a89e740a0ba64736f6c634300081c0033",
  "linkReferences": {},
  "deployedLinkReferences": {}
}