{
  "_format": "hh-sol-artifact-1",
  "contractName": "Land",
  "sourceName": "contracts/Land.sol",
  "abi": [
    {
      "inputs": [],
      "stateMutability": "nonpayable",
      "type": "constructor"
    },
    {
      "inputs": [
        {
          "internalType": "address",
          "name": "sender",
          "type": "address"
        },
        {
          "internalType": "uint256",
          "name": "balance",
          "type": "uint256"
        },
        {
          "internalType": "uint256",
          "name": "needed",
          "type": "uint256"
        },
        {
          "internalType": "uint256",
          "name": "tokenId",
          "type": "uint256"
        }
      ],
      "name": "ERC1155InsufficientBalance",
      "type": "error"
    },
    {
      "inputs": [
        {
          "internalType": "address",
          "name": "approver",
          "type": "address"
        }
      ],
      "name": "ERC1155InvalidApprover",
      "type": "error"
    },
    {
      "inputs": [
        {
          "internalType": "uint256",
          "name": "idsLength",
          "type": "uint256"
        },
        {
          "internalType": "uint256",
          "name": "valuesLength",
          "type": "uint256"
        }
      ],
      "name": "ERC1155InvalidArrayLength",
      "type": "error"
    },
    {
      "inputs": [
        {
          "internalType": "address",
          "name": "operator",
          "type": "address"
        }
      ],
      "name": "ERC1155InvalidOperator",
      "type": "error"
    },
    {
      "inputs": [
        {
          "internalType": "address",
          "name": "receiver",
          "type": "address"
        }
      ],
      "name": "ERC1155InvalidReceiver",
      "type": "error"
    },
    {
      "inputs": [
        {
          "internalType": "address",
          "name": "sender",
          "type": "address"
        }
      ],
      "name": "ERC1155InvalidSender",
      "type": "error"
    },
    {
      "inputs": [
        {
          "internalType": "address",
          "name": "operator",
          "type": "address"
        },
        {
          "internalType": "address",
          "name": "owner",
          "type": "address"
        }
      ],
      "name": "ERC1155MissingApprovalForAll",
      "type": "error"
    },
    {
      "inputs": [
        {
          "internalType": "address",
          "name": "owner",
          "type": "address"
        }
      ],
      "name": "OwnableInvalidOwner",
      "type": "error"
    },
    {
      "inputs": [
        {
          "internalType": "address",
          "name": "account",
          "type": "address"
        }
      ],
      "name": "OwnableUnauthorizedAccount",
      "type": "error"
    },
    {
      "anonymous": false,
      "inputs": [
        {
          "indexed": true,
          "internalType": "address",
          "name": "account",
          "type": "address"
        },
        {
          "indexed": true,
          "internalType": "address",
          "name": "operator",
          "type": "address"
        },
        {
          "indexed": false,
          "internalType": "bool",
          "name": "approved",
          "type": "bool"
        }
      ],
      "name": "ApprovalForAll",
      "type": "event"
    },
    {
      "anonymous": false,
      "inputs": [
        {
          "indexed": true,
          "internalType": "uint256",
          "name": "landId",
          "type": "uint256"
        },
        {
          "indexed": false,
          "internalType": "uint256",
          "name": "numberOfFractions",
          "type": "uint256"
        },
        {
          "indexed": false,
          "internalType": "string",
          "name": "metadataURI",
          "type": "string"
        }
      ],
      "name": "LandFractionalized",
      "type": "event"
    },
    {
      "anonymous": false,
      "inputs": [
        {
          "indexed": true,
          "internalType": "address",
          "name": "previousOwner",
          "type": "address"
        },
        {
          "indexed": true,
          "internalType": "address",
          "name": "newOwner",
          "type": "address"
        }
      ],
      "name": "OwnershipTransferred",
      "type": "event"
    },
    {
      "anonymous": false,
      "inputs": [
        {
          "indexed": true,
          "internalType": "uint256",
          "name": "landId",
          "type": "uint256"
        },
        {
          "indexed": true,
          "internalType": "address",
          "name": "seller",
          "type": "address"
        },
        {
          "indexed": false,
          "internalType": "uint256",
          "name": "amount",
          "type": "uint256"
        },
        {
          "indexed": false,
          "internalType": "uint256",
          "name": "pricePerToken",
          "type": "uint256"
        }
      ],
      "name": "TokensListedForSale",
      "type": "event"
    },
    {
      "anonymous": false,
      "inputs": [
        {
          "indexed": true,
          "internalType": "uint256",
          "name": "landId",
          "type": "uint256"
        },
        {
          "indexed": true,
          "internalType": "address",
          "name": "seller",
          "type": "address"
        },
        {
          "indexed": false,
          "internalType": "uint256",
          "name": "amount",
          "type": "uint256"
        },
        {
          "indexed": false,
          "internalType": "uint256",
          "name": "pricePerToken",
          "type": "uint256"
        }
      ],
      "name": "TokensListingCancelled",
      "type": "event"
    },
    {
      "anonymous": false,
      "inputs": [
        {
          "indexed": true,
          "internalType": "uint256",
          "name": "landId",
          "type": "uint256"
        },
        {
          "indexed": true,
          "internalType": "address",
          "name": "buyer",
          "type": "address"
        },
        {
          "indexed": true,
          "internalType": "address",
          "name": "seller",
          "type": "address"
        },
        {
          "indexed": false,
          "internalType": "uint256",
          "name": "amount",
          "type": "uint256"
        },
        {
          "indexed": false,
          "internalType": "uint256",
          "name": "pricePerToken",
          "type": "uint256"
        }
      ],
      "name": "TokensPurchased",
      "type": "event"
    },
    {
      "anonymous": false,
      "inputs": [
        {
          "indexed": true,
          "internalType": "address",
          "name": "operator",
          "type": "address"
        },
        {
          "indexed": true,
          "internalType": "address",
          "name": "from",
          "type": "address"
        },
        {
          "indexed": true,
          "internalType": "address",
          "name": "to",
          "type": "address"
        },
        {
          "indexed": false,
          "internalType": "uint256[]",
          "name": "ids",
          "type": "uint256[]"
        },
        {
          "indexed": false,
          "internalType": "uint256[]",
          "name": "values",
          "type": "uint256[]"
        }
      ],
      "name": "TransferBatch",
      "type": "event"
    },
    {
      "anonymous": false,
      "inputs": [
        {
          "indexed": true,
          "internalType": "address",
          "name": "from",
          "type": "address"
        },
        {
          "indexed": true,
          "internalType": "address",
          "name": "to",
          "type": "address"
        },
        {
          "indexed": false,
          "internalType": "uint256",
          "name": "landId",
          "type": "uint256"
        },
        {
          "indexed": false,
          "internalType": "uint256",
          "name": "amount",
          "type": "uint256"
        }
      ],
      "name": "TransferFractionalTokens",
      "type": "event"
    },
    {
      "anonymous": false,
      "inputs": [
        {
          "indexed": true,
          "internalType": "address",
          "name": "operator",
          "type": "address"
        },
        {
          "indexed": true,
          "internalType": "address",
          "name": "from",
          "type": "address"
        },
        {
          "indexed": true,
          "internalType": "address",
          "name": "to",
          "type": "address"
        },
        {
          "indexed": false,
          "internalType": "uint256",
          "name": "id",
          "type": "uint256"
        },
        {
          "indexed": false,
          "internalType": "uint256",
          "name": "value",
          "type": "uint256"
        }
      ],
      "name": "TransferSingle",
      "type": "event"
    },
    {
      "anonymous": false,
      "inputs": [
        {
          "indexed": false,
          "internalType": "string",
          "name": "value",
          "type": "string"
        },
        {
          "indexed": true,
          "internalType": "uint256",
          "name": "id",
          "type": "uint256"
        }
      ],
      "name": "URI",
      "type": "event"
    },
    {
      "inputs": [
        {
          "internalType": "address",
          "name": "",
          "type": "address"
        }
      ],
      "name": "activeSaleListings",
      "outputs": [
        {
          "internalType": "address",
          "name": "seller",
          "type": "address"
        },
        {
          "internalType": "uint256",
          "name": "landId",
          "type": "uint256"
        },
        {
          "internalType": "uint256",
          "name": "amount",
          "type": "uint256"
        },
        {
          "internalType": "uint256",
          "name": "pricePerToken",
          "type": "uint256"
        }
      ],
      "stateMutability": "view",
      "type": "function"
    },
    {
      "inputs": [
        {
          "internalType": "address",
          "name": "account",
          "type": "address"
        },
        {
          "internalType": "uint256",
          "name": "id",
          "type": "uint256"
        }
      ],
      "name": "balanceOf",
      "outputs": [
        {
          "internalType": "uint256",
          "name": "",
          "type": "uint256"
        }
      ],
      "stateMutability": "view",
      "type": "function"
    },
    {
      "inputs": [
        {
          "internalType": "address[]",
          "name": "accounts",
          "type": "address[]"
        },
        {
          "internalType": "uint256[]",
          "name": "ids",
          "type": "uint256[]"
        }
      ],
      "name": "balanceOfBatch",
      "outputs": [
        {
          "internalType": "uint256[]",
          "name": "",
          "type": "uint256[]"
        }
      ],
      "stateMutability": "view",
      "type": "function"
    },
    {
      "inputs": [
        {
          "internalType": "uint256",
          "name": "landId",
          "type": "uint256"
        },
        {
          "internalType": "uint256",
          "name": "amount",
          "type": "uint256"
        },
        {
          "internalType": "uint256",
          "name": "pricePerToken",
          "type": "uint256"
        }
      ],
      "name": "cancelTokenListing",
      "outputs": [],
      "stateMutability": "nonpayable",
      "type": "function"
    },
    {
      "inputs": [
        {
          "internalType": "string",
          "name": "metadataURI",
          "type": "string"
        },
        {
          "internalType": "uint256",
          "name": "numberOfFractions",
          "type": "uint256"
        }
      ],
      "name": "fractionalizeLand",
      "outputs": [],
      "stateMutability": "nonpayable",
      "type": "function"
    },
    {
      "inputs": [
        {
          "internalType": "address",
          "name": "account",
          "type": "address"
        },
        {
          "internalType": "address",
          "name": "operator",
          "type": "address"
        }
      ],
      "name": "isApprovedForAll",
      "outputs": [
        {
          "internalType": "bool",
          "name": "",
          "type": "bool"
        }
      ],
      "stateMutability": "view",
      "type": "function"
    },
    {
      "inputs": [
        {
          "internalType": "uint256",
          "name": "",
          "type": "uint256"
        }
      ],
      "name": "isFractionalized",
      "outputs": [
        {
          "internalType": "bool",
          "name": "",
          "type": "bool"
        }
      ],
      "stateMutability": "view",
      "type": "function"
    },
    {
      "inputs": [],
      "name": "landIdCounter",
      "outputs": [
        {
          "internalType": "uint256",
          "name": "",
          "type": "uint256"
        }
      ],
      "stateMutability": "view",
      "type": "function"
    },
    {
      "inputs": [
        {
          "internalType": "uint256",
          "name": "landId",
          "type": "uint256"
        },
        {
          "internalType": "uint256",
          "name": "amount",
          "type": "uint256"
        },
        {
          "internalType": "uint256",
          "name": "pricePerToken",
          "type": "uint256"
        }
      ],
      "name": "listTokensForSale",
      "outputs": [],
      "stateMutability": "nonpayable",
      "type": "function"
    },
    {
      "inputs": [],
      "name": "owner",
      "outputs": [
        {
          "internalType": "address",
          "name": "",
          "type": "address"
        }
      ],
      "stateMutability": "view",
      "type": "function"
    },
    {
      "inputs": [
        {
          "internalType": "uint256",
          "name": "landId",
          "type": "uint256"
        },
        {
          "components": [
            {
              "internalType": "address",
              "name": "seller",
              "type": "address"
            },
            {
              "internalType": "uint256",
              "name": "landId",
              "type": "uint256"
            },
            {
              "internalType": "uint256",
              "name": "amount",
              "type": "uint256"
            },
            {
              "internalType": "uint256",
              "name": "pricePerToken",
              "type": "uint256"
            }
          ],
          "internalType": "struct Land.SaleOrder",
          "name": "order",
          "type": "tuple"
        }
      ],
      "name": "purchaseTokens",
      "outputs": [],
      "stateMutability": "payable",
      "type": "function"
    },
    {
      "inputs": [],
      "name": "renounceOwnership",
      "outputs": [],
      "stateMutability": "nonpayable",
      "type": "function"
    },
    {
      "inputs": [
        {
          "internalType": "address",
          "name": "from",
          "type": "address"
        },
        {
          "internalType": "address",
          "name": "to",
          "type": "address"
        },
        {
          "internalType": "uint256[]",
          "name": "ids",
          "type": "uint256[]"
        },
        {
          "internalType": "uint256[]",
          "name": "values",
          "type": "uint256[]"
        },
        {
          "internalType": "bytes",
          "name": "data",
          "type": "bytes"
        }
      ],
      "name": "safeBatchTransferFrom",
      "outputs": [],
      "stateMutability": "nonpayable",
      "type": "function"
    },
    {
      "inputs": [
        {
          "internalType": "address",
          "name": "from",
          "type": "address"
        },
        {
          "internalType": "address",
          "name": "to",
          "type": "address"
        },
        {
          "internalType": "uint256",
          "name": "id",
          "type": "uint256"
        },
        {
          "internalType": "uint256",
          "name": "value",
          "type": "uint256"
        },
        {
          "internalType": "bytes",
          "name": "data",
          "type": "bytes"
        }
      ],
      "name": "safeTransferFrom",
      "outputs": [],
      "stateMutability": "nonpayable",
      "type": "function"
    },
    {
      "inputs": [
        {
          "internalType": "address",
          "name": "operator",
          "type": "address"
        },
        {
          "internalType": "bool",
          "name": "approved",
          "type": "bool"
        }
      ],
      "name": "setApprovalForAll",
      "outputs": [],
      "stateMutability": "nonpayable",
      "type": "function"
    },
    {
      "inputs": [
        {
          "internalType": "bytes4",
          "name": "interfaceId",
          "type": "bytes4"
        }
      ],
      "name": "supportsInterface",
      "outputs": [
        {
          "internalType": "bool",
          "name": "",
          "type": "bool"
        }
      ],
      "stateMutability": "view",
      "type": "function"
    },
    {
      "inputs": [
        {
          "internalType": "uint256",
          "name": "",
          "type": "uint256"
        }
      ],
      "name": "totalFractions",
      "outputs": [
        {
          "internalType": "uint256",
          "name": "",
          "type": "uint256"
        }
      ],
      "stateMutability": "view",
      "type": "function"
    },
    {
      "inputs": [
        {
          "internalType": "address",
          "name": "to",
          "type": "address"
        },
        {
          "internalType": "uint256",
          "name": "landId",
          "type": "uint256"
        },
        {
          "internalType": "uint256",
          "name": "amount",
          "type": "uint256"
        }
      ],
      "name": "transferFractionalTokens",
      "outputs": [],
      "stateMutability": "nonpayable",
      "type": "function"
    },
    {
      "inputs": [
        {
          "internalType": "address",
          "name": "newOwner",
          "type": "address"
        }
      ],
      "name": "transferOwnership",
      "outputs": [],
      "stateMutability": "nonpayable",
      "type": "function"
    },
    {
      "inputs": [
        {
          "internalType": "uint256",
          "name": "landId",
          "type": "uint256"
        },
        {
          "internalType": "uint256",
          "name": "amount",
          "type": "uint256"
        },
        {
          "internalType": "uint256",
          "name": "pricePerToken",
          "type": "uint256"
        }
      ],
      "name": "updateTokenListing",
      "outputs": [],
      "stateMutability": "nonpayable",
      "type": "function"
    },
    {
      "inputs": [
        {
          "internalType": "uint256",
          "name": "",
          "type": "uint256"
        }
      ],
      "name": "uri",
      "outputs": [
        {
          "internalType": "string",
          "name": "",
          "type": "string"
        }
      ],
      "stateMutability": "view",
      "type": "function"
    }
  ],
  "bytecode": "0x608060405234801561001057600080fd5b503360405180602001604052806000815250610031816100b960201b60201c565b50600073ffffffffffffffffffffffffffffffffffffffff168173ffffffffffffffffffffffffffffffffffffffff16036100a45760006040517f1e4fbdf700000000000000000000000000000000000000000000000000000000815260040161009b91906101d3565b60405180910390fd5b6100b3816100cc60201b60201c565b50610510565b80600290816100c8919061043e565b5050565b6000600360009054906101000a900473ffffffffffffffffffffffffffffffffffffffff16905081600360006101000a81548173ffffffffffffffffffffffffffffffffffffffff021916908373ffffffffffffffffffffffffffffffffffffffff1602179055508173ffffffffffffffffffffffffffffffffffffffff168173ffffffffffffffffffffffffffffffffffffffff167f8be0079c531659141344cd1fd0a4f28419497f9722a3daafe3b4186f6b6457e060405160405180910390a35050565b600073ffffffffffffffffffffffffffffffffffffffff82169050919050565b60006101bd82610192565b9050919050565b6101cd816101b2565b82525050565b60006020820190506101e860008301846101c4565b92915050565b600081519050919050565b7f4e487b7100000000000000000000000000000000000000000000000000000000600052604160045260246000fd5b7f4e487b7100000000000000000000000000000000000000000000000000000000600052602260045260246000fd5b6000600282049050600182168061026f57607f821691505b60208210810361028257610281610228565b5b50919050565b60008190508160005260206000209050919050565b60006020601f8301049050919050565b600082821b905092915050565b6000600883026102ea7fffffffffffffffffffffffffffffffffffffffffffffffffffffffffffffffff826102ad565b6102f486836102ad565b95508019841693508086168417925050509392505050565b6000819050919050565b6000819050919050565b600061033b6103366103318461030c565b610316565b61030c565b9050919050565b6000819050919050565b61035583610320565b61036961036182610342565b8484546102ba565b825550505050565b600090565b61037e610371565b61038981848461034c565b505050565b5b818110156103ad576103a2600082610376565b60018101905061038f565b5050565b601f8211156103f2576103c381610288565b6103cc8461029d565b810160208510156103db578190505b6103ef6103e78561029d565b83018261038e565b50505b505050565b600082821c905092915050565b6000610415600019846008026103f7565b1980831691505092915050565b600061042e8383610404565b9150826002028217905092915050565b610447826101ee565b67ffffffffffffffff8111156104605761045f6101f9565b5b61046a8254610257565b6104758282856103b1565b600060209050601f8311600181146104a85760008415610496578287015190505b6104a08582610422565b865550610508565b601f1984166104b686610288565b60005b828110156104de578489015182556001820191506020850194506020810190506104b9565b868310156104fb57848901516104f7601f891682610404565b8355505b6001600288020188555050505b505050505050565b61401d8061051f6000396000f3fe6080604052600436106101295760003560e01c80638fdc85ce116100ab578063b86b19de1161006f578063b86b19de146103f3578063e985e9c514610430578063ee0db7eb1461046d578063f1807e5c14610496578063f242432a146104c1578063f2fde38b146104ea57610129565b80638fdc85ce1461031c578063a14e768a1461035c578063a22cb46514610378578063a379c877146103a1578063afe9b7da146103ca57610129565b80634a687aaa116100f25780634a687aaa146102375780634e1273f414610260578063715018a61461029d578063766de47f146102b45780638da5cb5b146102f157610129565b8062fdd58e1461012e57806301ffc9a71461016b5780630e89341c146101a85780632e8a0f2b146101e55780632eb2c2d61461020e575b600080fd5b34801561013a57600080fd5b5061015560048036038101906101509190612924565b610513565b6040516101629190612973565b60405180910390f35b34801561017757600080fd5b50610192600480360381019061018d91906129e6565b61056d565b60405161019f9190612a2e565b60405180910390f35b3480156101b457600080fd5b506101cf60048036038101906101ca9190612a49565b61064f565b6040516101dc9190612b06565b60405180910390f35b3480156101f157600080fd5b5061020c60048036038101906102079190612b28565b6106e3565b005b34801561021a57600080fd5b5061023560048036038101906102309190612d78565b6109e0565b005b34801561024357600080fd5b5061025e60048036038101906102599190612ee8565b610a88565b005b34801561026c57600080fd5b5061028760048036038101906102829190613007565b610b4d565b604051610294919061313d565b60405180910390f35b3480156102a957600080fd5b506102b2610c56565b005b3480156102c057600080fd5b506102db60048036038101906102d69190612a49565b610c6a565b6040516102e89190612973565b60405180910390f35b3480156102fd57600080fd5b50610306610c82565b604051610313919061316e565b60405180910390f35b34801561032857600080fd5b50610343600480360381019061033e9190613189565b610cac565b60405161035394939291906131b6565b60405180910390f35b6103766004803603810190610371919061321f565b610cfc565b005b34801561038457600080fd5b5061039f600480360381019061039a919061328b565b6111be565b005b3480156103ad57600080fd5b506103c860048036038101906103c39190612b28565b6111d4565b005b3480156103d657600080fd5b506103f160048036038101906103ec91906132cb565b61147c565b005b3480156103ff57600080fd5b5061041a60048036038101906104159190612a49565b611550565b6040516104279190612a2e565b60405180910390f35b34801561043c57600080fd5b506104576004803603810190610452919061331e565b611570565b6040516104649190612a2e565b60405180910390f35b34801561047957600080fd5b50610494600480360381019061048f9190612b28565b611604565b005b3480156104a257600080fd5b506104ab611963565b6040516104b89190612973565b60405180910390f35b3480156104cd57600080fd5b506104e860048036038101906104e3919061335e565b611969565b005b3480156104f657600080fd5b50610511600480360381019061050c9190613189565b611a11565b005b600080600083815260200190815260200160002060008473ffffffffffffffffffffffffffffffffffffffff1673ffffffffffffffffffffffffffffffffffffffff16815260200190815260200160002054905092915050565b60007fd9b67a26000000000000000000000000000000000000000000000000000000007bffffffffffffffffffffffffffffffffffffffffffffffffffffffff1916827bffffffffffffffffffffffffffffffffffffffffffffffffffffffff1916148061063857507f0e89341c000000000000000000000000000000000000000000000000000000007bffffffffffffffffffffffffffffffffffffffffffffffffffffffff1916827bffffffffffffffffffffffffffffffffffffffffffffffffffffffff1916145b80610648575061064782611a97565b5b9050919050565b60606002805461065e90613424565b80601f016020809104026020016040519081016040528092919081815260200182805461068a90613424565b80156106d75780601f106106ac576101008083540402835291602001916106d7565b820191906000526020600020905b8154815290600101906020018083116106ba57829003601f168201915b50505050509050919050565b6006600084815260200190815260200160002060009054906101000a900460ff16610743576040517f08c379a000000000000000000000000000000000000000000000000000000000815260040161073a906134c7565b60405180910390fd5b8161074e3385610513565b101561078f576040517f08c379a000000000000000000000000000000000000000000000000000000000815260040161078690613533565b60405180910390fd5b600081116107d2576040517f08c379a00000000000000000000000000000000000000000000000000000000081526004016107c99061359f565b60405180910390fd5b60008211610815576040517f08c379a000000000000000000000000000000000000000000000000000000000815260040161080c9061360b565b60405180910390fd5b6000600760003373ffffffffffffffffffffffffffffffffffffffff1673ffffffffffffffffffffffffffffffffffffffff1681526020019081526020016000209050600081600201541161089f576040517f08c379a00000000000000000000000000000000000000000000000000000000081526004016108969061369d565b60405180910390fd5b838160010154146108e5576040517f08c379a00000000000000000000000000000000000000000000000000000000081526004016108dc90613709565b60405180910390fd5b3373ffffffffffffffffffffffffffffffffffffffff168160000160009054906101000a900473ffffffffffffffffffffffffffffffffffffffff1673ffffffffffffffffffffffffffffffffffffffff1614610977576040517f08c379a000000000000000000000000000000000000000000000000000000000815260040161096e9061379b565b60405180910390fd5b8281600201819055508181600301819055503373ffffffffffffffffffffffffffffffffffffffff16847f8098ce837a1e7f11070ca4eb3fecff815014e0245b2788d11377149251c2b55b85856040516109d29291906137bb565b60405180910390a350505050565b60006109ea611b01565b90508073ffffffffffffffffffffffffffffffffffffffff168673ffffffffffffffffffffffffffffffffffffffff1614158015610a2f5750610a2d8682611570565b155b15610a735780866040517fe237d922000000000000000000000000000000000000000000000000000000008152600401610a6a9291906137e4565b60405180910390fd5b610a808686868686611b09565b505050505050565b610a90611c01565b60046000815480929190610aa39061383c565b919050555060006004549050610aca33828460405180602001604052806000815250611c88565b81600560008381526020019081526020016000208190555060016006600083815260200190815260200160002060006101000a81548160ff021916908315150217905550807fe04f3628166f9d500265606417509e03be4579a17394e8c4e1fa86c4fa0e4fae8385604051610b40929190613884565b60405180910390a2505050565b60608151835114610b9957815183516040517f5b059991000000000000000000000000000000000000000000000000000000008152600401610b909291906137bb565b60405180910390fd5b6000835167ffffffffffffffff811115610bb657610bb5612b80565b5b604051908082528060200260200182016040528015610be45781602001602082028036833780820191505090505b50905060005b8451811015610c4b57610c21610c098287611d2190919063ffffffff16565b610c1c8387611d3590919063ffffffff16565b610513565b828281518110610c3457610c336138b4565b5b602002602001018181525050806001019050610bea565b508091505092915050565b610c5e611c01565b610c686000611d49565b565b60056020528060005260406000206000915090505481565b6000600360009054906101000a900473ffffffffffffffffffffffffffffffffffffffff16905090565b60076020528060005260406000206000915090508060000160009054906101000a900473ffffffffffffffffffffffffffffffffffffffff16908060010154908060020154908060030154905084565b6006600083815260200190815260200160002060009054906101000a900460ff16610d5c576040517f08c379a0000000000000000000000000000000000000000000000000000000008152600401610d53906134c7565b60405180910390fd5b6000816060013511610da3576040517f08c379a0000000000000000000000000000000000000000000000000000000008152600401610d9a9061392f565b60405180910390fd5b600080826000016020810190610db99190613189565b90506000600760008373ffffffffffffffffffffffffffffffffffffffff1673ffffffffffffffffffffffffffffffffffffffff16815260200190815260200160002090506000816002015411610e45576040517f08c379a0000000000000000000000000000000000000000000000000000000008152600401610e3c9061399b565b60405180910390fd5b84816001015414610e8b576040517f08c379a0000000000000000000000000000000000000000000000000000000008152600401610e8290613709565b60405180910390fd5b836040013581600201541015610ed6576040517f08c379a0000000000000000000000000000000000000000000000000000000008152600401610ecd90613a07565b60405180910390fd5b8360600135816003015414610f20576040517f08c379a0000000000000000000000000000000000000000000000000000000008152600401610f1790613a73565b60405180910390fd5b8360400135610f2f8387610513565b1015610f70576040517f08c379a0000000000000000000000000000000000000000000000000000000008152600401610f6790613adf565b60405180910390fd5b83606001358460400135610f849190613aff565b925082341015610fc9576040517f08c379a0000000000000000000000000000000000000000000000000000000008152600401610fc090613b8d565b60405180910390fd5b610fe9823387876040013560405180602001604052806000815250611969565b8173ffffffffffffffffffffffffffffffffffffffff166108fc849081150290604051600060405180830381858888f1935050505015801561102f573d6000803e3d6000fd5b5083604001358160020154036110c557600760008373ffffffffffffffffffffffffffffffffffffffff1673ffffffffffffffffffffffffffffffffffffffff168152602001908152602001600020600080820160006101000a81549073ffffffffffffffffffffffffffffffffffffffff021916905560018201600090556002820160009055600382016000905550506110e5565b83604001358160020160008282546110dd9190613bad565b925050819055505b8173ffffffffffffffffffffffffffffffffffffffff163373ffffffffffffffffffffffffffffffffffffffff16867f06a468bc780ea805d80491ed9f300c36122c94bcb715acc7a8606f510f6c2ecd8760400135886060013560405161114d9291906137bb565b60405180910390a4600083346111639190613bad565b905060008111156111b6573373ffffffffffffffffffffffffffffffffffffffff166108fc829081150290604051600060405180830381858888f193505050501580156111b4573d6000803e3d6000fd5b505b505050505050565b6111d06111c9611b01565b8383611e0f565b5050565b6006600084815260200190815260200160002060009054906101000a900460ff16611234576040517f08c379a000000000000000000000000000000000000000000000000000000000815260040161122b906134c7565b60405180910390fd5b8161123f3385610513565b1015611280576040517f08c379a000000000000000000000000000000000000000000000000000000000815260040161127790613533565b60405180910390fd5b600081116112c3576040517f08c379a00000000000000000000000000000000000000000000000000000000081526004016112ba9061359f565b60405180910390fd5b6000600760003373ffffffffffffffffffffffffffffffffffffffff1673ffffffffffffffffffffffffffffffffffffffff1681526020019081526020016000206002015414611348576040517f08c379a000000000000000000000000000000000000000000000000000000000815260040161133f90613c2d565b60405180910390fd5b60405180608001604052803373ffffffffffffffffffffffffffffffffffffffff16815260200184815260200183815260200182815250600760003373ffffffffffffffffffffffffffffffffffffffff1673ffffffffffffffffffffffffffffffffffffffff16815260200190815260200160002060008201518160000160006101000a81548173ffffffffffffffffffffffffffffffffffffffff021916908373ffffffffffffffffffffffffffffffffffffffff1602179055506020820151816001015560408201518160020155606082015181600301559050503373ffffffffffffffffffffffffffffffffffffffff16837f8098ce837a1e7f11070ca4eb3fecff815014e0245b2788d11377149251c2b55b848460405161146f9291906137bb565b60405180910390a3505050565b806114873384610513565b10156114c8576040517f08c379a00000000000000000000000000000000000000000000000000000000081526004016114bf90613c99565b60405180910390fd5b6114e43384848460405180602001604052806000815250611969565b8273ffffffffffffffffffffffffffffffffffffffff163373ffffffffffffffffffffffffffffffffffffffff167fa26bbe54fa0532e401916ac988b0e6d0a482b1e3de4a53dd1718aba39eeae7ad84846040516115439291906137bb565b60405180910390a3505050565b60066020528060005260406000206000915054906101000a900460ff1681565b6000600160008473ffffffffffffffffffffffffffffffffffffffff1673ffffffffffffffffffffffffffffffffffffffff16815260200190815260200160002060008373ffffffffffffffffffffffffffffffffffffffff1673ffffffffffffffffffffffffffffffffffffffff16815260200190815260200160002060009054906101000a900460ff16905092915050565b6006600084815260200190815260200160002060009054906101000a900460ff16611664576040517f08c379a000000000000000000000000000000000000000000000000000000000815260040161165b906134c7565b60405180910390fd5b8161166f3385610513565b10156116b0576040517f08c379a00000000000000000000000000000000000000000000000000000000081526004016116a790613d2b565b60405180910390fd5b6000600760003373ffffffffffffffffffffffffffffffffffffffff1673ffffffffffffffffffffffffffffffffffffffff1681526020019081526020016000206040518060800160405290816000820160009054906101000a900473ffffffffffffffffffffffffffffffffffffffff1673ffffffffffffffffffffffffffffffffffffffff1673ffffffffffffffffffffffffffffffffffffffff1681526020016001820154815260200160028201548152602001600382015481525050905060008160400151116117b9576040517f08c379a00000000000000000000000000000000000000000000000000000000081526004016117b090613d97565b60405180910390fd5b838160200151146117ff576040517f08c379a00000000000000000000000000000000000000000000000000000000081526004016117f690613709565b60405180910390fd5b82816040015114611845576040517f08c379a000000000000000000000000000000000000000000000000000000000815260040161183c90613e03565b60405180910390fd5b8181606001511461188b576040517f08c379a000000000000000000000000000000000000000000000000000000000815260040161188290613a73565b60405180910390fd5b600760003373ffffffffffffffffffffffffffffffffffffffff1673ffffffffffffffffffffffffffffffffffffffff168152602001908152602001600020600080820160006101000a81549073ffffffffffffffffffffffffffffffffffffffff021916905560018201600090556002820160009055600382016000905550503373ffffffffffffffffffffffffffffffffffffffff16847f6b07c5730a95c41d70145025b4d89a30daef58b875d933b7be46e254a34aa0a585856040516119559291906137bb565b60405180910390a350505050565b60045481565b6000611973611b01565b90508073ffffffffffffffffffffffffffffffffffffffff168673ffffffffffffffffffffffffffffffffffffffff16141580156119b857506119b68682611570565b155b156119fc5780866040517fe237d9220000000000000000000000000000000000000000000000000000000081526004016119f39291906137e4565b60405180910390fd5b611a098686868686611f7f565b505050505050565b611a19611c01565b600073ffffffffffffffffffffffffffffffffffffffff168173ffffffffffffffffffffffffffffffffffffffff1603611a8b5760006040517f1e4fbdf7000000000000000000000000000000000000000000000000000000008152600401611a82919061316e565b60405180910390fd5b611a9481611d49565b50565b60007f01ffc9a7000000000000000000000000000000000000000000000000000000007bffffffffffffffffffffffffffffffffffffffffffffffffffffffff1916827bffffffffffffffffffffffffffffffffffffffffffffffffffffffff1916149050919050565b600033905090565b600073ffffffffffffffffffffffffffffffffffffffff168473ffffffffffffffffffffffffffffffffffffffff1603611b7b5760006040517f57f447ce000000000000000000000000000000000000000000000000000000008152600401611b72919061316e565b60405180910390fd5b600073ffffffffffffffffffffffffffffffffffffffff168573ffffffffffffffffffffffffffffffffffffffff1603611bed5760006040517f01a83514000000000000000000000000000000000000000000000000000000008152600401611be4919061316e565b60405180910390fd5b611bfa858585858561208a565b5050505050565b611c09611b01565b73ffffffffffffffffffffffffffffffffffffffff16611c27610c82565b73ffffffffffffffffffffffffffffffffffffffff1614611c8657611c4a611b01565b6040517f118cdaa7000000000000000000000000000000000000000000000000000000008152600401611c7d919061316e565b60405180910390fd5b565b600073ffffffffffffffffffffffffffffffffffffffff168473ffffffffffffffffffffffffffffffffffffffff1603611cfa5760006040517f57f447ce000000000000000000000000000000000000000000000000000000008152600401611cf1919061316e565b60405180910390fd5b600080611d07858561213c565b91509150611d1960008784848761208a565b505050505050565b600060208202602084010151905092915050565b600060208202602084010151905092915050565b6000600360009054906101000a900473ffffffffffffffffffffffffffffffffffffffff16905081600360006101000a81548173ffffffffffffffffffffffffffffffffffffffff021916908373ffffffffffffffffffffffffffffffffffffffff1602179055508173ffffffffffffffffffffffffffffffffffffffff168173ffffffffffffffffffffffffffffffffffffffff167f8be0079c531659141344cd1fd0a4f28419497f9722a3daafe3b4186f6b6457e060405160405180910390a35050565b600073ffffffffffffffffffffffffffffffffffffffff168273ffffffffffffffffffffffffffffffffffffffff1603611e815760006040517fced3e100000000000000000000000000000000000000000000000000000000008152600401611e78919061316e565b60405180910390fd5b80600160008573ffffffffffffffffffffffffffffffffffffffff1673ffffffffffffffffffffffffffffffffffffffff16815260200190815260200160002060008473ffffffffffffffffffffffffffffffffffffffff1673ffffffffffffffffffffffffffffffffffffffff16815260200190815260200160002060006101000a81548160ff0219169083151502179055508173ffffffffffffffffffffffffffffffffffffffff168373ffffffffffffffffffffffffffffffffffffffff167f17307eab39ab6107e8899845ad3d59bd9653f200f220920489ca2b5937696c3183604051611f729190612a2e565b60405180910390a3505050565b600073ffffffffffffffffffffffffffffffffffffffff168473ffffffffffffffffffffffffffffffffffffffff1603611ff15760006040517f57f447ce000000000000000000000000000000000000000000000000000000008152600401611fe8919061316e565b60405180910390fd5b600073ffffffffffffffffffffffffffffffffffffffff168573ffffffffffffffffffffffffffffffffffffffff16036120635760006040517f01a8351400000000000000000000000000000000000000000000000000000000815260040161205a919061316e565b60405180910390fd5b600080612070858561213c565b91509150612081878784848761208a565b50505050505050565b6120968585858561216c565b600073ffffffffffffffffffffffffffffffffffffffff168473ffffffffffffffffffffffffffffffffffffffff16146121355760006120d4611b01565b905060018451036121245760006120f5600086611d3590919063ffffffff16565b9050600061210d600086611d3590919063ffffffff16565b905061211d838989858589612514565b5050612133565b6121328187878787876126c8565b5b505b5050505050565b60608060405191506001825283602083015260408201905060018152826020820152604081016040529250929050565b80518251146121b657815181516040517f5b0599910000000000000000000000000000000000000000000000000000000081526004016121ad9291906137bb565b60405180910390fd5b60006121c0611b01565b905060005b83518110156123cf5760006121e38286611d3590919063ffffffff16565b905060006121fa8386611d3590919063ffffffff16565b9050600073ffffffffffffffffffffffffffffffffffffffff168873ffffffffffffffffffffffffffffffffffffffff161461232757600080600084815260200190815260200160002060008a73ffffffffffffffffffffffffffffffffffffffff1673ffffffffffffffffffffffffffffffffffffffff168152602001908152602001600020549050818110156122cf57888183856040517f03dee4c50000000000000000000000000000000000000000000000000000000081526004016122c694939291906131b6565b60405180910390fd5b81810360008085815260200190815260200160002060008b73ffffffffffffffffffffffffffffffffffffffff1673ffffffffffffffffffffffffffffffffffffffff16815260200190815260200160002081905550505b600073ffffffffffffffffffffffffffffffffffffffff168773ffffffffffffffffffffffffffffffffffffffff16146123c2578060008084815260200190815260200160002060008973ffffffffffffffffffffffffffffffffffffffff1673ffffffffffffffffffffffffffffffffffffffff16815260200190815260200160002060008282546123ba9190613e23565b925050819055505b50508060010190506121c5565b50600183510361248e5760006123ef600085611d3590919063ffffffff16565b90506000612407600085611d3590919063ffffffff16565b90508573ffffffffffffffffffffffffffffffffffffffff168773ffffffffffffffffffffffffffffffffffffffff168473ffffffffffffffffffffffffffffffffffffffff167fc3d58168c5ae7397731d063d5bbf3d657854427343f4c083240f7aacaa2d0f62858560405161247f9291906137bb565b60405180910390a4505061250d565b8373ffffffffffffffffffffffffffffffffffffffff168573ffffffffffffffffffffffffffffffffffffffff168273ffffffffffffffffffffffffffffffffffffffff167f4a39dc06d4c0dbc64b70af90fd698a233a518aa5d07e595d983b8c0526c8f7fb8686604051612504929190613e57565b60405180910390a45b5050505050565b60008473ffffffffffffffffffffffffffffffffffffffff163b11156126c0578373ffffffffffffffffffffffffffffffffffffffff1663f23a6e6187878686866040518663ffffffff1660e01b8152600401612575959493929190613ee3565b6020604051808303816000875af19250505080156125b157506040513d601f19601f820116820180604052508101906125ae9190613f52565b60015b612635573d80600081146125e1576040519150601f19603f3d011682016040523d82523d6000602084013e6125e6565b606091505b50600081510361262d57846040517f57f447ce000000000000000000000000000000000000000000000000000000008152600401612624919061316e565b60405180910390fd5b805181602001fd5b63f23a6e6160e01b7bffffffffffffffffffffffffffffffffffffffffffffffffffffffff1916817bffffffffffffffffffffffffffffffffffffffffffffffffffffffff1916146126be57846040517f57f447ce0000000000000000000000000000000000000000000000000000000081526004016126b5919061316e565b60405180910390fd5b505b505050505050565b60008473ffffffffffffffffffffffffffffffffffffffff163b1115612874578373ffffffffffffffffffffffffffffffffffffffff1663bc197c8187878686866040518663ffffffff1660e01b8152600401612729959493929190613f7f565b6020604051808303816000875af192505050801561276557506040513d601f19601f820116820180604052508101906127629190613f52565b60015b6127e9573d8060008114612795576040519150601f19603f3d011682016040523d82523d6000602084013e61279a565b606091505b5060008151036127e157846040517f57f447ce0000000000000000000000000000000000000000000000000000000081526004016127d8919061316e565b60405180910390fd5b805181602001fd5b63bc197c8160e01b7bffffffffffffffffffffffffffffffffffffffffffffffffffffffff1916817bffffffffffffffffffffffffffffffffffffffffffffffffffffffff19161461287257846040517f57f447ce000000000000000000000000000000000000000000000000000000008152600401612869919061316e565b60405180910390fd5b505b505050505050565b6000604051905090565b600080fd5b600080fd5b600073ffffffffffffffffffffffffffffffffffffffff82169050919050565b60006128bb82612890565b9050919050565b6128cb816128b0565b81146128d657600080fd5b50565b6000813590506128e8816128c2565b92915050565b6000819050919050565b612901816128ee565b811461290c57600080fd5b50565b60008135905061291e816128f8565b92915050565b6000806040838503121561293b5761293a612886565b5b6000612949858286016128d9565b925050602061295a8582860161290f565b9150509250929050565b61296d816128ee565b82525050565b60006020820190506129886000830184612964565b92915050565b60007fffffffff0000000000000000000000000000000000000000000000000000000082169050919050565b6129c38161298e565b81146129ce57600080fd5b50565b6000813590506129e0816129ba565b92915050565b6000602082840312156129fc576129fb612886565b5b6000612a0a848285016129d1565b91505092915050565b60008115159050919050565b612a2881612a13565b82525050565b6000602082019050612a436000830184612a1f565b92915050565b600060208284031215612a5f57612a5e612886565b5b6000612a6d8482850161290f565b91505092915050565b600081519050919050565b600082825260208201905092915050565b60005b83811015612ab0578082015181840152602081019050612a95565b60008484015250505050565b6000601f19601f8301169050919050565b6000612ad882612a76565b612ae28185612a81565b9350612af2818560208601612a92565b612afb81612abc565b840191505092915050565b60006020820190508181036000830152612b208184612acd565b905092915050565b600080600060608486031215612b4157612b40612886565b5b6000612b4f8682870161290f565b9350506020612b608682870161290f565b9250506040612b718682870161290f565b9150509250925092565b600080fd5b7f4e487b7100000000000000000000000000000000000000000000000000000000600052604160045260246000fd5b612bb882612abc565b810181811067ffffffffffffffff82111715612bd757612bd6612b80565b5b80604052505050565b6000612bea61287c565b9050612bf68282612baf565b919050565b600067ffffffffffffffff821115612c1657612c15612b80565b5b602082029050602081019050919050565b600080fd5b6000612c3f612c3a84612bfb565b612be0565b90508083825260208201905060208402830185811115612c6257612c61612c27565b5b835b81811015612c8b5780612c77888261290f565b845260208401935050602081019050612c64565b5050509392505050565b600082601f830112612caa57612ca9612b7b565b5b8135612cba848260208601612c2c565b91505092915050565b600080fd5b600067ffffffffffffffff821115612ce357612ce2612b80565b5b612cec82612abc565b9050602081019050919050565b82818337600083830152505050565b6000612d1b612d1684612cc8565b612be0565b905082815260208101848484011115612d3757612d36612cc3565b5b612d42848285612cf9565b509392505050565b600082601f830112612d5f57612d5e612b7b565b5b8135612d6f848260208601612d08565b91505092915050565b600080600080600060a08688031215612d9457612d93612886565b5b6000612da2888289016128d9565b9550506020612db3888289016128d9565b945050604086013567ffffffffffffffff811115612dd457612dd361288b565b5b612de088828901612c95565b935050606086013567ffffffffffffffff811115612e0157612e0061288b565b5b612e0d88828901612c95565b925050608086013567ffffffffffffffff811115612e2e57612e2d61288b565b5b612e3a88828901612d4a565b9150509295509295909350565b600067ffffffffffffffff821115612e6257612e61612b80565b5b612e6b82612abc565b9050602081019050919050565b6000612e8b612e8684612e47565b612be0565b905082815260208101848484011115612ea757612ea6612cc3565b5b612eb2848285612cf9565b509392505050565b600082601f830112612ecf57612ece612b7b565b5b8135612edf848260208601612e78565b91505092915050565b60008060408385031215612eff57612efe612886565b5b600083013567ffffffffffffffff811115612f1d57612f1c61288b565b5b612f2985828601612eba565b9250506020612f3a8582860161290f565b9150509250929050565b600067ffffffffffffffff821115612f5f57612f5e612b80565b5b602082029050602081019050919050565b6000612f83612f7e84612f44565b612be0565b90508083825260208201905060208402830185811115612fa657612fa5612c27565b5b835b81811015612fcf5780612fbb88826128d9565b845260208401935050602081019050612fa8565b5050509392505050565b600082601f830112612fee57612fed612b7b565b5b8135612ffe848260208601612f70565b91505092915050565b6000806040838503121561301e5761301d612886565b5b600083013567ffffffffffffffff81111561303c5761303b61288b565b5b61304885828601612fd9565b925050602083013567ffffffffffffffff8111156130695761306861288b565b5b61307585828601612c95565b9150509250929050565b600081519050919050565b600082825260208201905092915050565b6000819050602082019050919050565b6130b4816128ee565b82525050565b60006130c683836130ab565b60208301905092915050565b6000602082019050919050565b60006130ea8261307f565b6130f4818561308a565b93506130ff8361309b565b8060005b8381101561313057815161311788826130ba565b9750613122836130d2565b925050600181019050613103565b5085935050505092915050565b6000602082019050818103600083015261315781846130df565b905092915050565b613168816128b0565b82525050565b6000602082019050613183600083018461315f565b92915050565b60006020828403121561319f5761319e612886565b5b60006131ad848285016128d9565b91505092915050565b60006080820190506131cb600083018761315f565b6131d86020830186612964565b6131e56040830185612964565b6131f26060830184612964565b95945050505050565b600080fd5b600060808284031215613216576132156131fb565b5b81905092915050565b60008060a0838503121561323657613235612886565b5b60006132448582860161290f565b925050602061325585828601613200565b9150509250929050565b61326881612a13565b811461327357600080fd5b50565b6000813590506132858161325f565b92915050565b600080604083850312156132a2576132a1612886565b5b60006132b0858286016128d9565b92505060206132c185828601613276565b9150509250929050565b6000806000606084860312156132e4576132e3612886565b5b60006132f2868287016128d9565b93505060206133038682870161290f565b92505060406133148682870161290f565b9150509250925092565b6000806040838503121561333557613334612886565b5b6000613343858286016128d9565b9250506020613354858286016128d9565b9150509250929050565b600080600080600060a0868803121561337a57613379612886565b5b6000613388888289016128d9565b9550506020613399888289016128d9565b94505060406133aa8882890161290f565b93505060606133bb8882890161290f565b925050608086013567ffffffffffffffff8111156133dc576133db61288b565b5b6133e888828901612d4a565b9150509295509295909350565b7f4e487b7100000000000000000000000000000000000000000000000000000000600052602260045260246000fd5b6000600282049050600182168061343c57607f821691505b60208210810361344f5761344e6133f5565b5b50919050565b7f4c616e64206d757374206265206672616374696f6e616c697a6564206669727360008201527f7400000000000000000000000000000000000000000000000000000000000000602082015250565b60006134b1602183612a81565b91506134bc82613455565b604082019050919050565b600060208201905081810360008301526134e0816134a4565b9050919050565b7f496e73756666696369656e7420746f6b656e2062616c616e6365000000000000600082015250565b600061351d601a83612a81565b9150613528826134e7565b602082019050919050565b6000602082019050818103600083015261354c81613510565b9050919050565b7f5072696365206d7573742062652067726561746572207468616e203000000000600082015250565b6000613589601c83612a81565b915061359482613553565b602082019050919050565b600060208201905081810360008301526135b88161357c565b9050919050565b7f416d6f756e74206d7573742062652067726561746572207468616e2030000000600082015250565b60006135f5601d83612a81565b9150613600826135bf565b602082019050919050565b60006020820190508181036000830152613624816135e8565b9050919050565b7f446f6573206e6f74206861766520616e20616374697665206c697374696e672e60008201527f204c69737420546f6b656e20666f722073616c652e0000000000000000000000602082015250565b6000613687603583612a81565b91506136928261362b565b604082019050919050565b600060208201905081810360008301526136b68161367a565b9050919050565b7f4c616e6420494420646f65736e2774206d61746368206c697374696e67000000600082015250565b60006136f3601d83612a81565b91506136fe826136bd565b602082019050919050565b60006020820190508181036000830152613722816136e6565b9050919050565b7f4f6e6c79207468652073656c6c65722063616e2075706461746520746865206c60008201527f697374696e670000000000000000000000000000000000000000000000000000602082015250565b6000613785602683612a81565b915061379082613729565b604082019050919050565b600060208201905081810360008301526137b481613778565b9050919050565b60006040820190506137d06000830185612964565b6137dd6020830184612964565b9392505050565b60006040820190506137f9600083018561315f565b613806602083018461315f565b9392505050565b7f4e487b7100000000000000000000000000000000000000000000000000000000600052601160045260246000fd5b6000613847826128ee565b91507fffffffffffffffffffffffffffffffffffffffffffffffffffffffffffffffff82036138795761387861380d565b5b600182019050919050565b60006040820190506138996000830185612964565b81810360208301526138ab8184612acd565b90509392505050565b7f4e487b7100000000000000000000000000000000000000000000000000000000600052603260045260246000fd5b7f496e76616c696420707269636500000000000000000000000000000000000000600082015250565b6000613919600d83612a81565b9150613924826138e3565b602082019050919050565b600060208201905081810360008301526139488161390c565b9050919050565b7f53656c6c657220686173206e6f20616374697665206c697374696e6700000000600082015250565b6000613985601c83612a81565b91506139908261394f565b602082019050919050565b600060208201905081810360008301526139b481613978565b9050919050565b7f4f7264657220616d6f756e742065786365656473206c697374696e6700000000600082015250565b60006139f1601c83612a81565b91506139fc826139bb565b602082019050919050565b60006020820190508181036000830152613a20816139e4565b9050919050565b7f507269636520646f65736e2774206d61746368206c697374696e670000000000600082015250565b6000613a5d601b83612a81565b9150613a6882613a27565b602082019050919050565b60006020820190508181036000830152613a8c81613a50565b9050919050565b7f53656c6c65722068617320696e73756666696369656e742062616c616e636500600082015250565b6000613ac9601f83612a81565b9150613ad482613a93565b602082019050919050565b60006020820190508181036000830152613af881613abc565b9050919050565b6000613b0a826128ee565b9150613b15836128ee565b9250828202613b23816128ee565b91508282048414831517613b3a57613b3961380d565b5b5092915050565b7f496e73756666696369656e74207061796d656e74000000000000000000000000600082015250565b6000613b77601483612a81565b9150613b8282613b41565b602082019050919050565b60006020820190508181036000830152613ba681613b6a565b9050919050565b6000613bb8826128ee565b9150613bc3836128ee565b9250828203905081811115613bdb57613bda61380d565b5b92915050565b7f416c72656164792068617320616e20616374697665206c697374696e67000000600082015250565b6000613c17601d83612a81565b9150613c2282613be1565b602082019050919050565b60006020820190508181036000830152613c4681613c0a565b9050919050565b7f496e73756666696369656e742062616c616e6365000000000000000000000000600082015250565b6000613c83601483612a81565b9150613c8e82613c4d565b602082019050919050565b60006020820190508181036000830152613cb281613c76565b9050919050565b7f4d757374207374696c6c206f776e2074686520746f6b656e7320746f2063616e60008201527f63656c206c697374696e67000000000000000000000000000000000000000000602082015250565b6000613d15602b83612a81565b9150613d2082613cb9565b604082019050919050565b60006020820190508181036000830152613d4481613d08565b9050919050565b7f4e6f20616374697665206c697374696e6720666f756e64000000000000000000600082015250565b6000613d81601783612a81565b9150613d8c82613d4b565b602082019050919050565b60006020820190508181036000830152613db081613d74565b9050919050565b7f416d6f756e7420646f65736e2774206d61746368206c697374696e6700000000600082015250565b6000613ded601c83612a81565b9150613df882613db7565b602082019050919050565b60006020820190508181036000830152613e1c81613de0565b9050919050565b6000613e2e826128ee565b9150613e39836128ee565b9250828201905080821115613e5157613e5061380d565b5b92915050565b60006040820190508181036000830152613e7181856130df565b90508181036020830152613e8581846130df565b90509392505050565b600081519050919050565b600082825260208201905092915050565b6000613eb582613e8e565b613ebf8185613e99565b9350613ecf818560208601612a92565b613ed881612abc565b840191505092915050565b600060a082019050613ef8600083018861315f565b613f05602083018761315f565b613f126040830186612964565b613f1f6060830185612964565b8181036080830152613f318184613eaa565b90509695505050505050565b600081519050613f4c816129ba565b92915050565b600060208284031215613f6857613f67612886565b5b6000613f7684828501613f3d565b91505092915050565b600060a082019050613f94600083018861315f565b613fa1602083018761315f565b8181036040830152613fb381866130df565b90508181036060830152613fc781856130df565b90508181036080830152613fdb8184613eaa565b9050969550505050505056fea26469706673582212204c3628e4fcf7dd6f18880840a72a5d89681728426710c928dfcdf4cad6db981b64736f6c634300081c0033",
  "linkReferences": {},
  "deployedLinkReferences": {}
}