{
  "_format": "hh-sol-artifact-1",
  "contractName": "Land",
  "sourceName": "contracts/Land.sol",
  "abi": [
    {
      "inputs": [],
      "stateMutability": "nonpayable",
      "type": "constructor"
    },
    {
      "inputs": [
        {
          "internalType": "address",
          "name": "sender",
          "type": "address"
        },
        {
          "internalType": "uint256",
          "name": "balance",
          "type": "uint256"
        },
        {
          "internalType": "uint256",
          "name": "needed",
          "type": "uint256"
        },
        {
          "internalType": "uint256",
          "name": "tokenId",
          "type": "uint256"
        }
      ],
      "name": "ERC1155InsufficientBalance",
      "type": "error"
    },
    {
      "inputs": [
        {
          "internalType": "address",
          "name": "approver",
          "type": "address"
        }
      ],
      "name": "ERC1155InvalidApprover",
      "type": "error"
    },
    {
      "inputs": [
        {
          "internalType": "uint256",
          "name": "idsLength",
          "type": "uint256"
        },
        {
          "internalType": "uint256",
          "name": "valuesLength",
          "type": "uint256"
        }
      ],
      "name": "ERC1155InvalidArrayLength",
      "type": "error"
    },
    {
      "inputs": [
        {
          "internalType": "address",
          "name": "operator",
          "type": "address"
        }
      ],
      "name": "ERC1155InvalidOperator",
      "type": "error"
    },
    {
      "inputs": [
        {
          "internalType": "address",
          "name": "receiver",
          "type": "address"
        }
      ],
      "name": "ERC1155InvalidReceiver",
      "type": "error"
    },
    {
      "inputs": [
        {
          "internalType": "address",
          "name": "sender",
          "type": "address"
        }
      ],
      "name": "ERC1155InvalidSender",
      "type": "error"
    },
    {
      "inputs": [
        {
          "internalType": "address",
          "name": "operator",
          "type": "address"
        },
        {
          "internalType": "address",
          "name": "owner",
          "type": "address"
        }
      ],
      "name": "ERC1155MissingApprovalForAll",
      "type": "error"
    },
    {
      "inputs": [
        {
          "internalType": "address",
          "name": "owner",
          "type": "address"
        }
      ],
      "name": "OwnableInvalidOwner",
      "type": "error"
    },
    {
      "inputs": [
        {
          "internalType": "address",
          "name": "account",
          "type": "address"
        }
      ],
      "name": "OwnableUnauthorizedAccount",
      "type": "error"
    },
    {
      "anonymous": false,
      "inputs": [
        {
          "indexed": true,
          "internalType": "address",
          "name": "account",
          "type": "address"
        },
        {
          "indexed": true,
          "internalType": "address",
          "name": "operator",
          "type": "address"
        },
        {
          "indexed": false,
          "internalType": "bool",
          "name": "approved",
          "type": "bool"
        }
      ],
      "name": "ApprovalForAll",
      "type": "event"
    },
    {
      "anonymous": false,
      "inputs": [
        {
          "indexed": true,
          "internalType": "uint256",
          "name": "landId",
          "type": "uint256"
        },
        {
          "indexed": false,
          "internalType": "string",
          "name": "name",
          "type": "string"
        },
        {
          "indexed": false,
          "internalType": "uint256",
          "name": "numberOfFractions",
          "type": "uint256"
        },
        {
          "indexed": false,
          "internalType": "string",
          "name": "metadataURI",
          "type": "string"
        }
      ],
      "name": "LandFractionalized",
      "type": "event"
    },
    {
      "anonymous": false,
      "inputs": [
        {
          "indexed": true,
          "internalType": "address",
          "name": "previousOwner",
          "type": "address"
        },
        {
          "indexed": true,
          "internalType": "address",
          "name": "newOwner",
          "type": "address"
        }
      ],
      "name": "OwnershipTransferred",
      "type": "event"
    },
    {
      "anonymous": false,
      "inputs": [
        {
          "indexed": true,
          "internalType": "uint256",
          "name": "landId",
          "type": "uint256"
        },
        {
          "indexed": true,
          "internalType": "address",
          "name": "seller",
          "type": "address"
        },
        {
          "indexed": false,
          "internalType": "uint256",
          "name": "amount",
          "type": "uint256"
        },
        {
          "indexed": false,
          "internalType": "uint256",
          "name": "pricePerToken",
          "type": "uint256"
        }
      ],
      "name": "TokensListedForSale",
      "type": "event"
    },
    {
      "anonymous": false,
      "inputs": [
        {
          "indexed": true,
          "internalType": "uint256",
          "name": "landId",
          "type": "uint256"
        },
        {
          "indexed": true,
          "internalType": "address",
          "name": "seller",
          "type": "address"
        },
        {
          "indexed": false,
          "internalType": "uint256",
          "name": "amount",
          "type": "uint256"
        },
        {
          "indexed": false,
          "internalType": "uint256",
          "name": "pricePerToken",
          "type": "uint256"
        }
      ],
      "name": "TokensListingCancelled",
      "type": "event"
    },
    {
      "anonymous": false,
      "inputs": [
        {
          "indexed": true,
          "internalType": "uint256",
          "name": "landId",
          "type": "uint256"
        },
        {
          "indexed": true,
          "internalType": "address",
          "name": "buyer",
          "type": "address"
        },
        {
          "indexed": true,
          "internalType": "address",
          "name": "seller",
          "type": "address"
        },
        {
          "indexed": false,
          "internalType": "uint256",
          "name": "amount",
          "type": "uint256"
        },
        {
          "indexed": false,
          "internalType": "uint256",
          "name": "pricePerToken",
          "type": "uint256"
        }
      ],
      "name": "TokensPurchased",
      "type": "event"
    },
    {
      "anonymous": false,
      "inputs": [
        {
          "indexed": true,
          "internalType": "address",
          "name": "operator",
          "type": "address"
        },
        {
          "indexed": true,
          "internalType": "address",
          "name": "from",
          "type": "address"
        },
        {
          "indexed": true,
          "internalType": "address",
          "name": "to",
          "type": "address"
        },
        {
          "indexed": false,
          "internalType": "uint256[]",
          "name": "ids",
          "type": "uint256[]"
        },
        {
          "indexed": false,
          "internalType": "uint256[]",
          "name": "values",
          "type": "uint256[]"
        }
      ],
      "name": "TransferBatch",
      "type": "event"
    },
    {
      "anonymous": false,
      "inputs": [
        {
          "indexed": true,
          "internalType": "address",
          "name": "from",
          "type": "address"
        },
        {
          "indexed": true,
          "internalType": "address",
          "name": "to",
          "type": "address"
        },
        {
          "indexed": false,
          "internalType": "uint256",
          "name": "landId",
          "type": "uint256"
        },
        {
          "indexed": false,
          "internalType": "uint256",
          "name": "amount",
          "type": "uint256"
        }
      ],
      "name": "TransferFractionalTokens",
      "type": "event"
    },
    {
      "anonymous": false,
      "inputs": [
        {
          "indexed": true,
          "internalType": "address",
          "name": "operator",
          "type": "address"
        },
        {
          "indexed": true,
          "internalType": "address",
          "name": "from",
          "type": "address"
        },
        {
          "indexed": true,
          "internalType": "address",
          "name": "to",
          "type": "address"
        },
        {
          "indexed": false,
          "internalType": "uint256",
          "name": "id",
          "type": "uint256"
        },
        {
          "indexed": false,
          "internalType": "uint256",
          "name": "value",
          "type": "uint256"
        }
      ],
      "name": "TransferSingle",
      "type": "event"
    },
    {
      "anonymous": false,
      "inputs": [
        {
          "indexed": false,
          "internalType": "string",
          "name": "value",
          "type": "string"
        },
        {
          "indexed": true,
          "internalType": "uint256",
          "name": "id",
          "type": "uint256"
        }
      ],
      "name": "URI",
      "type": "event"
    },
    {
      "inputs": [
        {
          "internalType": "address",
          "name": "",
          "type": "address"
        }
      ],
      "name": "activeSaleListings",
      "outputs": [
        {
          "internalType": "address",
          "name": "seller",
          "type": "address"
        },
        {
          "internalType": "uint256",
          "name": "landId",
          "type": "uint256"
        },
        {
          "internalType": "uint256",
          "name": "amount",
          "type": "uint256"
        },
        {
          "internalType": "uint256",
          "name": "pricePerToken",
          "type": "uint256"
        }
      ],
      "stateMutability": "view",
      "type": "function"
    },
    {
      "inputs": [
        {
          "internalType": "address",
          "name": "account",
          "type": "address"
        },
        {
          "internalType": "uint256",
          "name": "id",
          "type": "uint256"
        }
      ],
      "name": "balanceOf",
      "outputs": [
        {
          "internalType": "uint256",
          "name": "",
          "type": "uint256"
        }
      ],
      "stateMutability": "view",
      "type": "function"
    },
    {
      "inputs": [
        {
          "internalType": "address[]",
          "name": "accounts",
          "type": "address[]"
        },
        {
          "internalType": "uint256[]",
          "name": "ids",
          "type": "uint256[]"
        }
      ],
      "name": "balanceOfBatch",
      "outputs": [
        {
          "internalType": "uint256[]",
          "name": "",
          "type": "uint256[]"
        }
      ],
      "stateMutability": "view",
      "type": "function"
    },
    {
      "inputs": [
        {
          "internalType": "uint256",
          "name": "landId",
          "type": "uint256"
        },
        {
          "internalType": "uint256",
          "name": "amount",
          "type": "uint256"
        },
        {
          "internalType": "uint256",
          "name": "pricePerToken",
          "type": "uint256"
        }
      ],
      "name": "cancelTokenListing",
      "outputs": [],
      "stateMutability": "nonpayable",
      "type": "function"
    },
    {
      "inputs": [
        {
          "internalType": "string",
          "name": "name",
          "type": "string"
        },
        {
          "internalType": "uint256",
          "name": "numberOfFractions",
          "type": "uint256"
        },
        {
          "internalType": "string",
          "name": "metadataURI",
          "type": "string"
        }
      ],
      "name": "fractionalizeLand",
      "outputs": [],
      "stateMutability": "nonpayable",
      "type": "function"
    },
    {
      "inputs": [
        {
          "internalType": "address",
          "name": "account",
          "type": "address"
        },
        {
          "internalType": "address",
          "name": "operator",
          "type": "address"
        }
      ],
      "name": "isApprovedForAll",
      "outputs": [
        {
          "internalType": "bool",
          "name": "",
          "type": "bool"
        }
      ],
      "stateMutability": "view",
      "type": "function"
    },
    {
      "inputs": [
        {
          "internalType": "uint256",
          "name": "",
          "type": "uint256"
        }
      ],
      "name": "isFractionalized",
      "outputs": [
        {
          "internalType": "bool",
          "name": "",
          "type": "bool"
        }
      ],
      "stateMutability": "view",
      "type": "function"
    },
    {
      "inputs": [],
      "name": "landIdCounter",
      "outputs": [
        {
          "internalType": "uint256",
          "name": "",
          "type": "uint256"
        }
      ],
      "stateMutability": "view",
      "type": "function"
    },
    {
      "inputs": [
        {
          "internalType": "uint256",
          "name": "landId",
          "type": "uint256"
        },
        {
          "internalType": "uint256",
          "name": "amount",
          "type": "uint256"
        },
        {
          "internalType": "uint256",
          "name": "pricePerToken",
          "type": "uint256"
        }
      ],
      "name": "listTokensForSale",
      "outputs": [],
      "stateMutability": "nonpayable",
      "type": "function"
    },
    {
      "inputs": [],
      "name": "owner",
      "outputs": [
        {
          "internalType": "address",
          "name": "",
          "type": "address"
        }
      ],
      "stateMutability": "view",
      "type": "function"
    },
    {
      "inputs": [
        {
          "internalType": "uint256",
          "name": "landId",
          "type": "uint256"
        },
        {
          "components": [
            {
              "internalType": "address",
              "name": "seller",
              "type": "address"
            },
            {
              "internalType": "uint256",
              "name": "landId",
              "type": "uint256"
            },
            {
              "internalType": "uint256",
              "name": "amount",
              "type": "uint256"
            },
            {
              "internalType": "uint256",
              "name": "pricePerToken",
              "type": "uint256"
            }
          ],
          "internalType": "struct Land.SaleOrder",
          "name": "order",
          "type": "tuple"
        }
      ],
      "name": "purchaseTokens",
      "outputs": [],
      "stateMutability": "payable",
      "type": "function"
    },
    {
      "inputs": [],
      "name": "renounceOwnership",
      "outputs": [],
      "stateMutability": "nonpayable",
      "type": "function"
    },
    {
      "inputs": [
        {
          "internalType": "address",
          "name": "from",
          "type": "address"
        },
        {
          "internalType": "address",
          "name": "to",
          "type": "address"
        },
        {
          "internalType": "uint256[]",
          "name": "ids",
          "type": "uint256[]"
        },
        {
          "internalType": "uint256[]",
          "name": "values",
          "type": "uint256[]"
        },
        {
          "internalType": "bytes",
          "name": "data",
          "type": "bytes"
        }
      ],
      "name": "safeBatchTransferFrom",
      "outputs": [],
      "stateMutability": "nonpayable",
      "type": "function"
    },
    {
      "inputs": [
        {
          "internalType": "address",
          "name": "from",
          "type": "address"
        },
        {
          "internalType": "address",
          "name": "to",
          "type": "address"
        },
        {
          "internalType": "uint256",
          "name": "id",
          "type": "uint256"
        },
        {
          "internalType": "uint256",
          "name": "value",
          "type": "uint256"
        },
        {
          "internalType": "bytes",
          "name": "data",
          "type": "bytes"
        }
      ],
      "name": "safeTransferFrom",
      "outputs": [],
      "stateMutability": "nonpayable",
      "type": "function"
    },
    {
      "inputs": [
        {
          "internalType": "address",
          "name": "operator",
          "type": "address"
        },
        {
          "internalType": "bool",
          "name": "approved",
          "type": "bool"
        }
      ],
      "name": "setApprovalForAll",
      "outputs": [],
      "stateMutability": "nonpayable",
      "type": "function"
    },
    {
      "inputs": [
        {
          "internalType": "bytes4",
          "name": "interfaceId",
          "type": "bytes4"
        }
      ],
      "name": "supportsInterface",
      "outputs": [
        {
          "internalType": "bool",
          "name": "",
          "type": "bool"
        }
      ],
      "stateMutability": "view",
      "type": "function"
    },
    {
      "inputs": [
        {
          "internalType": "uint256",
          "name": "",
          "type": "uint256"
        }
      ],
      "name": "totalFractions",
      "outputs": [
        {
          "internalType": "uint256",
          "name": "",
          "type": "uint256"
        }
      ],
      "stateMutability": "view",
      "type": "function"
    },
    {
      "inputs": [
        {
          "internalType": "address",
          "name": "to",
          "type": "address"
        },
        {
          "internalType": "uint256",
          "name": "landId",
          "type": "uint256"
        },
        {
          "internalType": "uint256",
          "name": "amount",
          "type": "uint256"
        }
      ],
      "name": "transferFractionalTokens",
      "outputs": [],
      "stateMutability": "nonpayable",
      "type": "function"
    },
    {
      "inputs": [
        {
          "internalType": "address",
          "name": "newOwner",
          "type": "address"
        }
      ],
      "name": "transferOwnership",
      "outputs": [],
      "stateMutability": "nonpayable",
      "type": "function"
    },
    {
      "inputs": [
        {
          "internalType": "uint256",
          "name": "landId",
          "type": "uint256"
        },
        {
          "internalType": "uint256",
          "name": "amount",
          "type": "uint256"
        },
        {
          "internalType": "uint256",
          "name": "pricePerToken",
          "type": "uint256"
        }
      ],
      "name": "updateTokenListing",
      "outputs": [],
      "stateMutability": "nonpayable",
      "type": "function"
    },
    {
      "inputs": [
        {
          "internalType": "uint256",
          "name": "",
          "type": "uint256"
        }
      ],
      "name": "uri",
      "outputs": [
        {
          "internalType": "string",
          "name": "",
          "type": "string"
        }
      ],
      "stateMutability": "view",
      "type": "function"
    }
  ],
  "bytecode": "0x608060405234801561001057600080fd5b503360405180602001604052806000815250610031816100b960201b60201c565b50600073ffffffffffffffffffffffffffffffffffffffff168173ffffffffffffffffffffffffffffffffffffffff16036100a45760006040517f1e4fbdf700000000000000000000000000000000000000000000000000000000815260040161009b91906101d3565b60405180910390fd5b6100b3816100cc60201b60201c565b50610510565b80600290816100c8919061043e565b5050565b6000600360009054906101000a900473ffffffffffffffffffffffffffffffffffffffff16905081600360006101000a81548173ffffffffffffffffffffffffffffffffffffffff021916908373ffffffffffffffffffffffffffffffffffffffff1602179055508173ffffffffffffffffffffffffffffffffffffffff168173ffffffffffffffffffffffffffffffffffffffff167f8be0079c531659141344cd1fd0a4f28419497f9722a3daafe3b4186f6b6457e060405160405180910390a35050565b600073ffffffffffffffffffffffffffffffffffffffff82169050919050565b60006101bd82610192565b9050919050565b6101cd816101b2565b82525050565b60006020820190506101e860008301846101c4565b92915050565b600081519050919050565b7f4e487b7100000000000000000000000000000000000000000000000000000000600052604160045260246000fd5b7f4e487b7100000000000000000000000000000000000000000000000000000000600052602260045260246000fd5b6000600282049050600182168061026f57607f821691505b60208210810361028257610281610228565b5b50919050565b60008190508160005260206000209050919050565b60006020601f8301049050919050565b600082821b905092915050565b6000600883026102ea7fffffffffffffffffffffffffffffffffffffffffffffffffffffffffffffffff826102ad565b6102f486836102ad565b95508019841693508086168417925050509392505050565b6000819050919050565b6000819050919050565b600061033b6103366103318461030c565b610316565b61030c565b9050919050565b6000819050919050565b61035583610320565b61036961036182610342565b8484546102ba565b825550505050565b600090565b61037e610371565b61038981848461034c565b505050565b5b818110156103ad576103a2600082610376565b60018101905061038f565b5050565b601f8211156103f2576103c381610288565b6103cc8461029d565b810160208510156103db578190505b6103ef6103e78561029d565b83018261038e565b50505b505050565b600082821c905092915050565b6000610415600019846008026103f7565b1980831691505092915050565b600061042e8383610404565b9150826002028217905092915050565b610447826101ee565b67ffffffffffffffff8111156104605761045f6101f9565b5b61046a8254610257565b6104758282856103b1565b600060209050601f8311600181146104a85760008415610496578287015190505b6104a08582610422565b865550610508565b601f1984166104b686610288565b60005b828110156104de578489015182556001820191506020850194506020810190506104b9565b868310156104fb57848901516104f7601f891682610404565b8355505b6001600288020188555050505b505050505050565b6142638061051f6000396000f3fe6080604052600436106101295760003560e01c8063a14e768a116100ab578063c1f15bfb1161006f578063c1f15bfb14610407578063e985e9c514610430578063ee0db7eb1461046d578063f1807e5c14610496578063f242432a146104c1578063f2fde38b146104ea57610129565b8063a14e768a14610333578063a22cb4651461034f578063a379c87714610378578063afe9b7da146103a1578063b86b19de146103ca57610129565b80634e1273f4116100f25780634e1273f414610237578063715018a614610274578063766de47f1461028b5780638da5cb5b146102c85780638fdc85ce146102f357610129565b8062fdd58e1461012e57806301ffc9a71461016b5780630e89341c146101a85780632e8a0f2b146101e55780632eb2c2d61461020e575b600080fd5b34801561013a57600080fd5b5061015560048036038101906101509190612a02565b610513565b6040516101629190612a51565b60405180910390f35b34801561017757600080fd5b50610192600480360381019061018d9190612ac4565b61056d565b60405161019f9190612b0c565b60405180910390f35b3480156101b457600080fd5b506101cf60048036038101906101ca9190612b27565b61064f565b6040516101dc9190612be4565b60405180910390f35b3480156101f157600080fd5b5061020c60048036038101906102079190612c06565b6106e3565b005b34801561021a57600080fd5b5061023560048036038101906102309190612e56565b610a29565b005b34801561024357600080fd5b5061025e60048036038101906102599190612fe8565b610ad1565b60405161026b919061311e565b60405180910390f35b34801561028057600080fd5b50610289610bda565b005b34801561029757600080fd5b506102b260048036038101906102ad9190612b27565b610bee565b6040516102bf9190612a51565b60405180910390f35b3480156102d457600080fd5b506102dd610c06565b6040516102ea919061314f565b60405180910390f35b3480156102ff57600080fd5b5061031a6004803603810190610315919061316a565b610c30565b60405161032a9493929190613197565b60405180910390f35b61034d60048036038101906103489190613200565b610c80565b005b34801561035b57600080fd5b506103766004803603810190610371919061326c565b61118b565b005b34801561038457600080fd5b5061039f600480360381019061039a9190612c06565b6111a1565b005b3480156103ad57600080fd5b506103c860048036038101906103c391906132ac565b611492565b005b3480156103d657600080fd5b506103f160048036038101906103ec9190612b27565b611566565b6040516103fe9190612b0c565b60405180910390f35b34801561041357600080fd5b5061042e600480360381019061042991906133a0565b611586565b005b34801561043c57600080fd5b506104576004803603810190610452919061342b565b61164e565b6040516104649190612b0c565b60405180910390f35b34801561047957600080fd5b50610494600480360381019061048f9190612c06565b6116e2565b005b3480156104a257600080fd5b506104ab611a41565b6040516104b89190612a51565b60405180910390f35b3480156104cd57600080fd5b506104e860048036038101906104e3919061346b565b611a47565b005b3480156104f657600080fd5b50610511600480360381019061050c919061316a565b611aef565b005b600080600083815260200190815260200160002060008473ffffffffffffffffffffffffffffffffffffffff1673ffffffffffffffffffffffffffffffffffffffff16815260200190815260200160002054905092915050565b60007fd9b67a26000000000000000000000000000000000000000000000000000000007bffffffffffffffffffffffffffffffffffffffffffffffffffffffff1916827bffffffffffffffffffffffffffffffffffffffffffffffffffffffff1916148061063857507f0e89341c000000000000000000000000000000000000000000000000000000007bffffffffffffffffffffffffffffffffffffffffffffffffffffffff1916827bffffffffffffffffffffffffffffffffffffffffffffffffffffffff1916145b80610648575061064782611b75565b5b9050919050565b60606002805461065e90613531565b80601f016020809104026020016040519081016040528092919081815260200182805461068a90613531565b80156106d75780601f106106ac576101008083540402835291602001916106d7565b820191906000526020600020905b8154815290600101906020018083116106ba57829003601f168201915b50505050509050919050565b6006600084815260200190815260200160002060009054906101000a900460ff16610743576040517f08c379a000000000000000000000000000000000000000000000000000000000815260040161073a906135d4565b60405180910390fd5b8161074e3385610513565b101561078f576040517f08c379a000000000000000000000000000000000000000000000000000000000815260040161078690613640565b60405180910390fd5b600081116107d2576040517f08c379a00000000000000000000000000000000000000000000000000000000081526004016107c9906136ac565b60405180910390fd5b60008211610815576040517f08c379a000000000000000000000000000000000000000000000000000000000815260040161080c90613718565b60405180910390fd5b6000600760003373ffffffffffffffffffffffffffffffffffffffff1673ffffffffffffffffffffffffffffffffffffffff1681526020019081526020016000209050600081600201541161089f576040517f08c379a0000000000000000000000000000000000000000000000000000000008152600401610896906137aa565b60405180910390fd5b838160010154146108e5576040517f08c379a00000000000000000000000000000000000000000000000000000000081526004016108dc90613816565b60405180910390fd5b3373ffffffffffffffffffffffffffffffffffffffff168160000160009054906101000a900473ffffffffffffffffffffffffffffffffffffffff1673ffffffffffffffffffffffffffffffffffffffff1614610977576040517f08c379a000000000000000000000000000000000000000000000000000000000815260040161096e906138a8565b60405180910390fd5b610981333061164e565b6109c0576040517f08c379a00000000000000000000000000000000000000000000000000000000081526004016109b79061393a565b60405180910390fd5b8281600201819055508181600301819055503373ffffffffffffffffffffffffffffffffffffffff16847f8098ce837a1e7f11070ca4eb3fecff815014e0245b2788d11377149251c2b55b8585604051610a1b92919061395a565b60405180910390a350505050565b6000610a33611bdf565b90508073ffffffffffffffffffffffffffffffffffffffff168673ffffffffffffffffffffffffffffffffffffffff1614158015610a785750610a76868261164e565b155b15610abc5780866040517fe237d922000000000000000000000000000000000000000000000000000000008152600401610ab3929190613983565b60405180910390fd5b610ac98686868686611be7565b505050505050565b60608151835114610b1d57815183516040517f5b059991000000000000000000000000000000000000000000000000000000008152600401610b1492919061395a565b60405180910390fd5b6000835167ffffffffffffffff811115610b3a57610b39612c5e565b5b604051908082528060200260200182016040528015610b685781602001602082028036833780820191505090505b50905060005b8451811015610bcf57610ba5610b8d8287611cdf90919063ffffffff16565b610ba08387611cf390919063ffffffff16565b610513565b828281518110610bb857610bb76139ac565b5b602002602001018181525050806001019050610b6e565b508091505092915050565b610be2611d07565b610bec6000611d8e565b565b60056020528060005260406000206000915090505481565b6000600360009054906101000a900473ffffffffffffffffffffffffffffffffffffffff16905090565b60076020528060005260406000206000915090508060000160009054906101000a900473ffffffffffffffffffffffffffffffffffffffff16908060010154908060020154908060030154905084565b6006600083815260200190815260200160002060009054906101000a900460ff16610ce0576040517f08c379a0000000000000000000000000000000000000000000000000000000008152600401610cd7906135d4565b60405180910390fd5b6000816060013511610d27576040517f08c379a0000000000000000000000000000000000000000000000000000000008152600401610d1e90613a27565b60405180910390fd5b600080826000016020810190610d3d919061316a565b90506000600760008373ffffffffffffffffffffffffffffffffffffffff1673ffffffffffffffffffffffffffffffffffffffff16815260200190815260200160002090506000816002015411610dc9576040517f08c379a0000000000000000000000000000000000000000000000000000000008152600401610dc090613a93565b60405180910390fd5b84816001015414610e0f576040517f08c379a0000000000000000000000000000000000000000000000000000000008152600401610e0690613816565b60405180910390fd5b836040013581600201541015610e5a576040517f08c379a0000000000000000000000000000000000000000000000000000000008152600401610e5190613aff565b60405180910390fd5b8360600135816003015414610ea4576040517f08c379a0000000000000000000000000000000000000000000000000000000008152600401610e9b90613b6b565b60405180910390fd5b8360400135610eb38387610513565b1015610ef4576040517f08c379a0000000000000000000000000000000000000000000000000000000008152600401610eeb90613bd7565b60405180910390fd5b610efe823061164e565b610f3d576040517f08c379a0000000000000000000000000000000000000000000000000000000008152600401610f3490613c69565b60405180910390fd5b83606001358460400135610f519190613cb8565b925082341015610f96576040517f08c379a0000000000000000000000000000000000000000000000000000000008152600401610f8d90613d46565b60405180910390fd5b610fb6823387876040013560405180602001604052806000815250611e54565b836040013581600201540361104b57600760008373ffffffffffffffffffffffffffffffffffffffff1673ffffffffffffffffffffffffffffffffffffffff168152602001908152602001600020600080820160006101000a81549073ffffffffffffffffffffffffffffffffffffffff0219169055600182016000905560028201600090556003820160009055505061106b565b83604001358160020160008282546110639190613d66565b925050819055505b8173ffffffffffffffffffffffffffffffffffffffff166108fc849081150290604051600060405180830381858888f193505050501580156110b1573d6000803e3d6000fd5b508173ffffffffffffffffffffffffffffffffffffffff163373ffffffffffffffffffffffffffffffffffffffff16867f06a468bc780ea805d80491ed9f300c36122c94bcb715acc7a8606f510f6c2ecd8760400135886060013560405161111a92919061395a565b60405180910390a4600083346111309190613d66565b90506000811115611183573373ffffffffffffffffffffffffffffffffffffffff166108fc829081150290604051600060405180830381858888f19350505050158015611181573d6000803e3d6000fd5b505b505050505050565b61119d611196611bdf565b8383611f5f565b5050565b6006600084815260200190815260200160002060009054906101000a900460ff16611201576040517f08c379a00000000000000000000000000000000000000000000000000000000081526004016111f8906135d4565b60405180910390fd5b8161120c3385610513565b101561124d576040517f08c379a000000000000000000000000000000000000000000000000000000000815260040161124490613640565b60405180910390fd5b60008111611290576040517f08c379a0000000000000000000000000000000000000000000000000000000008152600401611287906136ac565b60405180910390fd5b6000600760003373ffffffffffffffffffffffffffffffffffffffff1673ffffffffffffffffffffffffffffffffffffffff1681526020019081526020016000206002015414611315576040517f08c379a000000000000000000000000000000000000000000000000000000000815260040161130c90613de6565b60405180910390fd5b61131f333061164e565b61135e576040517f08c379a00000000000000000000000000000000000000000000000000000000081526004016113559061393a565b60405180910390fd5b60405180608001604052803373ffffffffffffffffffffffffffffffffffffffff16815260200184815260200183815260200182815250600760003373ffffffffffffffffffffffffffffffffffffffff1673ffffffffffffffffffffffffffffffffffffffff16815260200190815260200160002060008201518160000160006101000a81548173ffffffffffffffffffffffffffffffffffffffff021916908373ffffffffffffffffffffffffffffffffffffffff1602179055506020820151816001015560408201518160020155606082015181600301559050503373ffffffffffffffffffffffffffffffffffffffff16837f8098ce837a1e7f11070ca4eb3fecff815014e0245b2788d11377149251c2b55b848460405161148592919061395a565b60405180910390a3505050565b8061149d3384610513565b10156114de576040517f08c379a00000000000000000000000000000000000000000000000000000000081526004016114d590613e52565b60405180910390fd5b6114fa3384848460405180602001604052806000815250611a47565b8273ffffffffffffffffffffffffffffffffffffffff163373ffffffffffffffffffffffffffffffffffffffff167fa26bbe54fa0532e401916ac988b0e6d0a482b1e3de4a53dd1718aba39eeae7ad848460405161155992919061395a565b60405180910390a3505050565b60066020528060005260406000206000915054906101000a900460ff1681565b61158e611d07565b600460008154809291906115a190613e72565b9190505550600060045490506115c8338285604051806020016040528060008152506120cf565b82600560008381526020019081526020016000208190555060016006600083815260200190815260200160002060006101000a81548160ff021916908315150217905550807fb2732409110a94bc6adffa6e94cb00089777c21ebda678f673a585feca5da6d785858560405161164093929190613eba565b60405180910390a250505050565b6000600160008473ffffffffffffffffffffffffffffffffffffffff1673ffffffffffffffffffffffffffffffffffffffff16815260200190815260200160002060008373ffffffffffffffffffffffffffffffffffffffff1673ffffffffffffffffffffffffffffffffffffffff16815260200190815260200160002060009054906101000a900460ff16905092915050565b6006600084815260200190815260200160002060009054906101000a900460ff16611742576040517f08c379a0000000000000000000000000000000000000000000000000000000008152600401611739906135d4565b60405180910390fd5b8161174d3385610513565b101561178e576040517f08c379a000000000000000000000000000000000000000000000000000000000815260040161178590613f71565b60405180910390fd5b6000600760003373ffffffffffffffffffffffffffffffffffffffff1673ffffffffffffffffffffffffffffffffffffffff1681526020019081526020016000206040518060800160405290816000820160009054906101000a900473ffffffffffffffffffffffffffffffffffffffff1673ffffffffffffffffffffffffffffffffffffffff1673ffffffffffffffffffffffffffffffffffffffff168152602001600182015481526020016002820154815260200160038201548152505090506000816040015111611897576040517f08c379a000000000000000000000000000000000000000000000000000000000815260040161188e90613fdd565b60405180910390fd5b838160200151146118dd576040517f08c379a00000000000000000000000000000000000000000000000000000000081526004016118d490613816565b60405180910390fd5b82816040015114611923576040517f08c379a000000000000000000000000000000000000000000000000000000000815260040161191a90614049565b60405180910390fd5b81816060015114611969576040517f08c379a000000000000000000000000000000000000000000000000000000000815260040161196090613b6b565b60405180910390fd5b600760003373ffffffffffffffffffffffffffffffffffffffff1673ffffffffffffffffffffffffffffffffffffffff168152602001908152602001600020600080820160006101000a81549073ffffffffffffffffffffffffffffffffffffffff021916905560018201600090556002820160009055600382016000905550503373ffffffffffffffffffffffffffffffffffffffff16847f6b07c5730a95c41d70145025b4d89a30daef58b875d933b7be46e254a34aa0a58585604051611a3392919061395a565b60405180910390a350505050565b60045481565b6000611a51611bdf565b90508073ffffffffffffffffffffffffffffffffffffffff168673ffffffffffffffffffffffffffffffffffffffff1614158015611a965750611a94868261164e565b155b15611ada5780866040517fe237d922000000000000000000000000000000000000000000000000000000008152600401611ad1929190613983565b60405180910390fd5b611ae78686868686611e54565b505050505050565b611af7611d07565b600073ffffffffffffffffffffffffffffffffffffffff168173ffffffffffffffffffffffffffffffffffffffff1603611b695760006040517f1e4fbdf7000000000000000000000000000000000000000000000000000000008152600401611b60919061314f565b60405180910390fd5b611b7281611d8e565b50565b60007f01ffc9a7000000000000000000000000000000000000000000000000000000007bffffffffffffffffffffffffffffffffffffffffffffffffffffffff1916827bffffffffffffffffffffffffffffffffffffffffffffffffffffffff1916149050919050565b600033905090565b600073ffffffffffffffffffffffffffffffffffffffff168473ffffffffffffffffffffffffffffffffffffffff1603611c595760006040517f57f447ce000000000000000000000000000000000000000000000000000000008152600401611c50919061314f565b60405180910390fd5b600073ffffffffffffffffffffffffffffffffffffffff168573ffffffffffffffffffffffffffffffffffffffff1603611ccb5760006040517f01a83514000000000000000000000000000000000000000000000000000000008152600401611cc2919061314f565b60405180910390fd5b611cd88585858585612168565b5050505050565b600060208202602084010151905092915050565b600060208202602084010151905092915050565b611d0f611bdf565b73ffffffffffffffffffffffffffffffffffffffff16611d2d610c06565b73ffffffffffffffffffffffffffffffffffffffff1614611d8c57611d50611bdf565b6040517f118cdaa7000000000000000000000000000000000000000000000000000000008152600401611d83919061314f565b60405180910390fd5b565b6000600360009054906101000a900473ffffffffffffffffffffffffffffffffffffffff16905081600360006101000a81548173ffffffffffffffffffffffffffffffffffffffff021916908373ffffffffffffffffffffffffffffffffffffffff1602179055508173ffffffffffffffffffffffffffffffffffffffff168173ffffffffffffffffffffffffffffffffffffffff167f8be0079c531659141344cd1fd0a4f28419497f9722a3daafe3b4186f6b6457e060405160405180910390a35050565b600073ffffffffffffffffffffffffffffffffffffffff168473ffffffffffffffffffffffffffffffffffffffff1603611ec65760006040517f57f447ce000000000000000000000000000000000000000000000000000000008152600401611ebd919061314f565b60405180910390fd5b600073ffffffffffffffffffffffffffffffffffffffff168573ffffffffffffffffffffffffffffffffffffffff1603611f385760006040517f01a83514000000000000000000000000000000000000000000000000000000008152600401611f2f919061314f565b60405180910390fd5b600080611f45858561221a565b91509150611f568787848487612168565b50505050505050565b600073ffffffffffffffffffffffffffffffffffffffff168273ffffffffffffffffffffffffffffffffffffffff1603611fd15760006040517fced3e100000000000000000000000000000000000000000000000000000000008152600401611fc8919061314f565b60405180910390fd5b80600160008573ffffffffffffffffffffffffffffffffffffffff1673ffffffffffffffffffffffffffffffffffffffff16815260200190815260200160002060008473ffffffffffffffffffffffffffffffffffffffff1673ffffffffffffffffffffffffffffffffffffffff16815260200190815260200160002060006101000a81548160ff0219169083151502179055508173ffffffffffffffffffffffffffffffffffffffff168373ffffffffffffffffffffffffffffffffffffffff167f17307eab39ab6107e8899845ad3d59bd9653f200f220920489ca2b5937696c31836040516120c29190612b0c565b60405180910390a3505050565b600073ffffffffffffffffffffffffffffffffffffffff168473ffffffffffffffffffffffffffffffffffffffff16036121415760006040517f57f447ce000000000000000000000000000000000000000000000000000000008152600401612138919061314f565b60405180910390fd5b60008061214e858561221a565b91509150612160600087848487612168565b505050505050565b6121748585858561224a565b600073ffffffffffffffffffffffffffffffffffffffff168473ffffffffffffffffffffffffffffffffffffffff16146122135760006121b2611bdf565b905060018451036122025760006121d3600086611cf390919063ffffffff16565b905060006121eb600086611cf390919063ffffffff16565b90506121fb8389898585896125f2565b5050612211565b6122108187878787876127a6565b5b505b5050505050565b60608060405191506001825283602083015260408201905060018152826020820152604081016040529250929050565b805182511461229457815181516040517f5b05999100000000000000000000000000000000000000000000000000000000815260040161228b92919061395a565b60405180910390fd5b600061229e611bdf565b905060005b83518110156124ad5760006122c18286611cf390919063ffffffff16565b905060006122d88386611cf390919063ffffffff16565b9050600073ffffffffffffffffffffffffffffffffffffffff168873ffffffffffffffffffffffffffffffffffffffff161461240557600080600084815260200190815260200160002060008a73ffffffffffffffffffffffffffffffffffffffff1673ffffffffffffffffffffffffffffffffffffffff168152602001908152602001600020549050818110156123ad57888183856040517f03dee4c50000000000000000000000000000000000000000000000000000000081526004016123a49493929190613197565b60405180910390fd5b81810360008085815260200190815260200160002060008b73ffffffffffffffffffffffffffffffffffffffff1673ffffffffffffffffffffffffffffffffffffffff16815260200190815260200160002081905550505b600073ffffffffffffffffffffffffffffffffffffffff168773ffffffffffffffffffffffffffffffffffffffff16146124a0578060008084815260200190815260200160002060008973ffffffffffffffffffffffffffffffffffffffff1673ffffffffffffffffffffffffffffffffffffffff16815260200190815260200160002060008282546124989190614069565b925050819055505b50508060010190506122a3565b50600183510361256c5760006124cd600085611cf390919063ffffffff16565b905060006124e5600085611cf390919063ffffffff16565b90508573ffffffffffffffffffffffffffffffffffffffff168773ffffffffffffffffffffffffffffffffffffffff168473ffffffffffffffffffffffffffffffffffffffff167fc3d58168c5ae7397731d063d5bbf3d657854427343f4c083240f7aacaa2d0f62858560405161255d92919061395a565b60405180910390a450506125eb565b8373ffffffffffffffffffffffffffffffffffffffff168573ffffffffffffffffffffffffffffffffffffffff168273ffffffffffffffffffffffffffffffffffffffff167f4a39dc06d4c0dbc64b70af90fd698a233a518aa5d07e595d983b8c0526c8f7fb86866040516125e292919061409d565b60405180910390a45b5050505050565b60008473ffffffffffffffffffffffffffffffffffffffff163b111561279e578373ffffffffffffffffffffffffffffffffffffffff1663f23a6e6187878686866040518663ffffffff1660e01b8152600401612653959493929190614129565b6020604051808303816000875af192505050801561268f57506040513d601f19601f8201168201806040525081019061268c9190614198565b60015b612713573d80600081146126bf576040519150601f19603f3d011682016040523d82523d6000602084013e6126c4565b606091505b50600081510361270b57846040517f57f447ce000000000000000000000000000000000000000000000000000000008152600401612702919061314f565b60405180910390fd5b805181602001fd5b63f23a6e6160e01b7bffffffffffffffffffffffffffffffffffffffffffffffffffffffff1916817bffffffffffffffffffffffffffffffffffffffffffffffffffffffff19161461279c57846040517f57f447ce000000000000000000000000000000000000000000000000000000008152600401612793919061314f565b60405180910390fd5b505b505050505050565b60008473ffffffffffffffffffffffffffffffffffffffff163b1115612952578373ffffffffffffffffffffffffffffffffffffffff1663bc197c8187878686866040518663ffffffff1660e01b81526004016128079594939291906141c5565b6020604051808303816000875af192505050801561284357506040513d601f19601f820116820180604052508101906128409190614198565b60015b6128c7573d8060008114612873576040519150601f19603f3d011682016040523d82523d6000602084013e612878565b606091505b5060008151036128bf57846040517f57f447ce0000000000000000000000000000000000000000000000000000000081526004016128b6919061314f565b60405180910390fd5b805181602001fd5b63bc197c8160e01b7bffffffffffffffffffffffffffffffffffffffffffffffffffffffff1916817bffffffffffffffffffffffffffffffffffffffffffffffffffffffff19161461295057846040517f57f447ce000000000000000000000000000000000000000000000000000000008152600401612947919061314f565b60405180910390fd5b505b505050505050565b6000604051905090565b600080fd5b600080fd5b600073ffffffffffffffffffffffffffffffffffffffff82169050919050565b60006129998261296e565b9050919050565b6129a98161298e565b81146129b457600080fd5b50565b6000813590506129c6816129a0565b92915050565b6000819050919050565b6129df816129cc565b81146129ea57600080fd5b50565b6000813590506129fc816129d6565b92915050565b60008060408385031215612a1957612a18612964565b5b6000612a27858286016129b7565b9250506020612a38858286016129ed565b9150509250929050565b612a4b816129cc565b82525050565b6000602082019050612a666000830184612a42565b92915050565b60007fffffffff0000000000000000000000000000000000000000000000000000000082169050919050565b612aa181612a6c565b8114612aac57600080fd5b50565b600081359050612abe81612a98565b92915050565b600060208284031215612ada57612ad9612964565b5b6000612ae884828501612aaf565b91505092915050565b60008115159050919050565b612b0681612af1565b82525050565b6000602082019050612b216000830184612afd565b92915050565b600060208284031215612b3d57612b3c612964565b5b6000612b4b848285016129ed565b91505092915050565b600081519050919050565b600082825260208201905092915050565b60005b83811015612b8e578082015181840152602081019050612b73565b60008484015250505050565b6000601f19601f8301169050919050565b6000612bb682612b54565b612bc08185612b5f565b9350612bd0818560208601612b70565b612bd981612b9a565b840191505092915050565b60006020820190508181036000830152612bfe8184612bab565b905092915050565b600080600060608486031215612c1f57612c1e612964565b5b6000612c2d868287016129ed565b9350506020612c3e868287016129ed565b9250506040612c4f868287016129ed565b9150509250925092565b600080fd5b7f4e487b7100000000000000000000000000000000000000000000000000000000600052604160045260246000fd5b612c9682612b9a565b810181811067ffffffffffffffff82111715612cb557612cb4612c5e565b5b80604052505050565b6000612cc861295a565b9050612cd48282612c8d565b919050565b600067ffffffffffffffff821115612cf457612cf3612c5e565b5b602082029050602081019050919050565b600080fd5b6000612d1d612d1884612cd9565b612cbe565b90508083825260208201905060208402830185811115612d4057612d3f612d05565b5b835b81811015612d695780612d5588826129ed565b845260208401935050602081019050612d42565b5050509392505050565b600082601f830112612d8857612d87612c59565b5b8135612d98848260208601612d0a565b91505092915050565b600080fd5b600067ffffffffffffffff821115612dc157612dc0612c5e565b5b612dca82612b9a565b9050602081019050919050565b82818337600083830152505050565b6000612df9612df484612da6565b612cbe565b905082815260208101848484011115612e1557612e14612da1565b5b612e20848285612dd7565b509392505050565b600082601f830112612e3d57612e3c612c59565b5b8135612e4d848260208601612de6565b91505092915050565b600080600080600060a08688031215612e7257612e71612964565b5b6000612e80888289016129b7565b9550506020612e91888289016129b7565b945050604086013567ffffffffffffffff811115612eb257612eb1612969565b5b612ebe88828901612d73565b935050606086013567ffffffffffffffff811115612edf57612ede612969565b5b612eeb88828901612d73565b925050608086013567ffffffffffffffff811115612f0c57612f0b612969565b5b612f1888828901612e28565b9150509295509295909350565b600067ffffffffffffffff821115612f4057612f3f612c5e565b5b602082029050602081019050919050565b6000612f64612f5f84612f25565b612cbe565b90508083825260208201905060208402830185811115612f8757612f86612d05565b5b835b81811015612fb05780612f9c88826129b7565b845260208401935050602081019050612f89565b5050509392505050565b600082601f830112612fcf57612fce612c59565b5b8135612fdf848260208601612f51565b91505092915050565b60008060408385031215612fff57612ffe612964565b5b600083013567ffffffffffffffff81111561301d5761301c612969565b5b61302985828601612fba565b925050602083013567ffffffffffffffff81111561304a57613049612969565b5b61305685828601612d73565b9150509250929050565b600081519050919050565b600082825260208201905092915050565b6000819050602082019050919050565b613095816129cc565b82525050565b60006130a7838361308c565b60208301905092915050565b6000602082019050919050565b60006130cb82613060565b6130d5818561306b565b93506130e08361307c565b8060005b838110156131115781516130f8888261309b565b9750613103836130b3565b9250506001810190506130e4565b5085935050505092915050565b6000602082019050818103600083015261313881846130c0565b905092915050565b6131498161298e565b82525050565b60006020820190506131646000830184613140565b92915050565b6000602082840312156131805761317f612964565b5b600061318e848285016129b7565b91505092915050565b60006080820190506131ac6000830187613140565b6131b96020830186612a42565b6131c66040830185612a42565b6131d36060830184612a42565b95945050505050565b600080fd5b6000608082840312156131f7576131f66131dc565b5b81905092915050565b60008060a0838503121561321757613216612964565b5b6000613225858286016129ed565b9250506020613236858286016131e1565b9150509250929050565b61324981612af1565b811461325457600080fd5b50565b60008135905061326681613240565b92915050565b6000806040838503121561328357613282612964565b5b6000613291858286016129b7565b92505060206132a285828601613257565b9150509250929050565b6000806000606084860312156132c5576132c4612964565b5b60006132d3868287016129b7565b93505060206132e4868287016129ed565b92505060406132f5868287016129ed565b9150509250925092565b600067ffffffffffffffff82111561331a57613319612c5e565b5b61332382612b9a565b9050602081019050919050565b600061334361333e846132ff565b612cbe565b90508281526020810184848401111561335f5761335e612da1565b5b61336a848285612dd7565b509392505050565b600082601f83011261338757613386612c59565b5b8135613397848260208601613330565b91505092915050565b6000806000606084860312156133b9576133b8612964565b5b600084013567ffffffffffffffff8111156133d7576133d6612969565b5b6133e386828701613372565b93505060206133f4868287016129ed565b925050604084013567ffffffffffffffff81111561341557613414612969565b5b61342186828701613372565b9150509250925092565b6000806040838503121561344257613441612964565b5b6000613450858286016129b7565b9250506020613461858286016129b7565b9150509250929050565b600080600080600060a0868803121561348757613486612964565b5b6000613495888289016129b7565b95505060206134a6888289016129b7565b94505060406134b7888289016129ed565b93505060606134c8888289016129ed565b925050608086013567ffffffffffffffff8111156134e9576134e8612969565b5b6134f588828901612e28565b9150509295509295909350565b7f4e487b7100000000000000000000000000000000000000000000000000000000600052602260045260246000fd5b6000600282049050600182168061354957607f821691505b60208210810361355c5761355b613502565b5b50919050565b7f4c616e64206d757374206265206672616374696f6e616c697a6564206669727360008201527f7400000000000000000000000000000000000000000000000000000000000000602082015250565b60006135be602183612b5f565b91506135c982613562565b604082019050919050565b600060208201905081810360008301526135ed816135b1565b9050919050565b7f496e73756666696369656e7420746f6b656e2062616c616e6365000000000000600082015250565b600061362a601a83612b5f565b9150613635826135f4565b602082019050919050565b600060208201905081810360008301526136598161361d565b9050919050565b7f5072696365206d7573742062652067726561746572207468616e203000000000600082015250565b6000613696601c83612b5f565b91506136a182613660565b602082019050919050565b600060208201905081810360008301526136c581613689565b9050919050565b7f416d6f756e74206d7573742062652067726561746572207468616e2030000000600082015250565b6000613702601d83612b5f565b915061370d826136cc565b602082019050919050565b60006020820190508181036000830152613731816136f5565b9050919050565b7f446f6573206e6f74206861766520616e20616374697665206c697374696e672e60008201527f204c69737420546f6b656e20666f722073616c652e0000000000000000000000602082015250565b6000613794603583612b5f565b915061379f82613738565b604082019050919050565b600060208201905081810360008301526137c381613787565b9050919050565b7f4c616e6420494420646f65736e2774206d61746368206c697374696e67000000600082015250565b6000613800601d83612b5f565b915061380b826137ca565b602082019050919050565b6000602082019050818103600083015261382f816137f3565b9050919050565b7f4f6e6c79207468652073656c6c65722063616e2075706461746520746865206c60008201527f697374696e670000000000000000000000000000000000000000000000000000602082015250565b6000613892602683612b5f565b915061389d82613836565b604082019050919050565b600060208201905081810360008301526138c181613885565b9050919050565b7f436f6e7472616374206d75737420626520617070726f76656420746f2074726160008201527f6e7366657220746f6b656e730000000000000000000000000000000000000000602082015250565b6000613924602c83612b5f565b915061392f826138c8565b604082019050919050565b6000602082019050818103600083015261395381613917565b9050919050565b600060408201905061396f6000830185612a42565b61397c6020830184612a42565b9392505050565b60006040820190506139986000830185613140565b6139a56020830184613140565b9392505050565b7f4e487b7100000000000000000000000000000000000000000000000000000000600052603260045260246000fd5b7f496e76616c696420707269636500000000000000000000000000000000000000600082015250565b6000613a11600d83612b5f565b9150613a1c826139db565b602082019050919050565b60006020820190508181036000830152613a4081613a04565b9050919050565b7f53656c6c657220686173206e6f20616374697665206c697374696e6700000000600082015250565b6000613a7d601c83612b5f565b9150613a8882613a47565b602082019050919050565b60006020820190508181036000830152613aac81613a70565b9050919050565b7f4f7264657220616d6f756e742065786365656473206c697374696e6700000000600082015250565b6000613ae9601c83612b5f565b9150613af482613ab3565b602082019050919050565b60006020820190508181036000830152613b1881613adc565b9050919050565b7f507269636520646f65736e2774206d61746368206c697374696e670000000000600082015250565b6000613b55601b83612b5f565b9150613b6082613b1f565b602082019050919050565b60006020820190508181036000830152613b8481613b48565b9050919050565b7f53656c6c65722068617320696e73756666696369656e742062616c616e636500600082015250565b6000613bc1601f83612b5f565b9150613bcc82613b8b565b602082019050919050565b60006020820190508181036000830152613bf081613bb4565b9050919050565b7f53656c6c657220686173206e6f7420617070726f76656420636f6e747261637460008201527f20666f72207472616e7366657273000000000000000000000000000000000000602082015250565b6000613c53602e83612b5f565b9150613c5e82613bf7565b604082019050919050565b60006020820190508181036000830152613c8281613c46565b9050919050565b7f4e487b7100000000000000000000000000000000000000000000000000000000600052601160045260246000fd5b6000613cc3826129cc565b9150613cce836129cc565b9250828202613cdc816129cc565b91508282048414831517613cf357613cf2613c89565b5b5092915050565b7f496e73756666696369656e74207061796d656e74000000000000000000000000600082015250565b6000613d30601483612b5f565b9150613d3b82613cfa565b602082019050919050565b60006020820190508181036000830152613d5f81613d23565b9050919050565b6000613d71826129cc565b9150613d7c836129cc565b9250828203905081811115613d9457613d93613c89565b5b92915050565b7f416c72656164792068617320616e20616374697665206c697374696e67000000600082015250565b6000613dd0601d83612b5f565b9150613ddb82613d9a565b602082019050919050565b60006020820190508181036000830152613dff81613dc3565b9050919050565b7f496e73756666696369656e742062616c616e6365000000000000000000000000600082015250565b6000613e3c601483612b5f565b9150613e4782613e06565b602082019050919050565b60006020820190508181036000830152613e6b81613e2f565b9050919050565b6000613e7d826129cc565b91507fffffffffffffffffffffffffffffffffffffffffffffffffffffffffffffffff8203613eaf57613eae613c89565b5b600182019050919050565b60006060820190508181036000830152613ed48186612bab565b9050613ee36020830185612a42565b8181036040830152613ef58184612bab565b9050949350505050565b7f4d757374207374696c6c206f776e2074686520746f6b656e7320746f2063616e60008201527f63656c206c697374696e67000000000000000000000000000000000000000000602082015250565b6000613f5b602b83612b5f565b9150613f6682613eff565b604082019050919050565b60006020820190508181036000830152613f8a81613f4e565b9050919050565b7f4e6f20616374697665206c697374696e6720666f756e64000000000000000000600082015250565b6000613fc7601783612b5f565b9150613fd282613f91565b602082019050919050565b60006020820190508181036000830152613ff681613fba565b9050919050565b7f416d6f756e7420646f65736e2774206d61746368206c697374696e6700000000600082015250565b6000614033601c83612b5f565b915061403e82613ffd565b602082019050919050565b6000602082019050818103600083015261406281614026565b9050919050565b6000614074826129cc565b915061407f836129cc565b925082820190508082111561409757614096613c89565b5b92915050565b600060408201905081810360008301526140b781856130c0565b905081810360208301526140cb81846130c0565b90509392505050565b600081519050919050565b600082825260208201905092915050565b60006140fb826140d4565b61410581856140df565b9350614115818560208601612b70565b61411e81612b9a565b840191505092915050565b600060a08201905061413e6000830188613140565b61414b6020830187613140565b6141586040830186612a42565b6141656060830185612a42565b818103608083015261417781846140f0565b90509695505050505050565b60008151905061419281612a98565b92915050565b6000602082840312156141ae576141ad612964565b5b60006141bc84828501614183565b91505092915050565b600060a0820190506141da6000830188613140565b6141e76020830187613140565b81810360408301526141f981866130c0565b9050818103606083015261420d81856130c0565b9050818103608083015261422181846140f0565b9050969550505050505056fea26469706673582212208e79274860f530de704c7131904205f9847c8201bc3e2774405f951c32fd030364736f6c634300081c0033",
  "linkReferences": {},
  "deployedLinkReferences": {}
}