{
  "_format": "hh-sol-artifact-1",
  "contractName": "Land",
  "sourceName": "contracts/Land.sol",
  "abi": [
    {
      "inputs": [],
      "stateMutability": "nonpayable",
      "type": "constructor"
    },
    {
      "inputs": [
        {
          "internalType": "address",
          "name": "sender",
          "type": "address"
        },
        {
          "internalType": "uint256",
          "name": "balance",
          "type": "uint256"
        },
        {
          "internalType": "uint256",
          "name": "needed",
          "type": "uint256"
        },
        {
          "internalType": "uint256",
          "name": "tokenId",
          "type": "uint256"
        }
      ],
      "name": "ERC1155InsufficientBalance",
      "type": "error"
    },
    {
      "inputs": [
        {
          "internalType": "address",
          "name": "approver",
          "type": "address"
        }
      ],
      "name": "ERC1155InvalidApprover",
      "type": "error"
    },
    {
      "inputs": [
        {
          "internalType": "uint256",
          "name": "idsLength",
          "type": "uint256"
        },
        {
          "internalType": "uint256",
          "name": "valuesLength",
          "type": "uint256"
        }
      ],
      "name": "ERC1155InvalidArrayLength",
      "type": "error"
    },
    {
      "inputs": [
        {
          "internalType": "address",
          "name": "operator",
          "type": "address"
        }
      ],
      "name": "ERC1155InvalidOperator",
      "type": "error"
    },
    {
      "inputs": [
        {
          "internalType": "address",
          "name": "receiver",
          "type": "address"
        }
      ],
      "name": "ERC1155InvalidReceiver",
      "type": "error"
    },
    {
      "inputs": [
        {
          "internalType": "address",
          "name": "sender",
          "type": "address"
        }
      ],
      "name": "ERC1155InvalidSender",
      "type": "error"
    },
    {
      "inputs": [
        {
          "internalType": "address",
          "name": "operator",
          "type": "address"
        },
        {
          "internalType": "address",
          "name": "owner",
          "type": "address"
        }
      ],
      "name": "ERC1155MissingApprovalForAll",
      "type": "error"
    },
    {
      "inputs": [
        {
          "internalType": "address",
          "name": "owner",
          "type": "address"
        }
      ],
      "name": "OwnableInvalidOwner",
      "type": "error"
    },
    {
      "inputs": [
        {
          "internalType": "address",
          "name": "account",
          "type": "address"
        }
      ],
      "name": "OwnableUnauthorizedAccount",
      "type": "error"
    },
    {
      "anonymous": false,
      "inputs": [
        {
          "indexed": true,
          "internalType": "address",
          "name": "account",
          "type": "address"
        },
        {
          "indexed": true,
          "internalType": "address",
          "name": "operator",
          "type": "address"
        },
        {
          "indexed": false,
          "internalType": "bool",
          "name": "approved",
          "type": "bool"
        }
      ],
      "name": "ApprovalForAll",
      "type": "event"
    },
    {
      "anonymous": false,
      "inputs": [
        {
          "indexed": true,
          "internalType": "uint256",
          "name": "landId",
          "type": "uint256"
        },
        {
          "indexed": false,
          "internalType": "uint256",
          "name": "numberOfFractions",
          "type": "uint256"
        },
        {
          "indexed": false,
          "internalType": "string",
          "name": "metadataURI",
          "type": "string"
        }
      ],
      "name": "LandFractionalized",
      "type": "event"
    },
    {
      "anonymous": false,
      "inputs": [
        {
          "indexed": true,
          "internalType": "address",
          "name": "previousOwner",
          "type": "address"
        },
        {
          "indexed": true,
          "internalType": "address",
          "name": "newOwner",
          "type": "address"
        }
      ],
      "name": "OwnershipTransferred",
      "type": "event"
    },
    {
      "anonymous": false,
      "inputs": [
        {
          "indexed": true,
          "internalType": "uint256",
          "name": "landId",
          "type": "uint256"
        },
        {
          "indexed": true,
          "internalType": "address",
          "name": "seller",
          "type": "address"
        },
        {
          "indexed": false,
          "internalType": "uint256",
          "name": "amount",
          "type": "uint256"
        },
        {
          "indexed": false,
          "internalType": "uint256",
          "name": "pricePerToken",
          "type": "uint256"
        }
      ],
      "name": "TokensListedForSale",
      "type": "event"
    },
    {
      "anonymous": false,
      "inputs": [
        {
          "indexed": true,
          "internalType": "uint256",
          "name": "landId",
          "type": "uint256"
        },
        {
          "indexed": true,
          "internalType": "address",
          "name": "buyer",
          "type": "address"
        },
        {
          "indexed": true,
          "internalType": "address",
          "name": "seller",
          "type": "address"
        },
        {
          "indexed": false,
          "internalType": "uint256",
          "name": "amount",
          "type": "uint256"
        },
        {
          "indexed": false,
          "internalType": "uint256",
          "name": "pricePerToken",
          "type": "uint256"
        }
      ],
      "name": "TokensPurchased",
      "type": "event"
    },
    {
      "anonymous": false,
      "inputs": [
        {
          "indexed": true,
          "internalType": "address",
          "name": "operator",
          "type": "address"
        },
        {
          "indexed": true,
          "internalType": "address",
          "name": "from",
          "type": "address"
        },
        {
          "indexed": true,
          "internalType": "address",
          "name": "to",
          "type": "address"
        },
        {
          "indexed": false,
          "internalType": "uint256[]",
          "name": "ids",
          "type": "uint256[]"
        },
        {
          "indexed": false,
          "internalType": "uint256[]",
          "name": "values",
          "type": "uint256[]"
        }
      ],
      "name": "TransferBatch",
      "type": "event"
    },
    {
      "anonymous": false,
      "inputs": [
        {
          "indexed": true,
          "internalType": "address",
          "name": "from",
          "type": "address"
        },
        {
          "indexed": true,
          "internalType": "address",
          "name": "to",
          "type": "address"
        },
        {
          "indexed": false,
          "internalType": "uint256",
          "name": "landId",
          "type": "uint256"
        },
        {
          "indexed": false,
          "internalType": "uint256",
          "name": "amount",
          "type": "uint256"
        }
      ],
      "name": "TransferFractionalTokens",
      "type": "event"
    },
    {
      "anonymous": false,
      "inputs": [
        {
          "indexed": true,
          "internalType": "address",
          "name": "operator",
          "type": "address"
        },
        {
          "indexed": true,
          "internalType": "address",
          "name": "from",
          "type": "address"
        },
        {
          "indexed": true,
          "internalType": "address",
          "name": "to",
          "type": "address"
        },
        {
          "indexed": false,
          "internalType": "uint256",
          "name": "id",
          "type": "uint256"
        },
        {
          "indexed": false,
          "internalType": "uint256",
          "name": "value",
          "type": "uint256"
        }
      ],
      "name": "TransferSingle",
      "type": "event"
    },
    {
      "anonymous": false,
      "inputs": [
        {
          "indexed": false,
          "internalType": "string",
          "name": "value",
          "type": "string"
        },
        {
          "indexed": true,
          "internalType": "uint256",
          "name": "id",
          "type": "uint256"
        }
      ],
      "name": "URI",
      "type": "event"
    },
    {
      "inputs": [
        {
          "internalType": "address",
          "name": "account",
          "type": "address"
        },
        {
          "internalType": "uint256",
          "name": "id",
          "type": "uint256"
        }
      ],
      "name": "balanceOf",
      "outputs": [
        {
          "internalType": "uint256",
          "name": "",
          "type": "uint256"
        }
      ],
      "stateMutability": "view",
      "type": "function"
    },
    {
      "inputs": [
        {
          "internalType": "address[]",
          "name": "accounts",
          "type": "address[]"
        },
        {
          "internalType": "uint256[]",
          "name": "ids",
          "type": "uint256[]"
        }
      ],
      "name": "balanceOfBatch",
      "outputs": [
        {
          "internalType": "uint256[]",
          "name": "",
          "type": "uint256[]"
        }
      ],
      "stateMutability": "view",
      "type": "function"
    },
    {
      "inputs": [
        {
          "internalType": "string",
          "name": "metadataURI",
          "type": "string"
        },
        {
          "internalType": "uint256",
          "name": "numberOfFractions",
          "type": "uint256"
        }
      ],
      "name": "fractionalizeLand",
      "outputs": [],
      "stateMutability": "nonpayable",
      "type": "function"
    },
    {
      "inputs": [
        {
          "internalType": "address",
          "name": "account",
          "type": "address"
        },
        {
          "internalType": "address",
          "name": "operator",
          "type": "address"
        }
      ],
      "name": "isApprovedForAll",
      "outputs": [
        {
          "internalType": "bool",
          "name": "",
          "type": "bool"
        }
      ],
      "stateMutability": "view",
      "type": "function"
    },
    {
      "inputs": [
        {
          "internalType": "uint256",
          "name": "",
          "type": "uint256"
        }
      ],
      "name": "isFractionalized",
      "outputs": [
        {
          "internalType": "bool",
          "name": "",
          "type": "bool"
        }
      ],
      "stateMutability": "view",
      "type": "function"
    },
    {
      "inputs": [],
      "name": "landIdCounter",
      "outputs": [
        {
          "internalType": "uint256",
          "name": "",
          "type": "uint256"
        }
      ],
      "stateMutability": "view",
      "type": "function"
    },
    {
      "inputs": [
        {
          "internalType": "uint256",
          "name": "landId",
          "type": "uint256"
        },
        {
          "internalType": "uint256",
          "name": "amount",
          "type": "uint256"
        },
        {
          "internalType": "uint256",
          "name": "pricePerToken",
          "type": "uint256"
        }
      ],
      "name": "listTokensForSale",
      "outputs": [],
      "stateMutability": "nonpayable",
      "type": "function"
    },
    {
      "inputs": [],
      "name": "owner",
      "outputs": [
        {
          "internalType": "address",
          "name": "",
          "type": "address"
        }
      ],
      "stateMutability": "view",
      "type": "function"
    },
    {
      "inputs": [
        {
          "internalType": "uint256",
          "name": "landId",
          "type": "uint256"
        },
        {
          "components": [
            {
              "internalType": "address",
              "name": "seller",
              "type": "address"
            },
            {
              "internalType": "uint256",
              "name": "amount",
              "type": "uint256"
            },
            {
              "internalType": "uint256",
              "name": "pricePerToken",
              "type": "uint256"
            }
          ],
          "internalType": "struct Land.SaleOrder[]",
          "name": "orders",
          "type": "tuple[]"
        }
      ],
      "name": "purchaseTokens",
      "outputs": [],
      "stateMutability": "payable",
      "type": "function"
    },
    {
      "inputs": [],
      "name": "renounceOwnership",
      "outputs": [],
      "stateMutability": "nonpayable",
      "type": "function"
    },
    {
      "inputs": [
        {
          "internalType": "address",
          "name": "from",
          "type": "address"
        },
        {
          "internalType": "address",
          "name": "to",
          "type": "address"
        },
        {
          "internalType": "uint256[]",
          "name": "ids",
          "type": "uint256[]"
        },
        {
          "internalType": "uint256[]",
          "name": "values",
          "type": "uint256[]"
        },
        {
          "internalType": "bytes",
          "name": "data",
          "type": "bytes"
        }
      ],
      "name": "safeBatchTransferFrom",
      "outputs": [],
      "stateMutability": "nonpayable",
      "type": "function"
    },
    {
      "inputs": [
        {
          "internalType": "address",
          "name": "from",
          "type": "address"
        },
        {
          "internalType": "address",
          "name": "to",
          "type": "address"
        },
        {
          "internalType": "uint256",
          "name": "id",
          "type": "uint256"
        },
        {
          "internalType": "uint256",
          "name": "value",
          "type": "uint256"
        },
        {
          "internalType": "bytes",
          "name": "data",
          "type": "bytes"
        }
      ],
      "name": "safeTransferFrom",
      "outputs": [],
      "stateMutability": "nonpayable",
      "type": "function"
    },
    {
      "inputs": [
        {
          "internalType": "address",
          "name": "operator",
          "type": "address"
        },
        {
          "internalType": "bool",
          "name": "approved",
          "type": "bool"
        }
      ],
      "name": "setApprovalForAll",
      "outputs": [],
      "stateMutability": "nonpayable",
      "type": "function"
    },
    {
      "inputs": [
        {
          "internalType": "bytes4",
          "name": "interfaceId",
          "type": "bytes4"
        }
      ],
      "name": "supportsInterface",
      "outputs": [
        {
          "internalType": "bool",
          "name": "",
          "type": "bool"
        }
      ],
      "stateMutability": "view",
      "type": "function"
    },
    {
      "inputs": [
        {
          "internalType": "uint256",
          "name": "",
          "type": "uint256"
        }
      ],
      "name": "totalFractions",
      "outputs": [
        {
          "internalType": "uint256",
          "name": "",
          "type": "uint256"
        }
      ],
      "stateMutability": "view",
      "type": "function"
    },
    {
      "inputs": [
        {
          "internalType": "address",
          "name": "to",
          "type": "address"
        },
        {
          "internalType": "uint256",
          "name": "landId",
          "type": "uint256"
        },
        {
          "internalType": "uint256",
          "name": "amount",
          "type": "uint256"
        }
      ],
      "name": "transferFractionalTokens",
      "outputs": [],
      "stateMutability": "nonpayable",
      "type": "function"
    },
    {
      "inputs": [
        {
          "internalType": "address",
          "name": "newOwner",
          "type": "address"
        }
      ],
      "name": "transferOwnership",
      "outputs": [],
      "stateMutability": "nonpayable",
      "type": "function"
    },
    {
      "inputs": [
        {
          "internalType": "uint256",
          "name": "",
          "type": "uint256"
        }
      ],
      "name": "uri",
      "outputs": [
        {
          "internalType": "string",
          "name": "",
          "type": "string"
        }
      ],
      "stateMutability": "view",
      "type": "function"
    }
  ],
  "bytecode": "0x608060405234801561001057600080fd5b503360405180602001604052806000815250610031816100b960201b60201c565b50600073ffffffffffffffffffffffffffffffffffffffff168173ffffffffffffffffffffffffffffffffffffffff16036100a45760006040517f1e4fbdf700000000000000000000000000000000000000000000000000000000815260040161009b91906101d3565b60405180910390fd5b6100b3816100cc60201b60201c565b50610510565b80600290816100c8919061043e565b5050565b6000600360009054906101000a900473ffffffffffffffffffffffffffffffffffffffff16905081600360006101000a81548173ffffffffffffffffffffffffffffffffffffffff021916908373ffffffffffffffffffffffffffffffffffffffff1602179055508173ffffffffffffffffffffffffffffffffffffffff168173ffffffffffffffffffffffffffffffffffffffff167f8be0079c531659141344cd1fd0a4f28419497f9722a3daafe3b4186f6b6457e060405160405180910390a35050565b600073ffffffffffffffffffffffffffffffffffffffff82169050919050565b60006101bd82610192565b9050919050565b6101cd816101b2565b82525050565b60006020820190506101e860008301846101c4565b92915050565b600081519050919050565b7f4e487b7100000000000000000000000000000000000000000000000000000000600052604160045260246000fd5b7f4e487b7100000000000000000000000000000000000000000000000000000000600052602260045260246000fd5b6000600282049050600182168061026f57607f821691505b60208210810361028257610281610228565b5b50919050565b60008190508160005260206000209050919050565b60006020601f8301049050919050565b600082821b905092915050565b6000600883026102ea7fffffffffffffffffffffffffffffffffffffffffffffffffffffffffffffffff826102ad565b6102f486836102ad565b95508019841693508086168417925050509392505050565b6000819050919050565b6000819050919050565b600061033b6103366103318461030c565b610316565b61030c565b9050919050565b6000819050919050565b61035583610320565b61036961036182610342565b8484546102ba565b825550505050565b600090565b61037e610371565b61038981848461034c565b505050565b5b818110156103ad576103a2600082610376565b60018101905061038f565b5050565b601f8211156103f2576103c381610288565b6103cc8461029d565b810160208510156103db578190505b6103ef6103e78561029d565b83018261038e565b50505b505050565b600082821c905092915050565b6000610415600019846008026103f7565b1980831691505092915050565b600061042e8383610404565b9150826002028217905092915050565b610447826101ee565b67ffffffffffffffff8111156104605761045f6101f9565b5b61046a8254610257565b6104758282856103b1565b600060209050601f8311600181146104a85760008415610496578287015190505b6104a08582610422565b865550610508565b601f1984166104b686610288565b60005b828110156104de578489015182556001820191506020850194506020810190506104b9565b868310156104fb57848901516104f7601f891682610404565b8355505b6001600288020188555050505b505050505050565b6131828061051f6000396000f3fe6080604052600436106101085760003560e01c80638da5cb5b11610095578063b86b19de11610064578063b86b19de14610369578063e985e9c5146103a6578063f1807e5c146103e3578063f242432a1461040e578063f2fde38b1461043757610108565b80638da5cb5b146102c3578063a22cb465146102ee578063a379c87714610317578063afe9b7da1461034057610108565b80633845a442116100dc5780633845a442146101ed5780634a687aaa146102095780634e1273f414610232578063715018a61461026f578063766de47f1461028657610108565b8062fdd58e1461010d57806301ffc9a71461014a5780630e89341c146101875780632eb2c2d6146101c4575b600080fd5b34801561011957600080fd5b50610134600480360381019061012f9190611f1e565b610460565b6040516101419190611f6d565b60405180910390f35b34801561015657600080fd5b50610171600480360381019061016c9190611fe0565b6104ba565b60405161017e9190612028565b60405180910390f35b34801561019357600080fd5b506101ae60048036038101906101a99190612043565b61059c565b6040516101bb9190612100565b60405180910390f35b3480156101d057600080fd5b506101eb60048036038101906101e6919061231f565b610630565b005b61020760048036038101906102029190612449565b6106d8565b005b34801561021557600080fd5b50610230600480360381019061022b919061254a565b610a56565b005b34801561023e57600080fd5b5061025960048036038101906102549190612669565b610b1b565b604051610266919061279f565b60405180910390f35b34801561027b57600080fd5b50610284610c24565b005b34801561029257600080fd5b506102ad60048036038101906102a89190612043565b610c38565b6040516102ba9190611f6d565b60405180910390f35b3480156102cf57600080fd5b506102d8610c50565b6040516102e591906127d0565b60405180910390f35b3480156102fa57600080fd5b5061031560048036038101906103109190612817565b610c7a565b005b34801561032357600080fd5b5061033e60048036038101906103399190612857565b610c90565b005b34801561034c57600080fd5b50610367600480360381019061036291906128aa565b610dd5565b005b34801561037557600080fd5b50610390600480360381019061038b9190612043565b610ea9565b60405161039d9190612028565b60405180910390f35b3480156103b257600080fd5b506103cd60048036038101906103c891906128fd565b610ec9565b6040516103da9190612028565b60405180910390f35b3480156103ef57600080fd5b506103f8610f5d565b6040516104059190611f6d565b60405180910390f35b34801561041a57600080fd5b506104356004803603810190610430919061293d565b610f63565b005b34801561044357600080fd5b5061045e600480360381019061045991906129d4565b61100b565b005b600080600083815260200190815260200160002060008473ffffffffffffffffffffffffffffffffffffffff1673ffffffffffffffffffffffffffffffffffffffff16815260200190815260200160002054905092915050565b60007fd9b67a26000000000000000000000000000000000000000000000000000000007bffffffffffffffffffffffffffffffffffffffffffffffffffffffff1916827bffffffffffffffffffffffffffffffffffffffffffffffffffffffff1916148061058557507f0e89341c000000000000000000000000000000000000000000000000000000007bffffffffffffffffffffffffffffffffffffffffffffffffffffffff1916827bffffffffffffffffffffffffffffffffffffffffffffffffffffffff1916145b80610595575061059482611091565b5b9050919050565b6060600280546105ab90612a30565b80601f01602080910402602001604051908101604052809291908181526020018280546105d790612a30565b80156106245780601f106105f957610100808354040283529160200191610624565b820191906000526020600020905b81548152906001019060200180831161060757829003601f168201915b50505050509050919050565b600061063a6110fb565b90508073ffffffffffffffffffffffffffffffffffffffff168673ffffffffffffffffffffffffffffffffffffffff161415801561067f575061067d8682610ec9565b155b156106c35780866040517fe237d9220000000000000000000000000000000000000000000000000000000081526004016106ba929190612a61565b60405180910390fd5b6106d08686868686611103565b505050505050565b6006600084815260200190815260200160002060009054906101000a900460ff16610738576040517f08c379a000000000000000000000000000000000000000000000000000000000815260040161072f90612afc565b60405180910390fd5b60008060005b848490508110156108635784848281811061075c5761075b612b1c565b5b9050606002016020013561079a86868481811061077c5761077b612b1c565b5b905060600201600001602081019061079491906129d4565b88610460565b10156107db576040517f08c379a00000000000000000000000000000000000000000000000000000000081526004016107d290612b97565b60405180910390fd5b8484828181106107ee576107ed612b1c565b5b90506060020160200135836108039190612be6565b925084848281811061081857610817612b1c565b5b9050606002016040013585858381811061083557610834612b1c565b5b905060600201602001356108499190612c1a565b826108549190612be6565b9150808060010191505061073e565b50803410156108a7576040517f08c379a000000000000000000000000000000000000000000000000000000000815260040161089e90612ca8565b60405180910390fd5b60005b848490508110156109ec5760008585838181106108ca576108c9612b1c565b5b9050606002018036038101906108e09190612d31565b905061090681600001513389846020015160405180602001604052806000815250610f63565b60008160400151826020015161091c9190612c1a565b9050816000015173ffffffffffffffffffffffffffffffffffffffff166108fc829081150290604051600060405180830381858888f19350505050158015610968573d6000803e3d6000fd5b50816000015173ffffffffffffffffffffffffffffffffffffffff163373ffffffffffffffffffffffffffffffffffffffff16897f06a468bc780ea805d80491ed9f300c36122c94bcb715acc7a8606f510f6c2ecd856020015186604001516040516109d5929190612d5e565b60405180910390a4505080806001019150506108aa565b50600081346109fb9190612d87565b90506000811115610a4e573373ffffffffffffffffffffffffffffffffffffffff166108fc829081150290604051600060405180830381858888f19350505050158015610a4c573d6000803e3d6000fd5b505b505050505050565b610a5e6111fb565b60046000815480929190610a7190612dbb565b919050555060006004549050610a9833828460405180602001604052806000815250611282565b81600560008381526020019081526020016000208190555060016006600083815260200190815260200160002060006101000a81548160ff021916908315150217905550807fe04f3628166f9d500265606417509e03be4579a17394e8c4e1fa86c4fa0e4fae8385604051610b0e929190612e03565b60405180910390a2505050565b60608151835114610b6757815183516040517f5b059991000000000000000000000000000000000000000000000000000000008152600401610b5e929190612d5e565b60405180910390fd5b6000835167ffffffffffffffff811115610b8457610b83612127565b5b604051908082528060200260200182016040528015610bb25781602001602082028036833780820191505090505b50905060005b8451811015610c1957610bef610bd7828761131b90919063ffffffff16565b610bea838761132f90919063ffffffff16565b610460565b828281518110610c0257610c01612b1c565b5b602002602001018181525050806001019050610bb8565b508091505092915050565b610c2c6111fb565b610c366000611343565b565b60056020528060005260406000206000915090505481565b6000600360009054906101000a900473ffffffffffffffffffffffffffffffffffffffff16905090565b610c8c610c856110fb565b8383611409565b5050565b6006600084815260200190815260200160002060009054906101000a900460ff16610cf0576040517f08c379a0000000000000000000000000000000000000000000000000000000008152600401610ce790612afc565b60405180910390fd5b81610cfb3385610460565b1015610d3c576040517f08c379a0000000000000000000000000000000000000000000000000000000008152600401610d3390612e7f565b60405180910390fd5b60008111610d7f576040517f08c379a0000000000000000000000000000000000000000000000000000000008152600401610d7690612eeb565b60405180910390fd5b3373ffffffffffffffffffffffffffffffffffffffff16837f8098ce837a1e7f11070ca4eb3fecff815014e0245b2788d11377149251c2b55b8484604051610dc8929190612d5e565b60405180910390a3505050565b80610de03384610460565b1015610e21576040517f08c379a0000000000000000000000000000000000000000000000000000000008152600401610e1890612f57565b60405180910390fd5b610e3d3384848460405180602001604052806000815250610f63565b8273ffffffffffffffffffffffffffffffffffffffff163373ffffffffffffffffffffffffffffffffffffffff167fa26bbe54fa0532e401916ac988b0e6d0a482b1e3de4a53dd1718aba39eeae7ad8484604051610e9c929190612d5e565b60405180910390a3505050565b60066020528060005260406000206000915054906101000a900460ff1681565b6000600160008473ffffffffffffffffffffffffffffffffffffffff1673ffffffffffffffffffffffffffffffffffffffff16815260200190815260200160002060008373ffffffffffffffffffffffffffffffffffffffff1673ffffffffffffffffffffffffffffffffffffffff16815260200190815260200160002060009054906101000a900460ff16905092915050565b60045481565b6000610f6d6110fb565b90508073ffffffffffffffffffffffffffffffffffffffff168673ffffffffffffffffffffffffffffffffffffffff1614158015610fb25750610fb08682610ec9565b155b15610ff65780866040517fe237d922000000000000000000000000000000000000000000000000000000008152600401610fed929190612a61565b60405180910390fd5b6110038686868686611579565b505050505050565b6110136111fb565b600073ffffffffffffffffffffffffffffffffffffffff168173ffffffffffffffffffffffffffffffffffffffff16036110855760006040517f1e4fbdf700000000000000000000000000000000000000000000000000000000815260040161107c91906127d0565b60405180910390fd5b61108e81611343565b50565b60007f01ffc9a7000000000000000000000000000000000000000000000000000000007bffffffffffffffffffffffffffffffffffffffffffffffffffffffff1916827bffffffffffffffffffffffffffffffffffffffffffffffffffffffff1916149050919050565b600033905090565b600073ffffffffffffffffffffffffffffffffffffffff168473ffffffffffffffffffffffffffffffffffffffff16036111755760006040517f57f447ce00000000000000000000000000000000000000000000000000000000815260040161116c91906127d0565b60405180910390fd5b600073ffffffffffffffffffffffffffffffffffffffff168573ffffffffffffffffffffffffffffffffffffffff16036111e75760006040517f01a835140000000000000000000000000000000000000000000000000000000081526004016111de91906127d0565b60405180910390fd5b6111f48585858585611684565b5050505050565b6112036110fb565b73ffffffffffffffffffffffffffffffffffffffff16611221610c50565b73ffffffffffffffffffffffffffffffffffffffff1614611280576112446110fb565b6040517f118cdaa700000000000000000000000000000000000000000000000000000000815260040161127791906127d0565b60405180910390fd5b565b600073ffffffffffffffffffffffffffffffffffffffff168473ffffffffffffffffffffffffffffffffffffffff16036112f45760006040517f57f447ce0000000000000000000000000000000000000000000000000000000081526004016112eb91906127d0565b60405180910390fd5b6000806113018585611736565b91509150611313600087848487611684565b505050505050565b600060208202602084010151905092915050565b600060208202602084010151905092915050565b6000600360009054906101000a900473ffffffffffffffffffffffffffffffffffffffff16905081600360006101000a81548173ffffffffffffffffffffffffffffffffffffffff021916908373ffffffffffffffffffffffffffffffffffffffff1602179055508173ffffffffffffffffffffffffffffffffffffffff168173ffffffffffffffffffffffffffffffffffffffff167f8be0079c531659141344cd1fd0a4f28419497f9722a3daafe3b4186f6b6457e060405160405180910390a35050565b600073ffffffffffffffffffffffffffffffffffffffff168273ffffffffffffffffffffffffffffffffffffffff160361147b5760006040517fced3e10000000000000000000000000000000000000000000000000000000000815260040161147291906127d0565b60405180910390fd5b80600160008573ffffffffffffffffffffffffffffffffffffffff1673ffffffffffffffffffffffffffffffffffffffff16815260200190815260200160002060008473ffffffffffffffffffffffffffffffffffffffff1673ffffffffffffffffffffffffffffffffffffffff16815260200190815260200160002060006101000a81548160ff0219169083151502179055508173ffffffffffffffffffffffffffffffffffffffff168373ffffffffffffffffffffffffffffffffffffffff167f17307eab39ab6107e8899845ad3d59bd9653f200f220920489ca2b5937696c318360405161156c9190612028565b60405180910390a3505050565b600073ffffffffffffffffffffffffffffffffffffffff168473ffffffffffffffffffffffffffffffffffffffff16036115eb5760006040517f57f447ce0000000000000000000000000000000000000000000000000000000081526004016115e291906127d0565b60405180910390fd5b600073ffffffffffffffffffffffffffffffffffffffff168573ffffffffffffffffffffffffffffffffffffffff160361165d5760006040517f01a8351400000000000000000000000000000000000000000000000000000000815260040161165491906127d0565b60405180910390fd5b60008061166a8585611736565b9150915061167b8787848487611684565b50505050505050565b61169085858585611766565b600073ffffffffffffffffffffffffffffffffffffffff168473ffffffffffffffffffffffffffffffffffffffff161461172f5760006116ce6110fb565b9050600184510361171e5760006116ef60008661132f90919063ffffffff16565b9050600061170760008661132f90919063ffffffff16565b9050611717838989858589611b0e565b505061172d565b61172c818787878787611cc2565b5b505b5050505050565b60608060405191506001825283602083015260408201905060018152826020820152604081016040529250929050565b80518251146117b057815181516040517f5b0599910000000000000000000000000000000000000000000000000000000081526004016117a7929190612d5e565b60405180910390fd5b60006117ba6110fb565b905060005b83518110156119c95760006117dd828661132f90919063ffffffff16565b905060006117f4838661132f90919063ffffffff16565b9050600073ffffffffffffffffffffffffffffffffffffffff168873ffffffffffffffffffffffffffffffffffffffff161461192157600080600084815260200190815260200160002060008a73ffffffffffffffffffffffffffffffffffffffff1673ffffffffffffffffffffffffffffffffffffffff168152602001908152602001600020549050818110156118c957888183856040517f03dee4c50000000000000000000000000000000000000000000000000000000081526004016118c09493929190612f77565b60405180910390fd5b81810360008085815260200190815260200160002060008b73ffffffffffffffffffffffffffffffffffffffff1673ffffffffffffffffffffffffffffffffffffffff16815260200190815260200160002081905550505b600073ffffffffffffffffffffffffffffffffffffffff168773ffffffffffffffffffffffffffffffffffffffff16146119bc578060008084815260200190815260200160002060008973ffffffffffffffffffffffffffffffffffffffff1673ffffffffffffffffffffffffffffffffffffffff16815260200190815260200160002060008282546119b49190612be6565b925050819055505b50508060010190506117bf565b506001835103611a885760006119e960008561132f90919063ffffffff16565b90506000611a0160008561132f90919063ffffffff16565b90508573ffffffffffffffffffffffffffffffffffffffff168773ffffffffffffffffffffffffffffffffffffffff168473ffffffffffffffffffffffffffffffffffffffff167fc3d58168c5ae7397731d063d5bbf3d657854427343f4c083240f7aacaa2d0f628585604051611a79929190612d5e565b60405180910390a45050611b07565b8373ffffffffffffffffffffffffffffffffffffffff168573ffffffffffffffffffffffffffffffffffffffff168273ffffffffffffffffffffffffffffffffffffffff167f4a39dc06d4c0dbc64b70af90fd698a233a518aa5d07e595d983b8c0526c8f7fb8686604051611afe929190612fbc565b60405180910390a45b5050505050565b60008473ffffffffffffffffffffffffffffffffffffffff163b1115611cba578373ffffffffffffffffffffffffffffffffffffffff1663f23a6e6187878686866040518663ffffffff1660e01b8152600401611b6f959493929190613048565b6020604051808303816000875af1925050508015611bab57506040513d601f19601f82011682018060405250810190611ba891906130b7565b60015b611c2f573d8060008114611bdb576040519150601f19603f3d011682016040523d82523d6000602084013e611be0565b606091505b506000815103611c2757846040517f57f447ce000000000000000000000000000000000000000000000000000000008152600401611c1e91906127d0565b60405180910390fd5b805181602001fd5b63f23a6e6160e01b7bffffffffffffffffffffffffffffffffffffffffffffffffffffffff1916817bffffffffffffffffffffffffffffffffffffffffffffffffffffffff191614611cb857846040517f57f447ce000000000000000000000000000000000000000000000000000000008152600401611caf91906127d0565b60405180910390fd5b505b505050505050565b60008473ffffffffffffffffffffffffffffffffffffffff163b1115611e6e578373ffffffffffffffffffffffffffffffffffffffff1663bc197c8187878686866040518663ffffffff1660e01b8152600401611d239594939291906130e4565b6020604051808303816000875af1925050508015611d5f57506040513d601f19601f82011682018060405250810190611d5c91906130b7565b60015b611de3573d8060008114611d8f576040519150601f19603f3d011682016040523d82523d6000602084013e611d94565b606091505b506000815103611ddb57846040517f57f447ce000000000000000000000000000000000000000000000000000000008152600401611dd291906127d0565b60405180910390fd5b805181602001fd5b63bc197c8160e01b7bffffffffffffffffffffffffffffffffffffffffffffffffffffffff1916817bffffffffffffffffffffffffffffffffffffffffffffffffffffffff191614611e6c57846040517f57f447ce000000000000000000000000000000000000000000000000000000008152600401611e6391906127d0565b60405180910390fd5b505b505050505050565b6000604051905090565b600080fd5b600080fd5b600073ffffffffffffffffffffffffffffffffffffffff82169050919050565b6000611eb582611e8a565b9050919050565b611ec581611eaa565b8114611ed057600080fd5b50565b600081359050611ee281611ebc565b92915050565b6000819050919050565b611efb81611ee8565b8114611f0657600080fd5b50565b600081359050611f1881611ef2565b92915050565b60008060408385031215611f3557611f34611e80565b5b6000611f4385828601611ed3565b9250506020611f5485828601611f09565b9150509250929050565b611f6781611ee8565b82525050565b6000602082019050611f826000830184611f5e565b92915050565b60007fffffffff0000000000000000000000000000000000000000000000000000000082169050919050565b611fbd81611f88565b8114611fc857600080fd5b50565b600081359050611fda81611fb4565b92915050565b600060208284031215611ff657611ff5611e80565b5b600061200484828501611fcb565b91505092915050565b60008115159050919050565b6120228161200d565b82525050565b600060208201905061203d6000830184612019565b92915050565b60006020828403121561205957612058611e80565b5b600061206784828501611f09565b91505092915050565b600081519050919050565b600082825260208201905092915050565b60005b838110156120aa57808201518184015260208101905061208f565b60008484015250505050565b6000601f19601f8301169050919050565b60006120d282612070565b6120dc818561207b565b93506120ec81856020860161208c565b6120f5816120b6565b840191505092915050565b6000602082019050818103600083015261211a81846120c7565b905092915050565b600080fd5b7f4e487b7100000000000000000000000000000000000000000000000000000000600052604160045260246000fd5b61215f826120b6565b810181811067ffffffffffffffff8211171561217e5761217d612127565b5b80604052505050565b6000612191611e76565b905061219d8282612156565b919050565b600067ffffffffffffffff8211156121bd576121bc612127565b5b602082029050602081019050919050565b600080fd5b60006121e66121e1846121a2565b612187565b90508083825260208201905060208402830185811115612209576122086121ce565b5b835b81811015612232578061221e8882611f09565b84526020840193505060208101905061220b565b5050509392505050565b600082601f83011261225157612250612122565b5b81356122618482602086016121d3565b91505092915050565b600080fd5b600067ffffffffffffffff82111561228a57612289612127565b5b612293826120b6565b9050602081019050919050565b82818337600083830152505050565b60006122c26122bd8461226f565b612187565b9050828152602081018484840111156122de576122dd61226a565b5b6122e98482856122a0565b509392505050565b600082601f83011261230657612305612122565b5b81356123168482602086016122af565b91505092915050565b600080600080600060a0868803121561233b5761233a611e80565b5b600061234988828901611ed3565b955050602061235a88828901611ed3565b945050604086013567ffffffffffffffff81111561237b5761237a611e85565b5b6123878882890161223c565b935050606086013567ffffffffffffffff8111156123a8576123a7611e85565b5b6123b48882890161223c565b925050608086013567ffffffffffffffff8111156123d5576123d4611e85565b5b6123e1888289016122f1565b9150509295509295909350565b600080fd5b60008083601f84011261240957612408612122565b5b8235905067ffffffffffffffff811115612426576124256123ee565b5b602083019150836060820283011115612442576124416121ce565b5b9250929050565b60008060006040848603121561246257612461611e80565b5b600061247086828701611f09565b935050602084013567ffffffffffffffff81111561249157612490611e85565b5b61249d868287016123f3565b92509250509250925092565b600067ffffffffffffffff8211156124c4576124c3612127565b5b6124cd826120b6565b9050602081019050919050565b60006124ed6124e8846124a9565b612187565b9050828152602081018484840111156125095761250861226a565b5b6125148482856122a0565b509392505050565b600082601f83011261253157612530612122565b5b81356125418482602086016124da565b91505092915050565b6000806040838503121561256157612560611e80565b5b600083013567ffffffffffffffff81111561257f5761257e611e85565b5b61258b8582860161251c565b925050602061259c85828601611f09565b9150509250929050565b600067ffffffffffffffff8211156125c1576125c0612127565b5b602082029050602081019050919050565b60006125e56125e0846125a6565b612187565b90508083825260208201905060208402830185811115612608576126076121ce565b5b835b81811015612631578061261d8882611ed3565b84526020840193505060208101905061260a565b5050509392505050565b600082601f8301126126505761264f612122565b5b81356126608482602086016125d2565b91505092915050565b600080604083850312156126805761267f611e80565b5b600083013567ffffffffffffffff81111561269e5761269d611e85565b5b6126aa8582860161263b565b925050602083013567ffffffffffffffff8111156126cb576126ca611e85565b5b6126d78582860161223c565b9150509250929050565b600081519050919050565b600082825260208201905092915050565b6000819050602082019050919050565b61271681611ee8565b82525050565b6000612728838361270d565b60208301905092915050565b6000602082019050919050565b600061274c826126e1565b61275681856126ec565b9350612761836126fd565b8060005b83811015612792578151612779888261271c565b975061278483612734565b925050600181019050612765565b5085935050505092915050565b600060208201905081810360008301526127b98184612741565b905092915050565b6127ca81611eaa565b82525050565b60006020820190506127e560008301846127c1565b92915050565b6127f48161200d565b81146127ff57600080fd5b50565b600081359050612811816127eb565b92915050565b6000806040838503121561282e5761282d611e80565b5b600061283c85828601611ed3565b925050602061284d85828601612802565b9150509250929050565b6000806000606084860312156128705761286f611e80565b5b600061287e86828701611f09565b935050602061288f86828701611f09565b92505060406128a086828701611f09565b9150509250925092565b6000806000606084860312156128c3576128c2611e80565b5b60006128d186828701611ed3565b93505060206128e286828701611f09565b92505060406128f386828701611f09565b9150509250925092565b6000806040838503121561291457612913611e80565b5b600061292285828601611ed3565b925050602061293385828601611ed3565b9150509250929050565b600080600080600060a0868803121561295957612958611e80565b5b600061296788828901611ed3565b955050602061297888828901611ed3565b945050604061298988828901611f09565b935050606061299a88828901611f09565b925050608086013567ffffffffffffffff8111156129bb576129ba611e85565b5b6129c7888289016122f1565b9150509295509295909350565b6000602082840312156129ea576129e9611e80565b5b60006129f884828501611ed3565b91505092915050565b7f4e487b7100000000000000000000000000000000000000000000000000000000600052602260045260246000fd5b60006002820490506001821680612a4857607f821691505b602082108103612a5b57612a5a612a01565b5b50919050565b6000604082019050612a7660008301856127c1565b612a8360208301846127c1565b9392505050565b7f4c616e64206d757374206265206672616374696f6e616c697a6564206669727360008201527f7400000000000000000000000000000000000000000000000000000000000000602082015250565b6000612ae660218361207b565b9150612af182612a8a565b604082019050919050565b60006020820190508181036000830152612b1581612ad9565b9050919050565b7f4e487b7100000000000000000000000000000000000000000000000000000000600052603260045260246000fd5b7f53656c6c65722068617320696e73756666696369656e742062616c616e636500600082015250565b6000612b81601f8361207b565b9150612b8c82612b4b565b602082019050919050565b60006020820190508181036000830152612bb081612b74565b9050919050565b7f4e487b7100000000000000000000000000000000000000000000000000000000600052601160045260246000fd5b6000612bf182611ee8565b9150612bfc83611ee8565b9250828201905080821115612c1457612c13612bb7565b5b92915050565b6000612c2582611ee8565b9150612c3083611ee8565b9250828202612c3e81611ee8565b91508282048414831517612c5557612c54612bb7565b5b5092915050565b7f496e73756666696369656e74207061796d656e74000000000000000000000000600082015250565b6000612c9260148361207b565b9150612c9d82612c5c565b602082019050919050565b60006020820190508181036000830152612cc181612c85565b9050919050565b600080fd5b600060608284031215612ce357612ce2612cc8565b5b612ced6060612187565b90506000612cfd84828501611ed3565b6000830152506020612d1184828501611f09565b6020830152506040612d2584828501611f09565b60408301525092915050565b600060608284031215612d4757612d46611e80565b5b6000612d5584828501612ccd565b91505092915050565b6000604082019050612d736000830185611f5e565b612d806020830184611f5e565b9392505050565b6000612d9282611ee8565b9150612d9d83611ee8565b9250828203905081811115612db557612db4612bb7565b5b92915050565b6000612dc682611ee8565b91507fffffffffffffffffffffffffffffffffffffffffffffffffffffffffffffffff8203612df857612df7612bb7565b5b600182019050919050565b6000604082019050612e186000830185611f5e565b8181036020830152612e2a81846120c7565b90509392505050565b7f496e73756666696369656e7420746f6b656e2062616c616e6365000000000000600082015250565b6000612e69601a8361207b565b9150612e7482612e33565b602082019050919050565b60006020820190508181036000830152612e9881612e5c565b9050919050565b7f5072696365206d7573742062652067726561746572207468616e203000000000600082015250565b6000612ed5601c8361207b565b9150612ee082612e9f565b602082019050919050565b60006020820190508181036000830152612f0481612ec8565b9050919050565b7f496e73756666696369656e742062616c616e6365000000000000000000000000600082015250565b6000612f4160148361207b565b9150612f4c82612f0b565b602082019050919050565b60006020820190508181036000830152612f7081612f34565b9050919050565b6000608082019050612f8c60008301876127c1565b612f996020830186611f5e565b612fa66040830185611f5e565b612fb36060830184611f5e565b95945050505050565b60006040820190508181036000830152612fd68185612741565b90508181036020830152612fea8184612741565b90509392505050565b600081519050919050565b600082825260208201905092915050565b600061301a82612ff3565b6130248185612ffe565b935061303481856020860161208c565b61303d816120b6565b840191505092915050565b600060a08201905061305d60008301886127c1565b61306a60208301876127c1565b6130776040830186611f5e565b6130846060830185611f5e565b8181036080830152613096818461300f565b90509695505050505050565b6000815190506130b181611fb4565b92915050565b6000602082840312156130cd576130cc611e80565b5b60006130db848285016130a2565b91505092915050565b600060a0820190506130f960008301886127c1565b61310660208301876127c1565b81810360408301526131188186612741565b9050818103606083015261312c8185612741565b90508181036080830152613140818461300f565b9050969550505050505056fea26469706673582212203c84e286b24672d5cc5cd0c0c753774c71eb14ee26ac7e99cb7adfaf3b60a28164736f6c634300081c0033",
  "linkReferences": {},
  "deployedLinkReferences": {}
}