{
  "_format": "hh-sol-artifact-1",
  "contractName": "Land",
  "sourceName": "contracts/Land.sol",
  "abi": [
    {
      "inputs": [],
      "stateMutability": "nonpayable",
      "type": "constructor"
    },
    {
      "inputs": [
        {
          "internalType": "address",
          "name": "sender",
          "type": "address"
        },
        {
          "internalType": "uint256",
          "name": "balance",
          "type": "uint256"
        },
        {
          "internalType": "uint256",
          "name": "needed",
          "type": "uint256"
        },
        {
          "internalType": "uint256",
          "name": "tokenId",
          "type": "uint256"
        }
      ],
      "name": "ERC1155InsufficientBalance",
      "type": "error"
    },
    {
      "inputs": [
        {
          "internalType": "address",
          "name": "approver",
          "type": "address"
        }
      ],
      "name": "ERC1155InvalidApprover",
      "type": "error"
    },
    {
      "inputs": [
        {
          "internalType": "uint256",
          "name": "idsLength",
          "type": "uint256"
        },
        {
          "internalType": "uint256",
          "name": "valuesLength",
          "type": "uint256"
        }
      ],
      "name": "ERC1155InvalidArrayLength",
      "type": "error"
    },
    {
      "inputs": [
        {
          "internalType": "address",
          "name": "operator",
          "type": "address"
        }
      ],
      "name": "ERC1155InvalidOperator",
      "type": "error"
    },
    {
      "inputs": [
        {
          "internalType": "address",
          "name": "receiver",
          "type": "address"
        }
      ],
      "name": "ERC1155InvalidReceiver",
      "type": "error"
    },
    {
      "inputs": [
        {
          "internalType": "address",
          "name": "sender",
          "type": "address"
        }
      ],
      "name": "ERC1155InvalidSender",
      "type": "error"
    },
    {
      "inputs": [
        {
          "internalType": "address",
          "name": "operator",
          "type": "address"
        },
        {
          "internalType": "address",
          "name": "owner",
          "type": "address"
        }
      ],
      "name": "ERC1155MissingApprovalForAll",
      "type": "error"
    },
    {
      "inputs": [
        {
          "internalType": "address",
          "name": "owner",
          "type": "address"
        }
      ],
      "name": "OwnableInvalidOwner",
      "type": "error"
    },
    {
      "inputs": [
        {
          "internalType": "address",
          "name": "account",
          "type": "address"
        }
      ],
      "name": "OwnableUnauthorizedAccount",
      "type": "error"
    },
    {
      "anonymous": false,
      "inputs": [
        {
          "indexed": true,
          "internalType": "address",
          "name": "account",
          "type": "address"
        },
        {
          "indexed": true,
          "internalType": "address",
          "name": "operator",
          "type": "address"
        },
        {
          "indexed": false,
          "internalType": "bool",
          "name": "approved",
          "type": "bool"
        }
      ],
      "name": "ApprovalForAll",
      "type": "event"
    },
    {
      "anonymous": false,
      "inputs": [
        {
          "indexed": true,
          "internalType": "uint256",
          "name": "landId",
          "type": "uint256"
        },
        {
          "indexed": false,
          "internalType": "uint256",
          "name": "numberOfFractions",
          "type": "uint256"
        },
        {
          "indexed": false,
          "internalType": "string",
          "name": "metadataURI",
          "type": "string"
        }
      ],
      "name": "LandFractionalized",
      "type": "event"
    },
    {
      "anonymous": false,
      "inputs": [
        {
          "indexed": true,
          "internalType": "address",
          "name": "previousOwner",
          "type": "address"
        },
        {
          "indexed": true,
          "internalType": "address",
          "name": "newOwner",
          "type": "address"
        }
      ],
      "name": "OwnershipTransferred",
      "type": "event"
    },
    {
      "anonymous": false,
      "inputs": [
        {
          "indexed": true,
          "internalType": "uint256",
          "name": "landId",
          "type": "uint256"
        },
        {
          "indexed": true,
          "internalType": "address",
          "name": "seller",
          "type": "address"
        },
        {
          "indexed": false,
          "internalType": "uint256",
          "name": "amount",
          "type": "uint256"
        },
        {
          "indexed": false,
          "internalType": "uint256",
          "name": "pricePerToken",
          "type": "uint256"
        }
      ],
      "name": "TokensListedForSale",
      "type": "event"
    },
    {
      "anonymous": false,
      "inputs": [
        {
          "indexed": true,
          "internalType": "uint256",
          "name": "landId",
          "type": "uint256"
        },
        {
          "indexed": true,
          "internalType": "address",
          "name": "seller",
          "type": "address"
        },
        {
          "indexed": false,
          "internalType": "uint256",
          "name": "amount",
          "type": "uint256"
        },
        {
          "indexed": false,
          "internalType": "uint256",
          "name": "pricePerToken",
          "type": "uint256"
        }
      ],
      "name": "TokensListingCancelled",
      "type": "event"
    },
    {
      "anonymous": false,
      "inputs": [
        {
          "indexed": true,
          "internalType": "uint256",
          "name": "landId",
          "type": "uint256"
        },
        {
          "indexed": true,
          "internalType": "address",
          "name": "buyer",
          "type": "address"
        },
        {
          "indexed": true,
          "internalType": "address",
          "name": "seller",
          "type": "address"
        },
        {
          "indexed": false,
          "internalType": "uint256",
          "name": "amount",
          "type": "uint256"
        },
        {
          "indexed": false,
          "internalType": "uint256",
          "name": "pricePerToken",
          "type": "uint256"
        }
      ],
      "name": "TokensPurchased",
      "type": "event"
    },
    {
      "anonymous": false,
      "inputs": [
        {
          "indexed": true,
          "internalType": "address",
          "name": "operator",
          "type": "address"
        },
        {
          "indexed": true,
          "internalType": "address",
          "name": "from",
          "type": "address"
        },
        {
          "indexed": true,
          "internalType": "address",
          "name": "to",
          "type": "address"
        },
        {
          "indexed": false,
          "internalType": "uint256[]",
          "name": "ids",
          "type": "uint256[]"
        },
        {
          "indexed": false,
          "internalType": "uint256[]",
          "name": "values",
          "type": "uint256[]"
        }
      ],
      "name": "TransferBatch",
      "type": "event"
    },
    {
      "anonymous": false,
      "inputs": [
        {
          "indexed": true,
          "internalType": "address",
          "name": "from",
          "type": "address"
        },
        {
          "indexed": true,
          "internalType": "address",
          "name": "to",
          "type": "address"
        },
        {
          "indexed": false,
          "internalType": "uint256",
          "name": "landId",
          "type": "uint256"
        },
        {
          "indexed": false,
          "internalType": "uint256",
          "name": "amount",
          "type": "uint256"
        }
      ],
      "name": "TransferFractionalTokens",
      "type": "event"
    },
    {
      "anonymous": false,
      "inputs": [
        {
          "indexed": true,
          "internalType": "address",
          "name": "operator",
          "type": "address"
        },
        {
          "indexed": true,
          "internalType": "address",
          "name": "from",
          "type": "address"
        },
        {
          "indexed": true,
          "internalType": "address",
          "name": "to",
          "type": "address"
        },
        {
          "indexed": false,
          "internalType": "uint256",
          "name": "id",
          "type": "uint256"
        },
        {
          "indexed": false,
          "internalType": "uint256",
          "name": "value",
          "type": "uint256"
        }
      ],
      "name": "TransferSingle",
      "type": "event"
    },
    {
      "anonymous": false,
      "inputs": [
        {
          "indexed": false,
          "internalType": "string",
          "name": "value",
          "type": "string"
        },
        {
          "indexed": true,
          "internalType": "uint256",
          "name": "id",
          "type": "uint256"
        }
      ],
      "name": "URI",
      "type": "event"
    },
    {
      "inputs": [
        {
          "internalType": "address",
          "name": "",
          "type": "address"
        }
      ],
      "name": "activeSaleListings",
      "outputs": [
        {
          "internalType": "address",
          "name": "seller",
          "type": "address"
        },
        {
          "internalType": "uint256",
          "name": "landId",
          "type": "uint256"
        },
        {
          "internalType": "uint256",
          "name": "amount",
          "type": "uint256"
        },
        {
          "internalType": "uint256",
          "name": "pricePerToken",
          "type": "uint256"
        }
      ],
      "stateMutability": "view",
      "type": "function"
    },
    {
      "inputs": [
        {
          "internalType": "address",
          "name": "account",
          "type": "address"
        },
        {
          "internalType": "uint256",
          "name": "id",
          "type": "uint256"
        }
      ],
      "name": "balanceOf",
      "outputs": [
        {
          "internalType": "uint256",
          "name": "",
          "type": "uint256"
        }
      ],
      "stateMutability": "view",
      "type": "function"
    },
    {
      "inputs": [
        {
          "internalType": "address[]",
          "name": "accounts",
          "type": "address[]"
        },
        {
          "internalType": "uint256[]",
          "name": "ids",
          "type": "uint256[]"
        }
      ],
      "name": "balanceOfBatch",
      "outputs": [
        {
          "internalType": "uint256[]",
          "name": "",
          "type": "uint256[]"
        }
      ],
      "stateMutability": "view",
      "type": "function"
    },
    {
      "inputs": [
        {
          "internalType": "uint256",
          "name": "landId",
          "type": "uint256"
        },
        {
          "internalType": "uint256",
          "name": "amount",
          "type": "uint256"
        },
        {
          "internalType": "uint256",
          "name": "pricePerToken",
          "type": "uint256"
        }
      ],
      "name": "cancelTokenListing",
      "outputs": [],
      "stateMutability": "nonpayable",
      "type": "function"
    },
    {
      "inputs": [
        {
          "internalType": "string",
          "name": "metadataURI",
          "type": "string"
        },
        {
          "internalType": "uint256",
          "name": "numberOfFractions",
          "type": "uint256"
        }
      ],
      "name": "fractionalizeLand",
      "outputs": [],
      "stateMutability": "nonpayable",
      "type": "function"
    },
    {
      "inputs": [
        {
          "internalType": "address",
          "name": "account",
          "type": "address"
        },
        {
          "internalType": "address",
          "name": "operator",
          "type": "address"
        }
      ],
      "name": "isApprovedForAll",
      "outputs": [
        {
          "internalType": "bool",
          "name": "",
          "type": "bool"
        }
      ],
      "stateMutability": "view",
      "type": "function"
    },
    {
      "inputs": [
        {
          "internalType": "uint256",
          "name": "",
          "type": "uint256"
        }
      ],
      "name": "isFractionalized",
      "outputs": [
        {
          "internalType": "bool",
          "name": "",
          "type": "bool"
        }
      ],
      "stateMutability": "view",
      "type": "function"
    },
    {
      "inputs": [],
      "name": "landIdCounter",
      "outputs": [
        {
          "internalType": "uint256",
          "name": "",
          "type": "uint256"
        }
      ],
      "stateMutability": "view",
      "type": "function"
    },
    {
      "inputs": [
        {
          "internalType": "uint256",
          "name": "landId",
          "type": "uint256"
        },
        {
          "internalType": "uint256",
          "name": "amount",
          "type": "uint256"
        },
        {
          "internalType": "uint256",
          "name": "pricePerToken",
          "type": "uint256"
        }
      ],
      "name": "listTokensForSale",
      "outputs": [],
      "stateMutability": "nonpayable",
      "type": "function"
    },
    {
      "inputs": [],
      "name": "owner",
      "outputs": [
        {
          "internalType": "address",
          "name": "",
          "type": "address"
        }
      ],
      "stateMutability": "view",
      "type": "function"
    },
    {
      "inputs": [
        {
          "internalType": "uint256",
          "name": "landId",
          "type": "uint256"
        },
        {
          "components": [
            {
              "internalType": "address",
              "name": "seller",
              "type": "address"
            },
            {
              "internalType": "uint256",
              "name": "landId",
              "type": "uint256"
            },
            {
              "internalType": "uint256",
              "name": "amount",
              "type": "uint256"
            },
            {
              "internalType": "uint256",
              "name": "pricePerToken",
              "type": "uint256"
            }
          ],
          "internalType": "struct Land.SaleOrder[]",
          "name": "orders",
          "type": "tuple[]"
        }
      ],
      "name": "purchaseTokens",
      "outputs": [],
      "stateMutability": "payable",
      "type": "function"
    },
    {
      "inputs": [],
      "name": "renounceOwnership",
      "outputs": [],
      "stateMutability": "nonpayable",
      "type": "function"
    },
    {
      "inputs": [
        {
          "internalType": "address",
          "name": "from",
          "type": "address"
        },
        {
          "internalType": "address",
          "name": "to",
          "type": "address"
        },
        {
          "internalType": "uint256[]",
          "name": "ids",
          "type": "uint256[]"
        },
        {
          "internalType": "uint256[]",
          "name": "values",
          "type": "uint256[]"
        },
        {
          "internalType": "bytes",
          "name": "data",
          "type": "bytes"
        }
      ],
      "name": "safeBatchTransferFrom",
      "outputs": [],
      "stateMutability": "nonpayable",
      "type": "function"
    },
    {
      "inputs": [
        {
          "internalType": "address",
          "name": "from",
          "type": "address"
        },
        {
          "internalType": "address",
          "name": "to",
          "type": "address"
        },
        {
          "internalType": "uint256",
          "name": "id",
          "type": "uint256"
        },
        {
          "internalType": "uint256",
          "name": "value",
          "type": "uint256"
        },
        {
          "internalType": "bytes",
          "name": "data",
          "type": "bytes"
        }
      ],
      "name": "safeTransferFrom",
      "outputs": [],
      "stateMutability": "nonpayable",
      "type": "function"
    },
    {
      "inputs": [
        {
          "internalType": "address",
          "name": "operator",
          "type": "address"
        },
        {
          "internalType": "bool",
          "name": "approved",
          "type": "bool"
        }
      ],
      "name": "setApprovalForAll",
      "outputs": [],
      "stateMutability": "nonpayable",
      "type": "function"
    },
    {
      "inputs": [
        {
          "internalType": "bytes4",
          "name": "interfaceId",
          "type": "bytes4"
        }
      ],
      "name": "supportsInterface",
      "outputs": [
        {
          "internalType": "bool",
          "name": "",
          "type": "bool"
        }
      ],
      "stateMutability": "view",
      "type": "function"
    },
    {
      "inputs": [
        {
          "internalType": "uint256",
          "name": "",
          "type": "uint256"
        }
      ],
      "name": "totalFractions",
      "outputs": [
        {
          "internalType": "uint256",
          "name": "",
          "type": "uint256"
        }
      ],
      "stateMutability": "view",
      "type": "function"
    },
    {
      "inputs": [
        {
          "internalType": "address",
          "name": "to",
          "type": "address"
        },
        {
          "internalType": "uint256",
          "name": "landId",
          "type": "uint256"
        },
        {
          "internalType": "uint256",
          "name": "amount",
          "type": "uint256"
        }
      ],
      "name": "transferFractionalTokens",
      "outputs": [],
      "stateMutability": "nonpayable",
      "type": "function"
    },
    {
      "inputs": [
        {
          "internalType": "address",
          "name": "newOwner",
          "type": "address"
        }
      ],
      "name": "transferOwnership",
      "outputs": [],
      "stateMutability": "nonpayable",
      "type": "function"
    },
    {
      "inputs": [
        {
          "internalType": "uint256",
          "name": "",
          "type": "uint256"
        }
      ],
      "name": "uri",
      "outputs": [
        {
          "internalType": "string",
          "name": "",
          "type": "string"
        }
      ],
      "stateMutability": "view",
      "type": "function"
    }
  ],
  "bytecode": "0x608060405234801561001057600080fd5b503360405180602001604052806000815250610031816100b960201b60201c565b50600073ffffffffffffffffffffffffffffffffffffffff168173ffffffffffffffffffffffffffffffffffffffff16036100a45760006040517f1e4fbdf700000000000000000000000000000000000000000000000000000000815260040161009b91906101d3565b60405180910390fd5b6100b3816100cc60201b60201c565b50610510565b80600290816100c8919061043e565b5050565b6000600360009054906101000a900473ffffffffffffffffffffffffffffffffffffffff16905081600360006101000a81548173ffffffffffffffffffffffffffffffffffffffff021916908373ffffffffffffffffffffffffffffffffffffffff1602179055508173ffffffffffffffffffffffffffffffffffffffff168173ffffffffffffffffffffffffffffffffffffffff167f8be0079c531659141344cd1fd0a4f28419497f9722a3daafe3b4186f6b6457e060405160405180910390a35050565b600073ffffffffffffffffffffffffffffffffffffffff82169050919050565b60006101bd82610192565b9050919050565b6101cd816101b2565b82525050565b60006020820190506101e860008301846101c4565b92915050565b600081519050919050565b7f4e487b7100000000000000000000000000000000000000000000000000000000600052604160045260246000fd5b7f4e487b7100000000000000000000000000000000000000000000000000000000600052602260045260246000fd5b6000600282049050600182168061026f57607f821691505b60208210810361028257610281610228565b5b50919050565b60008190508160005260206000209050919050565b60006020601f8301049050919050565b600082821b905092915050565b6000600883026102ea7fffffffffffffffffffffffffffffffffffffffffffffffffffffffffffffffff826102ad565b6102f486836102ad565b95508019841693508086168417925050509392505050565b6000819050919050565b6000819050919050565b600061033b6103366103318461030c565b610316565b61030c565b9050919050565b6000819050919050565b61035583610320565b61036961036182610342565b8484546102ba565b825550505050565b600090565b61037e610371565b61038981848461034c565b505050565b5b818110156103ad576103a2600082610376565b60018101905061038f565b5050565b601f8211156103f2576103c381610288565b6103cc8461029d565b810160208510156103db578190505b6103ef6103e78561029d565b83018261038e565b50505b505050565b600082821c905092915050565b6000610415600019846008026103f7565b1980831691505092915050565b600061042e8383610404565b9150826002028217905092915050565b610447826101ee565b67ffffffffffffffff8111156104605761045f6101f9565b5b61046a8254610257565b6104758282856103b1565b600060209050601f8311600181146104a85760008415610496578287015190505b6104a08582610422565b865550610508565b601f1984166104b686610288565b60005b828110156104de578489015182556001820191506020850194506020810190506104b9565b868310156104fb57848901516104f7601f891682610404565b8355505b6001600288020188555050505b505050505050565b613dbf8061051f6000396000f3fe60806040526004361061011e5760003560e01c80638fdc85ce116100a0578063e985e9c511610064578063e985e9c5146103fc578063ee0db7eb14610439578063f1807e5c14610462578063f242432a1461048d578063f2fde38b146104b65761011e565b80638fdc85ce14610304578063a22cb46514610344578063a379c8771461036d578063afe9b7da14610396578063b86b19de146103bf5761011e565b80634e1273f4116100e75780634e1273f41461022c57806358b3605c14610269578063715018a614610285578063766de47f1461029c5780638da5cb5b146102d95761011e565b8062fdd58e1461012357806301ffc9a7146101605780630e89341c1461019d5780632eb2c2d6146101da5780634a687aaa14610203575b600080fd5b34801561012f57600080fd5b5061014a600480360381019061014591906127c1565b6104df565b6040516101579190612810565b60405180910390f35b34801561016c57600080fd5b5061018760048036038101906101829190612883565b610539565b60405161019491906128cb565b60405180910390f35b3480156101a957600080fd5b506101c460048036038101906101bf91906128e6565b61061b565b6040516101d191906129a3565b60405180910390f35b3480156101e657600080fd5b5061020160048036038101906101fc9190612bc2565b6106af565b005b34801561020f57600080fd5b5061022a60048036038101906102259190612d32565b610757565b005b34801561023857600080fd5b50610253600480360381019061024e9190612e51565b61081c565b6040516102609190612f87565b60405180910390f35b610283600480360381019061027e9190613004565b610925565b005b34801561029157600080fd5b5061029a610fb5565b005b3480156102a857600080fd5b506102c360048036038101906102be91906128e6565b610fc9565b6040516102d09190612810565b60405180910390f35b3480156102e557600080fd5b506102ee610fe1565b6040516102fb9190613073565b60405180910390f35b34801561031057600080fd5b5061032b6004803603810190610326919061308e565b61100b565b60405161033b94939291906130bb565b60405180910390f35b34801561035057600080fd5b5061036b6004803603810190610366919061312c565b61105b565b005b34801561037957600080fd5b50610394600480360381019061038f919061316c565b611071565b005b3480156103a257600080fd5b506103bd60048036038101906103b891906131bf565b611319565b005b3480156103cb57600080fd5b506103e660048036038101906103e191906128e6565b6113ed565b6040516103f391906128cb565b60405180910390f35b34801561040857600080fd5b50610423600480360381019061041e9190613212565b61140d565b60405161043091906128cb565b60405180910390f35b34801561044557600080fd5b50610460600480360381019061045b919061316c565b6114a1565b005b34801561046e57600080fd5b50610477611800565b6040516104849190612810565b60405180910390f35b34801561049957600080fd5b506104b460048036038101906104af9190613252565b611806565b005b3480156104c257600080fd5b506104dd60048036038101906104d8919061308e565b6118ae565b005b600080600083815260200190815260200160002060008473ffffffffffffffffffffffffffffffffffffffff1673ffffffffffffffffffffffffffffffffffffffff16815260200190815260200160002054905092915050565b60007fd9b67a26000000000000000000000000000000000000000000000000000000007bffffffffffffffffffffffffffffffffffffffffffffffffffffffff1916827bffffffffffffffffffffffffffffffffffffffffffffffffffffffff1916148061060457507f0e89341c000000000000000000000000000000000000000000000000000000007bffffffffffffffffffffffffffffffffffffffffffffffffffffffff1916827bffffffffffffffffffffffffffffffffffffffffffffffffffffffff1916145b80610614575061061382611934565b5b9050919050565b60606002805461062a90613318565b80601f016020809104026020016040519081016040528092919081815260200182805461065690613318565b80156106a35780601f10610678576101008083540402835291602001916106a3565b820191906000526020600020905b81548152906001019060200180831161068657829003601f168201915b50505050509050919050565b60006106b961199e565b90508073ffffffffffffffffffffffffffffffffffffffff168673ffffffffffffffffffffffffffffffffffffffff16141580156106fe57506106fc868261140d565b155b156107425780866040517fe237d922000000000000000000000000000000000000000000000000000000008152600401610739929190613349565b60405180910390fd5b61074f86868686866119a6565b505050505050565b61075f611a9e565b60046000815480929190610772906133a1565b91905055506000600454905061079933828460405180602001604052806000815250611b25565b81600560008381526020019081526020016000208190555060016006600083815260200190815260200160002060006101000a81548160ff021916908315150217905550807fe04f3628166f9d500265606417509e03be4579a17394e8c4e1fa86c4fa0e4fae838560405161080f9291906133e9565b60405180910390a2505050565b6060815183511461086857815183516040517f5b05999100000000000000000000000000000000000000000000000000000000815260040161085f929190613419565b60405180910390fd5b6000835167ffffffffffffffff811115610885576108846129ca565b5b6040519080825280602002602001820160405280156108b35781602001602082028036833780820191505090505b50905060005b845181101561091a576108f06108d88287611bbe90919063ffffffff16565b6108eb8387611bd290919063ffffffff16565b6104df565b82828151811061090357610902613442565b5b6020026020010181815250508060010190506108b9565b508091505092915050565b6006600084815260200190815260200160002060009054906101000a900460ff16610985576040517f08c379a000000000000000000000000000000000000000000000000000000000815260040161097c906134e3565b60405180910390fd5b60008060005b84849050811015610ccb5760008585838181106109ab576109aa613442565b5b90506080020160000160208101906109c3919061308e565b90506000600760008373ffffffffffffffffffffffffffffffffffffffff1673ffffffffffffffffffffffffffffffffffffffff1681526020019081526020016000206040518060800160405290816000820160009054906101000a900473ffffffffffffffffffffffffffffffffffffffff1673ffffffffffffffffffffffffffffffffffffffff1673ffffffffffffffffffffffffffffffffffffffff168152602001600182015481526020016002820154815260200160038201548152505090506000816040015111610ace576040517f08c379a0000000000000000000000000000000000000000000000000000000008152600401610ac59061354f565b60405180910390fd5b87816020015114610b14576040517f08c379a0000000000000000000000000000000000000000000000000000000008152600401610b0b906135bb565b60405180910390fd5b868684818110610b2757610b26613442565b5b9050608002016040013581604001511015610b77576040517f08c379a0000000000000000000000000000000000000000000000000000000008152600401610b6e90613627565b60405180910390fd5b868684818110610b8a57610b89613442565b5b90506080020160600135816060015114610bd9576040517f08c379a0000000000000000000000000000000000000000000000000000000008152600401610bd090613693565b60405180910390fd5b868684818110610bec57610beb613442565b5b90506080020160400135610c00838a6104df565b1015610c41576040517f08c379a0000000000000000000000000000000000000000000000000000000008152600401610c38906136ff565b60405180910390fd5b868684818110610c5457610c53613442565b5b9050608002016040013585610c69919061371f565b9450868684818110610c7e57610c7d613442565b5b90506080020160600135878785818110610c9b57610c9a613442565b5b90506080020160400135610caf9190613753565b84610cba919061371f565b93505050808060010191505061098b565b5080341015610d0f576040517f08c379a0000000000000000000000000000000000000000000000000000000008152600401610d06906137e1565b60405180910390fd5b60005b84849050811015610f4b576000858583818110610d3257610d31613442565b5b905060800201803603810190610d48919061387e565b9050600081600001519050610d7381338a856040015160405180602001604052806000815250611806565b600082606001518360400151610d899190613753565b90508173ffffffffffffffffffffffffffffffffffffffff166108fc829081150290604051600060405180830381858888f19350505050158015610dd1573d6000803e3d6000fd5b506000600760008473ffffffffffffffffffffffffffffffffffffffff1673ffffffffffffffffffffffffffffffffffffffff16815260200190815260200160002090508360400151816002015403610eaa57600760008473ffffffffffffffffffffffffffffffffffffffff1673ffffffffffffffffffffffffffffffffffffffff168152602001908152602001600020600080820160006101000a81549073ffffffffffffffffffffffffffffffffffffffff02191690556001820160009055600282016000905560038201600090555050610eca565b8360400151816002016000828254610ec291906138ab565b925050819055505b8273ffffffffffffffffffffffffffffffffffffffff163373ffffffffffffffffffffffffffffffffffffffff168b7f06a468bc780ea805d80491ed9f300c36122c94bcb715acc7a8606f510f6c2ecd87604001518860600151604051610f32929190613419565b60405180910390a4505050508080600101915050610d12565b5060008134610f5a91906138ab565b90506000811115610fad573373ffffffffffffffffffffffffffffffffffffffff166108fc829081150290604051600060405180830381858888f19350505050158015610fab573d6000803e3d6000fd5b505b505050505050565b610fbd611a9e565b610fc76000611be6565b565b60056020528060005260406000206000915090505481565b6000600360009054906101000a900473ffffffffffffffffffffffffffffffffffffffff16905090565b60076020528060005260406000206000915090508060000160009054906101000a900473ffffffffffffffffffffffffffffffffffffffff16908060010154908060020154908060030154905084565b61106d61106661199e565b8383611cac565b5050565b6006600084815260200190815260200160002060009054906101000a900460ff166110d1576040517f08c379a00000000000000000000000000000000000000000000000000000000081526004016110c8906134e3565b60405180910390fd5b816110dc33856104df565b101561111d576040517f08c379a00000000000000000000000000000000000000000000000000000000081526004016111149061392b565b60405180910390fd5b60008111611160576040517f08c379a000000000000000000000000000000000000000000000000000000000815260040161115790613997565b60405180910390fd5b6000600760003373ffffffffffffffffffffffffffffffffffffffff1673ffffffffffffffffffffffffffffffffffffffff16815260200190815260200160002060020154146111e5576040517f08c379a00000000000000000000000000000000000000000000000000000000081526004016111dc90613a03565b60405180910390fd5b60405180608001604052803373ffffffffffffffffffffffffffffffffffffffff16815260200184815260200183815260200182815250600760003373ffffffffffffffffffffffffffffffffffffffff1673ffffffffffffffffffffffffffffffffffffffff16815260200190815260200160002060008201518160000160006101000a81548173ffffffffffffffffffffffffffffffffffffffff021916908373ffffffffffffffffffffffffffffffffffffffff1602179055506020820151816001015560408201518160020155606082015181600301559050503373ffffffffffffffffffffffffffffffffffffffff16837f8098ce837a1e7f11070ca4eb3fecff815014e0245b2788d11377149251c2b55b848460405161130c929190613419565b60405180910390a3505050565b8061132433846104df565b1015611365576040517f08c379a000000000000000000000000000000000000000000000000000000000815260040161135c90613a6f565b60405180910390fd5b6113813384848460405180602001604052806000815250611806565b8273ffffffffffffffffffffffffffffffffffffffff163373ffffffffffffffffffffffffffffffffffffffff167fa26bbe54fa0532e401916ac988b0e6d0a482b1e3de4a53dd1718aba39eeae7ad84846040516113e0929190613419565b60405180910390a3505050565b60066020528060005260406000206000915054906101000a900460ff1681565b6000600160008473ffffffffffffffffffffffffffffffffffffffff1673ffffffffffffffffffffffffffffffffffffffff16815260200190815260200160002060008373ffffffffffffffffffffffffffffffffffffffff1673ffffffffffffffffffffffffffffffffffffffff16815260200190815260200160002060009054906101000a900460ff16905092915050565b6006600084815260200190815260200160002060009054906101000a900460ff16611501576040517f08c379a00000000000000000000000000000000000000000000000000000000081526004016114f8906134e3565b60405180910390fd5b8161150c33856104df565b101561154d576040517f08c379a000000000000000000000000000000000000000000000000000000000815260040161154490613b01565b60405180910390fd5b6000600760003373ffffffffffffffffffffffffffffffffffffffff1673ffffffffffffffffffffffffffffffffffffffff1681526020019081526020016000206040518060800160405290816000820160009054906101000a900473ffffffffffffffffffffffffffffffffffffffff1673ffffffffffffffffffffffffffffffffffffffff1673ffffffffffffffffffffffffffffffffffffffff168152602001600182015481526020016002820154815260200160038201548152505090506000816040015111611656576040517f08c379a000000000000000000000000000000000000000000000000000000000815260040161164d90613b6d565b60405180910390fd5b8381602001511461169c576040517f08c379a0000000000000000000000000000000000000000000000000000000008152600401611693906135bb565b60405180910390fd5b828160400151146116e2576040517f08c379a00000000000000000000000000000000000000000000000000000000081526004016116d990613bd9565b60405180910390fd5b81816060015114611728576040517f08c379a000000000000000000000000000000000000000000000000000000000815260040161171f90613693565b60405180910390fd5b600760003373ffffffffffffffffffffffffffffffffffffffff1673ffffffffffffffffffffffffffffffffffffffff168152602001908152602001600020600080820160006101000a81549073ffffffffffffffffffffffffffffffffffffffff021916905560018201600090556002820160009055600382016000905550503373ffffffffffffffffffffffffffffffffffffffff16847f6b07c5730a95c41d70145025b4d89a30daef58b875d933b7be46e254a34aa0a585856040516117f2929190613419565b60405180910390a350505050565b60045481565b600061181061199e565b90508073ffffffffffffffffffffffffffffffffffffffff168673ffffffffffffffffffffffffffffffffffffffff16141580156118555750611853868261140d565b155b156118995780866040517fe237d922000000000000000000000000000000000000000000000000000000008152600401611890929190613349565b60405180910390fd5b6118a68686868686611e1c565b505050505050565b6118b6611a9e565b600073ffffffffffffffffffffffffffffffffffffffff168173ffffffffffffffffffffffffffffffffffffffff16036119285760006040517f1e4fbdf700000000000000000000000000000000000000000000000000000000815260040161191f9190613073565b60405180910390fd5b61193181611be6565b50565b60007f01ffc9a7000000000000000000000000000000000000000000000000000000007bffffffffffffffffffffffffffffffffffffffffffffffffffffffff1916827bffffffffffffffffffffffffffffffffffffffffffffffffffffffff1916149050919050565b600033905090565b600073ffffffffffffffffffffffffffffffffffffffff168473ffffffffffffffffffffffffffffffffffffffff1603611a185760006040517f57f447ce000000000000000000000000000000000000000000000000000000008152600401611a0f9190613073565b60405180910390fd5b600073ffffffffffffffffffffffffffffffffffffffff168573ffffffffffffffffffffffffffffffffffffffff1603611a8a5760006040517f01a83514000000000000000000000000000000000000000000000000000000008152600401611a819190613073565b60405180910390fd5b611a978585858585611f27565b5050505050565b611aa661199e565b73ffffffffffffffffffffffffffffffffffffffff16611ac4610fe1565b73ffffffffffffffffffffffffffffffffffffffff1614611b2357611ae761199e565b6040517f118cdaa7000000000000000000000000000000000000000000000000000000008152600401611b1a9190613073565b60405180910390fd5b565b600073ffffffffffffffffffffffffffffffffffffffff168473ffffffffffffffffffffffffffffffffffffffff1603611b975760006040517f57f447ce000000000000000000000000000000000000000000000000000000008152600401611b8e9190613073565b60405180910390fd5b600080611ba48585611fd9565b91509150611bb6600087848487611f27565b505050505050565b600060208202602084010151905092915050565b600060208202602084010151905092915050565b6000600360009054906101000a900473ffffffffffffffffffffffffffffffffffffffff16905081600360006101000a81548173ffffffffffffffffffffffffffffffffffffffff021916908373ffffffffffffffffffffffffffffffffffffffff1602179055508173ffffffffffffffffffffffffffffffffffffffff168173ffffffffffffffffffffffffffffffffffffffff167f8be0079c531659141344cd1fd0a4f28419497f9722a3daafe3b4186f6b6457e060405160405180910390a35050565b600073ffffffffffffffffffffffffffffffffffffffff168273ffffffffffffffffffffffffffffffffffffffff1603611d1e5760006040517fced3e100000000000000000000000000000000000000000000000000000000008152600401611d159190613073565b60405180910390fd5b80600160008573ffffffffffffffffffffffffffffffffffffffff1673ffffffffffffffffffffffffffffffffffffffff16815260200190815260200160002060008473ffffffffffffffffffffffffffffffffffffffff1673ffffffffffffffffffffffffffffffffffffffff16815260200190815260200160002060006101000a81548160ff0219169083151502179055508173ffffffffffffffffffffffffffffffffffffffff168373ffffffffffffffffffffffffffffffffffffffff167f17307eab39ab6107e8899845ad3d59bd9653f200f220920489ca2b5937696c3183604051611e0f91906128cb565b60405180910390a3505050565b600073ffffffffffffffffffffffffffffffffffffffff168473ffffffffffffffffffffffffffffffffffffffff1603611e8e5760006040517f57f447ce000000000000000000000000000000000000000000000000000000008152600401611e859190613073565b60405180910390fd5b600073ffffffffffffffffffffffffffffffffffffffff168573ffffffffffffffffffffffffffffffffffffffff1603611f005760006040517f01a83514000000000000000000000000000000000000000000000000000000008152600401611ef79190613073565b60405180910390fd5b600080611f0d8585611fd9565b91509150611f1e8787848487611f27565b50505050505050565b611f3385858585612009565b600073ffffffffffffffffffffffffffffffffffffffff168473ffffffffffffffffffffffffffffffffffffffff1614611fd2576000611f7161199e565b90506001845103611fc1576000611f92600086611bd290919063ffffffff16565b90506000611faa600086611bd290919063ffffffff16565b9050611fba8389898585896123b1565b5050611fd0565b611fcf818787878787612565565b5b505b5050505050565b60608060405191506001825283602083015260408201905060018152826020820152604081016040529250929050565b805182511461205357815181516040517f5b05999100000000000000000000000000000000000000000000000000000000815260040161204a929190613419565b60405180910390fd5b600061205d61199e565b905060005b835181101561226c5760006120808286611bd290919063ffffffff16565b905060006120978386611bd290919063ffffffff16565b9050600073ffffffffffffffffffffffffffffffffffffffff168873ffffffffffffffffffffffffffffffffffffffff16146121c457600080600084815260200190815260200160002060008a73ffffffffffffffffffffffffffffffffffffffff1673ffffffffffffffffffffffffffffffffffffffff1681526020019081526020016000205490508181101561216c57888183856040517f03dee4c500000000000000000000000000000000000000000000000000000000815260040161216394939291906130bb565b60405180910390fd5b81810360008085815260200190815260200160002060008b73ffffffffffffffffffffffffffffffffffffffff1673ffffffffffffffffffffffffffffffffffffffff16815260200190815260200160002081905550505b600073ffffffffffffffffffffffffffffffffffffffff168773ffffffffffffffffffffffffffffffffffffffff161461225f578060008084815260200190815260200160002060008973ffffffffffffffffffffffffffffffffffffffff1673ffffffffffffffffffffffffffffffffffffffff1681526020019081526020016000206000828254612257919061371f565b925050819055505b5050806001019050612062565b50600183510361232b57600061228c600085611bd290919063ffffffff16565b905060006122a4600085611bd290919063ffffffff16565b90508573ffffffffffffffffffffffffffffffffffffffff168773ffffffffffffffffffffffffffffffffffffffff168473ffffffffffffffffffffffffffffffffffffffff167fc3d58168c5ae7397731d063d5bbf3d657854427343f4c083240f7aacaa2d0f62858560405161231c929190613419565b60405180910390a450506123aa565b8373ffffffffffffffffffffffffffffffffffffffff168573ffffffffffffffffffffffffffffffffffffffff168273ffffffffffffffffffffffffffffffffffffffff167f4a39dc06d4c0dbc64b70af90fd698a233a518aa5d07e595d983b8c0526c8f7fb86866040516123a1929190613bf9565b60405180910390a45b5050505050565b60008473ffffffffffffffffffffffffffffffffffffffff163b111561255d578373ffffffffffffffffffffffffffffffffffffffff1663f23a6e6187878686866040518663ffffffff1660e01b8152600401612412959493929190613c85565b6020604051808303816000875af192505050801561244e57506040513d601f19601f8201168201806040525081019061244b9190613cf4565b60015b6124d2573d806000811461247e576040519150601f19603f3d011682016040523d82523d6000602084013e612483565b606091505b5060008151036124ca57846040517f57f447ce0000000000000000000000000000000000000000000000000000000081526004016124c19190613073565b60405180910390fd5b805181602001fd5b63f23a6e6160e01b7bffffffffffffffffffffffffffffffffffffffffffffffffffffffff1916817bffffffffffffffffffffffffffffffffffffffffffffffffffffffff19161461255b57846040517f57f447ce0000000000000000000000000000000000000000000000000000000081526004016125529190613073565b60405180910390fd5b505b505050505050565b60008473ffffffffffffffffffffffffffffffffffffffff163b1115612711578373ffffffffffffffffffffffffffffffffffffffff1663bc197c8187878686866040518663ffffffff1660e01b81526004016125c6959493929190613d21565b6020604051808303816000875af192505050801561260257506040513d601f19601f820116820180604052508101906125ff9190613cf4565b60015b612686573d8060008114612632576040519150601f19603f3d011682016040523d82523d6000602084013e612637565b606091505b50600081510361267e57846040517f57f447ce0000000000000000000000000000000000000000000000000000000081526004016126759190613073565b60405180910390fd5b805181602001fd5b63bc197c8160e01b7bffffffffffffffffffffffffffffffffffffffffffffffffffffffff1916817bffffffffffffffffffffffffffffffffffffffffffffffffffffffff19161461270f57846040517f57f447ce0000000000000000000000000000000000000000000000000000000081526004016127069190613073565b60405180910390fd5b505b505050505050565b6000604051905090565b600080fd5b600080fd5b600073ffffffffffffffffffffffffffffffffffffffff82169050919050565b60006127588261272d565b9050919050565b6127688161274d565b811461277357600080fd5b50565b6000813590506127858161275f565b92915050565b6000819050919050565b61279e8161278b565b81146127a957600080fd5b50565b6000813590506127bb81612795565b92915050565b600080604083850312156127d8576127d7612723565b5b60006127e685828601612776565b92505060206127f7858286016127ac565b9150509250929050565b61280a8161278b565b82525050565b60006020820190506128256000830184612801565b92915050565b60007fffffffff0000000000000000000000000000000000000000000000000000000082169050919050565b6128608161282b565b811461286b57600080fd5b50565b60008135905061287d81612857565b92915050565b60006020828403121561289957612898612723565b5b60006128a78482850161286e565b91505092915050565b60008115159050919050565b6128c5816128b0565b82525050565b60006020820190506128e060008301846128bc565b92915050565b6000602082840312156128fc576128fb612723565b5b600061290a848285016127ac565b91505092915050565b600081519050919050565b600082825260208201905092915050565b60005b8381101561294d578082015181840152602081019050612932565b60008484015250505050565b6000601f19601f8301169050919050565b600061297582612913565b61297f818561291e565b935061298f81856020860161292f565b61299881612959565b840191505092915050565b600060208201905081810360008301526129bd818461296a565b905092915050565b600080fd5b7f4e487b7100000000000000000000000000000000000000000000000000000000600052604160045260246000fd5b612a0282612959565b810181811067ffffffffffffffff82111715612a2157612a206129ca565b5b80604052505050565b6000612a34612719565b9050612a4082826129f9565b919050565b600067ffffffffffffffff821115612a6057612a5f6129ca565b5b602082029050602081019050919050565b600080fd5b6000612a89612a8484612a45565b612a2a565b90508083825260208201905060208402830185811115612aac57612aab612a71565b5b835b81811015612ad55780612ac188826127ac565b845260208401935050602081019050612aae565b5050509392505050565b600082601f830112612af457612af36129c5565b5b8135612b04848260208601612a76565b91505092915050565b600080fd5b600067ffffffffffffffff821115612b2d57612b2c6129ca565b5b612b3682612959565b9050602081019050919050565b82818337600083830152505050565b6000612b65612b6084612b12565b612a2a565b905082815260208101848484011115612b8157612b80612b0d565b5b612b8c848285612b43565b509392505050565b600082601f830112612ba957612ba86129c5565b5b8135612bb9848260208601612b52565b91505092915050565b600080600080600060a08688031215612bde57612bdd612723565b5b6000612bec88828901612776565b9550506020612bfd88828901612776565b945050604086013567ffffffffffffffff811115612c1e57612c1d612728565b5b612c2a88828901612adf565b935050606086013567ffffffffffffffff811115612c4b57612c4a612728565b5b612c5788828901612adf565b925050608086013567ffffffffffffffff811115612c7857612c77612728565b5b612c8488828901612b94565b9150509295509295909350565b600067ffffffffffffffff821115612cac57612cab6129ca565b5b612cb582612959565b9050602081019050919050565b6000612cd5612cd084612c91565b612a2a565b905082815260208101848484011115612cf157612cf0612b0d565b5b612cfc848285612b43565b509392505050565b600082601f830112612d1957612d186129c5565b5b8135612d29848260208601612cc2565b91505092915050565b60008060408385031215612d4957612d48612723565b5b600083013567ffffffffffffffff811115612d6757612d66612728565b5b612d7385828601612d04565b9250506020612d84858286016127ac565b9150509250929050565b600067ffffffffffffffff821115612da957612da86129ca565b5b602082029050602081019050919050565b6000612dcd612dc884612d8e565b612a2a565b90508083825260208201905060208402830185811115612df057612def612a71565b5b835b81811015612e195780612e058882612776565b845260208401935050602081019050612df2565b5050509392505050565b600082601f830112612e3857612e376129c5565b5b8135612e48848260208601612dba565b91505092915050565b60008060408385031215612e6857612e67612723565b5b600083013567ffffffffffffffff811115612e8657612e85612728565b5b612e9285828601612e23565b925050602083013567ffffffffffffffff811115612eb357612eb2612728565b5b612ebf85828601612adf565b9150509250929050565b600081519050919050565b600082825260208201905092915050565b6000819050602082019050919050565b612efe8161278b565b82525050565b6000612f108383612ef5565b60208301905092915050565b6000602082019050919050565b6000612f3482612ec9565b612f3e8185612ed4565b9350612f4983612ee5565b8060005b83811015612f7a578151612f618882612f04565b9750612f6c83612f1c565b925050600181019050612f4d565b5085935050505092915050565b60006020820190508181036000830152612fa18184612f29565b905092915050565b600080fd5b60008083601f840112612fc457612fc36129c5565b5b8235905067ffffffffffffffff811115612fe157612fe0612fa9565b5b602083019150836080820283011115612ffd57612ffc612a71565b5b9250929050565b60008060006040848603121561301d5761301c612723565b5b600061302b868287016127ac565b935050602084013567ffffffffffffffff81111561304c5761304b612728565b5b61305886828701612fae565b92509250509250925092565b61306d8161274d565b82525050565b60006020820190506130886000830184613064565b92915050565b6000602082840312156130a4576130a3612723565b5b60006130b284828501612776565b91505092915050565b60006080820190506130d06000830187613064565b6130dd6020830186612801565b6130ea6040830185612801565b6130f76060830184612801565b95945050505050565b613109816128b0565b811461311457600080fd5b50565b60008135905061312681613100565b92915050565b6000806040838503121561314357613142612723565b5b600061315185828601612776565b925050602061316285828601613117565b9150509250929050565b60008060006060848603121561318557613184612723565b5b6000613193868287016127ac565b93505060206131a4868287016127ac565b92505060406131b5868287016127ac565b9150509250925092565b6000806000606084860312156131d8576131d7612723565b5b60006131e686828701612776565b93505060206131f7868287016127ac565b9250506040613208868287016127ac565b9150509250925092565b6000806040838503121561322957613228612723565b5b600061323785828601612776565b925050602061324885828601612776565b9150509250929050565b600080600080600060a0868803121561326e5761326d612723565b5b600061327c88828901612776565b955050602061328d88828901612776565b945050604061329e888289016127ac565b93505060606132af888289016127ac565b925050608086013567ffffffffffffffff8111156132d0576132cf612728565b5b6132dc88828901612b94565b9150509295509295909350565b7f4e487b7100000000000000000000000000000000000000000000000000000000600052602260045260246000fd5b6000600282049050600182168061333057607f821691505b602082108103613343576133426132e9565b5b50919050565b600060408201905061335e6000830185613064565b61336b6020830184613064565b9392505050565b7f4e487b7100000000000000000000000000000000000000000000000000000000600052601160045260246000fd5b60006133ac8261278b565b91507fffffffffffffffffffffffffffffffffffffffffffffffffffffffffffffffff82036133de576133dd613372565b5b600182019050919050565b60006040820190506133fe6000830185612801565b8181036020830152613410818461296a565b90509392505050565b600060408201905061342e6000830185612801565b61343b6020830184612801565b9392505050565b7f4e487b7100000000000000000000000000000000000000000000000000000000600052603260045260246000fd5b7f4c616e64206d757374206265206672616374696f6e616c697a6564206669727360008201527f7400000000000000000000000000000000000000000000000000000000000000602082015250565b60006134cd60218361291e565b91506134d882613471565b604082019050919050565b600060208201905081810360008301526134fc816134c0565b9050919050565b7f53656c6c657220686173206e6f20616374697665206c697374696e6700000000600082015250565b6000613539601c8361291e565b915061354482613503565b602082019050919050565b600060208201905081810360008301526135688161352c565b9050919050565b7f4c616e6420494420646f65736e2774206d61746368206c697374696e67000000600082015250565b60006135a5601d8361291e565b91506135b08261356f565b602082019050919050565b600060208201905081810360008301526135d481613598565b9050919050565b7f4f7264657220616d6f756e742065786365656473206c697374696e6700000000600082015250565b6000613611601c8361291e565b915061361c826135db565b602082019050919050565b6000602082019050818103600083015261364081613604565b9050919050565b7f507269636520646f65736e2774206d61746368206c697374696e670000000000600082015250565b600061367d601b8361291e565b915061368882613647565b602082019050919050565b600060208201905081810360008301526136ac81613670565b9050919050565b7f53656c6c65722068617320696e73756666696369656e742062616c616e636500600082015250565b60006136e9601f8361291e565b91506136f4826136b3565b602082019050919050565b60006020820190508181036000830152613718816136dc565b9050919050565b600061372a8261278b565b91506137358361278b565b925082820190508082111561374d5761374c613372565b5b92915050565b600061375e8261278b565b91506137698361278b565b92508282026137778161278b565b9150828204841483151761378e5761378d613372565b5b5092915050565b7f496e73756666696369656e74207061796d656e74000000000000000000000000600082015250565b60006137cb60148361291e565b91506137d682613795565b602082019050919050565b600060208201905081810360008301526137fa816137be565b9050919050565b600080fd5b60006080828403121561381c5761381b613801565b5b6138266080612a2a565b9050600061383684828501612776565b600083015250602061384a848285016127ac565b602083015250604061385e848285016127ac565b6040830152506060613872848285016127ac565b60608301525092915050565b60006080828403121561389457613893612723565b5b60006138a284828501613806565b91505092915050565b60006138b68261278b565b91506138c18361278b565b92508282039050818111156138d9576138d8613372565b5b92915050565b7f496e73756666696369656e7420746f6b656e2062616c616e6365000000000000600082015250565b6000613915601a8361291e565b9150613920826138df565b602082019050919050565b6000602082019050818103600083015261394481613908565b9050919050565b7f5072696365206d7573742062652067726561746572207468616e203000000000600082015250565b6000613981601c8361291e565b915061398c8261394b565b602082019050919050565b600060208201905081810360008301526139b081613974565b9050919050565b7f416c72656164792068617320616e20616374697665206c697374696e67000000600082015250565b60006139ed601d8361291e565b91506139f8826139b7565b602082019050919050565b60006020820190508181036000830152613a1c816139e0565b9050919050565b7f496e73756666696369656e742062616c616e6365000000000000000000000000600082015250565b6000613a5960148361291e565b9150613a6482613a23565b602082019050919050565b60006020820190508181036000830152613a8881613a4c565b9050919050565b7f4d757374207374696c6c206f776e2074686520746f6b656e7320746f2063616e60008201527f63656c206c697374696e67000000000000000000000000000000000000000000602082015250565b6000613aeb602b8361291e565b9150613af682613a8f565b604082019050919050565b60006020820190508181036000830152613b1a81613ade565b9050919050565b7f4e6f20616374697665206c697374696e6720666f756e64000000000000000000600082015250565b6000613b5760178361291e565b9150613b6282613b21565b602082019050919050565b60006020820190508181036000830152613b8681613b4a565b9050919050565b7f416d6f756e7420646f65736e2774206d61746368206c697374696e6700000000600082015250565b6000613bc3601c8361291e565b9150613bce82613b8d565b602082019050919050565b60006020820190508181036000830152613bf281613bb6565b9050919050565b60006040820190508181036000830152613c138185612f29565b90508181036020830152613c278184612f29565b90509392505050565b600081519050919050565b600082825260208201905092915050565b6000613c5782613c30565b613c618185613c3b565b9350613c7181856020860161292f565b613c7a81612959565b840191505092915050565b600060a082019050613c9a6000830188613064565b613ca76020830187613064565b613cb46040830186612801565b613cc16060830185612801565b8181036080830152613cd38184613c4c565b90509695505050505050565b600081519050613cee81612857565b92915050565b600060208284031215613d0a57613d09612723565b5b6000613d1884828501613cdf565b91505092915050565b600060a082019050613d366000830188613064565b613d436020830187613064565b8181036040830152613d558186612f29565b90508181036060830152613d698185612f29565b90508181036080830152613d7d8184613c4c565b9050969550505050505056fea2646970667358221220eae11d6b1d3a59d300ef520d913ce4eff69f3df2599fb632d71e0b5a12e683a364736f6c634300081c0033",
  "linkReferences": {},
  "deployedLinkReferences": {}
}